:100000000C9446000C9465000C9465000C946500FB
:100010000C9465000C9465000C9465000C946500CC
:100020000C9465000C9465000C9465000C946500BC
:100030000C9465000C9465000C9465000C9405020A
:100040000C9465000C9465000C9465000C9465009C
:100050000C9453010C94FE050C9498050C946500C7
:100060000C9465000C9465000C9465000C9465007C
:100070000C9464060C9431060C94CB050C9465002A
:100080000C9465000C9465000C94650011241FBE4F
:10009000CFEFD0E4DEBFCDBF11E0A0E0B1E0ECE6F1
:1000A000F6E100E00BBF02C007900D92A433B10748
:1000B000D9F711E0A4E3B1E001C01D92AC36B1075D
:1000C000E1F70E9487000C94340B0C940000DF933E
:1000D000CF93CDB7DEB7A7E2B0E0E7E2F0E08081F2
:1000E00084608C93E8E2F0E084E08083CF91DF913C
:1000F0000895DF93CF93CDB7DEB7A8E2B0E0E8E292
:10010000F0E080818B7F8C93CF91DF9108950F93E6
:100110001F93DF93CF9300D0CDB7DEB70E94C808FE
:100120000E94AD090E94280A0E9409010E946700EE
:1001300084E690E00E94970684EA94E00E944E02D2
:1001400082ED94E00E946002A89588E190E02DE0A5
:100150000FB6F894A895809360000FBE20936000BE
:1001600084E690E00E94F30880E060E048E100E06F
:100170001BE420E030E00E94310480E091E023E0C5
:1001800031E0B9010E94A00286E091E029E031E06F
:10019000B9010E94A0028CE091E023E031E0B901B6
:1001A0000E94A0028FE091E022E131E0B9010E94BB
:1001B000A00285E191E028E131E0B9010E94A002AE
:1001C00080E060E048E900EC12E120E030E00E94CD
:1001D000310480E060E00E948E0881E060E00E94CF
:1001E0008E0882E060E00E948E0878948CED95E0A5
:1001F0000E94F3080E94790089E190E00E94F308D0
:100200000E942C019A8389838FE090E00E94F3087A
:10021000F7CFDF93CF93CDB7DEB71092340115C07F
:1002200080913401282F30E080913401882F90E0B4
:10023000FC01E55EFE4F8081F901E85CFE4F8083A2
:10024000809134018F5F8093340180913401843038
:1002500038F3CF91DF910895DF93CF93CDB7DEB719
:10026000F8941092340115C080913401282F30E0A9
:1002700080913401882F90E0FC01E85CFE4F808182
:10028000F901E45CFE4F8083809134018F5F80939D
:10029000340180913401843038F378948CE391E018
:1002A000CF91DF9108951F920F920FB60F92009099
:1002B0005B000F9211242F933F934F935F936F93A3
:1002C0007F938F939F93AF93BF93EF93FF93DF93AE
:1002D000CF93CDB7DEB7E6ECF0E080818093580194
:1002E00080913601882309F44EC080913501882F12
:1002F00090E020915801FC01E05CFE4F208380914A
:1003000035018230B0F480913501882F90E0FC01F6
:10031000E15EFE4F908180915801981771F1109223
:10032000360180E060E00E948E0881E00E94000AB1
:1003300024C080913501883001F58091450180937A
:100340003801809146018093390180914701809363
:100350003A018091480180933B0110923601A895A3
:1003600080E061E00E948E080E94D90A882319F07B
:1003700080E00E94000A0E94E201809135018F5FB7
:100380008093350109C0809158018A3229F4109276
:10039000350181E080933601CF91DF91FF91EF919C
:1003A000BF91AF919F918F917F916F915F914F918D
:1003B0003F912F910F9000925B000F900FBE0F9016
:1003C0001F901895DF93CF93CDB7DEB7109237010A
:1003D000E4E8F0E011821082CF91DF910895DF937D
:1003E000CF93CDB7DEB7E0E8F0E01082E1E8F0E0CF
:1003F00085E08083EFE6F0E081E08083E4E8F0E0F0
:1004000011821082CF91DF9108951F920F920FB643
:100410000F9200905B000F9211242F933F938F93C4
:100420009F93EF93FF93DF93CF93CDB7DEB7809188
:1004300037018F5F80933701809137018739F0F062
:10044000109237011092340115C080913401282F89
:1004500030E080913401882F90E0FC01E55EFE4F92
:100460008081F901E85CFE4F8083809134018F5FC9
:100470008093340180913401843038F3CF91DF913F
:10048000FF91EF919F918F913F912F910F9000924B
:100490005B000F900FBE0F901F901895DF93CF93C6
:1004A00000D0CDB7DEB79A83898389819A819093F2
:1004B0005A01809359010F900F90CF91DF910895C9
:1004C000DF93CF9300D0CDB7DEB79A83898389813C
:1004D0009A8190935C0180935B010F900F90CF9174
:1004E000DF910895DF93CF9300D00F92CDB7DEB7A1
:1004F00089837B836A83898182958F70882F90E0BE
:10050000FC01ED5DFE4F8081EA81FB8180838A8161
:100510009B81DC0111968981882F90E08F7090700B
:10052000FC01ED5DFE4F80818C938A819B81FC01F3
:10053000329610820F900F900F90CF91DF91089517
:100540000F931F93DF93CF93CDB7DEB760970FB6AE
:10055000F894DEBF0FBECDBF9D878C877F876E87E7
:10056000E0915901F0915A0180E4099520915901D7
:1005700030915A01EC85FD858081F9010995209122
:10058000590130915A018C859D85FC0131968081FD
:10059000F90109950EC02091590130915A01EE855B
:1005A000FF858081F90109958E859F8501969F873A
:1005B0008E87EE85FF858081882369F7E091590158
:1005C000F0915A018DE00995E0915901F0915A019D
:1005D0008AE0099519822EC08981082F10E0E091E8
:1005E0005B01F0915C010995282FCE010296FC0178
:1005F000E00FF11F208389818823C9F08981882F2A
:1006000090E09C0121503040CE010296FC01E20FA7
:10061000F31F80818D3059F48981282F30E0CE017D
:100620000296FC01E20FF31F80818A3031F089814C
:100630008F5F898389818A3078F28B81853431F4A8
:100640008C81823519F481E0888B01C0188A8889F1
:1006500060960FB6F894DEBF0FBECDBFCF91DF918D
:100660001F910F9108950F931F93DF93CF93CDB7F1
:10067000DEB760970FB6F894DEBF0FBECDBF9D8783
:100680008C877F876E87E0915901F0915A0180E451
:1006900009952091590130915A01EC85FD858081A1
:1006A000F90109952091590130915A018C859D8558
:1006B000FC0131968081F90109950EC02091590104
:1006C00030915A01EE85FF858081F90109958E856B
:1006D0009F8501969F878E87EE85FF858081882381
:1006E00069F7E0915901F0915A018FE20995E09183
:1006F0005901F0915A0187E50995E0915901F0916E
:100700005A018DE00995E0915901F0915A018AE072
:10071000099519822EC08981082F10E0E0915B01B4
:10072000F0915C010995282FCE010296FC01E00FA3
:10073000F11F208389818823C9F08981882F90E067
:100740009C0121503040CE010296FC01E20FF31FC4
:1007500080818D3059F48981282F30E0CE010296B6
:10076000FC01E20FF31F80818A3031F089818F5FB5
:10077000898389818A3078F28B81853431F48C8148
:10078000823519F481E0888B01C0188A88896096C7
:100790000FB6F894DEBF0FBECDBFCF91DF911F9192
:1007A0000F910895DF93CF93CDB7DEB727970FB69C
:1007B000F894DEBF0FBECDBF9E838D836F839E01F5
:1007C0002E5F3F4F8F81B9010E947202E091590163
:1007D000F0915A0180E40995E0915901F0915A0194
:1007E00084E40995E0915901F0915A0184E5099555
:1007F000E0915901F0915A018A810995E0915901DE
:10080000F0915A018B810995198212C040915901CA
:1008100050915A018981282F30E08D819E81FC0101
:10082000E20FF31F8081FA01099589818F5F898327
:1008300099818F81981750F3E0915901F0915A01F5
:100840008DE00995E0915901F0915A018AE00995EE
:1008500027960FB6F894DEBF0FBECDBFCF91DF91C4
:1008600008950F931F93DF93CF93CDB7DEB72D97E6
:100870000FB6F894DEBF0FBECDBF8D836E834F835E
:10088000088719872A873B8780E291EAA7E0B0E0D2
:10089000288539854A855B85BC01CD010E94120BF4
:1008A000DA01C9010197A109B10989839A83AB8350
:1008B000BC838D81282F30E03D872C878C859D85DA
:1008C000009731F02C853D8521303105D1F031C0C4
:1008D000E2ECF0E08E8186608083E1ECF0E08F81D5
:1008E0008083E5ECF0E089819A81AB81BC81892F1E
:1008F0009A2FAB2FBB278083E4ECF0E089818083C3
:1009000018C0EAECF0E08E8186608083E9ECF0E0CC
:100910008F818083EDECF0E089819A81AB81BC818D
:10092000892F9A2FAB2FBB278083ECECF0E08981D5
:1009300080832D960FB6F894DEBF0FBECDBFCF914A
:10094000DF911F910F910895DF93CF930F92CDB751
:10095000DEB78983E0ECF0E08081882F90E0807240
:1009600090700097B9F3E6ECF0E0898180830F90F6
:10097000CF91DF910895DF93CF930F92CDB7DEB77C
:100980008983E8ECF0E08081882F90E0807290709D
:100990000097B9F3EEECF0E0898180830F90CF915E
:1009A000DF910895DF93CF93CDB7DEB7E0ECF0E0B1
:1009B00080818823DCF7E6ECF0E08081CF91DF9145
:1009C0000895DF93CF93CDB7DEB7E8ECF0E08081F8
:1009D0008823DCF7EEECF0E08081CF91DF91089581
:1009E000DF93CF9300D00F92CDB7DEB79A83898380
:1009F0006B830EC0E981FA81208189819A810196F9
:100A00009A838983822F0E94A4048B8181508B83D7
:100A10008B81882379F70F900F900F90CF91DF9102
:100A20000895DF93CF9300D00F92CDB7DEB79A83AE
:100A300089836B830EC0E981FA81208189819A8143
:100A400001969A838983822F0E94BB048B818150F7
:100A50008B838B81882379F70F900F900F90CF9124
:100A6000DF910895DF93CF9300D00F92CDB7DEB71B
:100A700089837B836A838981882339F48A819B8176
:100A800090935E0180935D0109C08981813031F4CA
:100A90008A819B819093600180935F010F900F90FA
:100AA0000F90CF91DF910895DF93CF9300D00F92F5
:100AB000CDB7DEB789837B836A838981882339F444
:100AC0008A819B81909362018093610109C0898131
:100AD000813031F48A819B8190936401809363011A
:100AE0000F900F900F90CF91DF910895DF93CF93E8
:100AF00000D00F92CDB7DEB789837B836A8389816B
:100B0000882339F48A819B819093660180936501E3
:100B100009C08981813031F48A819B819093680179
:100B2000809367010F900F900F90CF91DF91089500
:100B30001F920F920FB60F9200905B000F9211243C
:100B40002F933F934F935F936F937F938F939F93D5
:100B5000AF93BF93EF93FF93DF93CF93CDB7DEB700
:100B6000E0915D01F0915E010995CF91DF91FF91D8
:100B7000EF91BF91AF919F918F917F916F915F9115
:100B80004F913F912F910F9000925B000F900FBEFD
:100B90000F901F9018951F920F920FB60F92009012
:100BA0005B000F9211242F933F934F935F936F93AA
:100BB0007F938F939F93AF93BF93EF93FF93DF93B5
:100BC000CF93CDB7DEB7E0915F01F0916001099559
:100BD000CF91DF91FF91EF91BF91AF919F918F9155
:100BE0007F916F915F914F913F912F910F90009264
:100BF0005B000F900FBE0F901F9018951F920F92E1
:100C00000FB60F9200905B000F9211242F933F9329
:100C10004F935F936F937F938F939F93AF93BF9304
:100C2000EF93FF93DF93CF93CDB7DEB7E0916101F0
:100C3000F09162010995CF91DF91FF91EF91BF9102
:100C4000AF919F918F917F916F915F914F913F9164
:100C50002F910F9000925B000F900FBE0F901F908E
:100C600018951F920F920FB60F9200905B000F9293
:100C700011242F933F934F935F936F937F938F93A1
:100C80009F93AF93BF93EF93FF93DF93CF93CDB732
:100C9000DEB7E0916301F09164010995CF91DF9196
:100CA000FF91EF91BF91AF919F918F917F916F9144
:100CB0005F914F913F912F910F9000925B000F90A9
:100CC0000FBE0F901F9018951F920F920FB60F92A4
:100CD00000905B000F9211242F933F934F935F93EB
:100CE0006F937F938F939F93AF93BF93EF93FF93F4
:100CF000DF93CF93CDB7DEB7E0916701F091680144
:100D00000995CF91DF91FF91EF91BF91AF919F91A5
:100D10008F917F916F915F914F913F912F910F90A4
:100D200000925B000F900FBE0F901F901895DF93FD
:100D3000CF9300D0CDB7DEB79A838983E8EBF0E09C
:100D400080E49FE129813A81B9010E94EB0ACB013D
:100D50004097969587958083E9EBF0E01082ECEB65
:100D6000F0E084E080830F900F90CF91DF910895A1
:100D7000DF93CF9300D000D00F92CDB7DEB79C8326
:100D80008B83ECEBF0E084EA8083ECEBF0E0808195
:100D90008823DCF7E9EBF0E08081882F90E0887F02
:100DA00090708830910509F04EC0ABEBB0E0EB815C
:100DB000FC818081880F8C93ECEBF0E084E88083E9
:100DC000ECEBF0E080818823DCF7E9EBF0E0808158
:100DD000882F90E0887F907088319105A1F51A8264
:100DE000EB81FC818381898324C0ABEBB0E0EB8194
:100DF000FC81218132818A81882F90E0F901E80FFE
:100E0000F91F80818C93ECEBF0E084E88083ECEBBD
:100E1000F0E080818823DCF7E9EBF0E08081882F27
:100E200090E0887F90708832910569F48A818F5FA5
:100E30008A839A8189819817C0F2ECEBF0E084E90B
:100E400080831D8206C0ECEBF0E084E9808381E0C2
:100E50008D838D810F900F900F900F900F90CF91F9
:100E6000DF910895DF93CF9300D000D00F92CDB7DC
:100E7000DEB79C838B83ECEBF0E084EA8083ECEBC1
:100E8000F0E080818823DCF7E9EBF0E08081882FB7
:100E900090E0887F90708830910509F075C0ABEBC9
:100EA000B0E0EB81FC818081882F90E0880F991F52
:100EB00081608C93ECEBF0E084E88083ECEBF0E075
:100EC00080818823DCF7E9EBF0E08081882F90E0D7
:100ED000887F90708034910509F056C01A82EB81AA
:100EE000FC8186818150898324C0ECEBF0E084ECA6
:100EF0008083ECEBF0E080818823DCF7E9EBF0E025
:100F00008081882F90E0887F907080359105E1F591
:100F1000EB81FC81248135818A81882F90E0D90181
:100F2000A80FB91FEBEBF0E080818C938A818F5F73
:100F30008A839A8189819817C0F2ECEBF0E084E80B
:100F40008083ECEBF0E080818823DCF7E9EBF0E0D4
:100F50008081882F90E0887F907080359105A1F482
:100F6000EB81FC81248135818981882F90E0D90132
:100F7000A80FB91FEBEBF0E080818C93ECEBF0E075
:100F800084E980831D8206C0ECEBF0E084E9808375
:100F900081E08D838D810F900F900F900F900F90B7
:100FA000CF91DF910895DF93CF9300D000D000D090
:100FB000CDB7DEB79C838B836D83ECEBF0E084EAE6
:100FC0008083ECEBF0E080818823DCF7E9EBF0E054
:100FD0008081882F90E0887F90708830910509F09B
:100FE0008DC0ABEBB0E0EB81FC818081882F90E07D
:100FF000880F991F81608C93ECEBF0E084E880838C
:10100000ECEBF0E080818823DCF7E9EBF0E0808115
:10101000882F90E0887F90708034910509F06EC031
:10102000EBEBF0E08D818083ECEBF0E084E88083F3
:10103000ECEBF0E080818823DCF7E9EBF0E08081E5
:10104000882F90E0887F90708832910509F056C013
:101050001A82EB81FC8186818150898324C0ECEB6C
:10106000F0E084EC8083ECEBF0E080818823DCF717
:10107000E9EBF0E08081882F90E0887F90708035E8
:101080009105E1F5EB81FC81248135818A81882FEE
:1010900090E0D901A80FB91FEBEBF0E080818C93B1
:1010A0008A818F5F8A839A8189819817C0F2ECEBDD
:1010B000F0E084E88083ECEBF0E080818823DCF7CB
:1010C000E9EBF0E08081882F90E0887F9070803598
:1010D0009105A1F4EB81FC81248135818981882FE0
:1010E00090E0D901A80FB91FEBEBF0E080818C9361
:1010F000ECEBF0E084E980831E8206C0ECEBF0E0CC
:1011000084E9808381E08E838E8126960FB6F894E1
:10111000DEBF0FBECDBFCF91DF910895DF93CF9398
:1011200000D0CDB7DEB789836A838981833058F5D3
:101130008A818823A9F0A2E2B0E0E2E2F0E08081B7
:10114000482F8981282F30E081E090E0022E02C0F4
:10115000880F991F0A94E2F7809584238C9313C01B
:10116000A2E2B0E0E2E2F0E08081482F8981282FFE
:1011700030E081E090E0022E02C0880F991F0A94AF
:10118000E2F7842B8C930F900F90CF91DF9108950D
:10119000DF93CF93CDB7DEB7A1E2B0E0E1E2F0E0BC
:1011A000808187608C93A2E2B0E0E2E2F0E080818F
:1011B00087608C93CF91DF910895DF93CF9300D018
:1011C000CDB7DEB79A83898389819A8124E00000B4
:1011D0002A95E9F70197D1F7209369010F900F90B5
:1011E000CF91DF910895DF93CF9300D00F92CDB7C9
:1011F000DEB79A83898304C088EE93E00E94DD08FD
:101200001B8289819A81009711F081E08B8389810B
:101210009A8101979A8389838B81882369F70F903C
:101220000F900F90CF91DF910895DF93CF9300D06F
:1012300000D000D0CDB7DEB79B838A836C834D830B
:101240002E8319828E81853050F58D81853614F07C
:1012500084E68D838D818C3914F48CE98D838C81A7
:10126000823021F48D81819589830DC08C81882302
:1012700011F4198208C08C81833019F48FE78983B7
:1012800002C08D818983EA81FB81218132818E8137
:10129000882F90E0F901E80FF91F89818083269655
:1012A0000FB6F894DEBF0FBECDBFCF91DF9108958A
:1012B000DF93CF9300D000D00F92CDB7DEB79A83E3
:1012C00089837C836B834D838D818823A9F08B81F7
:1012D0009C8126E030E0B9010E94FF0ACB019C838B
:1012E0008B83E981FA8181819281FC0132968B8125
:1012F0008F718064808307C0E981FA818181928146
:10130000FC01329610820F900F900F900F900F906B
:10131000CF91DF910895DF93CF9300D000D0CDB768
:10132000DEB79A8389836B834C838C81882341F059
:10133000E981FA810180F281E02D8B81808306C0F2
:10134000E981FA810180F281E02D10820F900F90E7
:101350000F900F90CF91DF910895DF93CF93CDB78A
:10136000DEB7A4E2B0E0E4E2F0E08081807F8C931D
:10137000A5E2B0E0E5E2F0E080818F608C93CF9150
:10138000DF910895DF93CF9300D0CDB7DEB78A8386
:10139000E3E2F0E08081809589838981282F30E025
:1013A0008A81882F90E00197A90102C05595479541
:1013B0008A95E2F7CA0189838981882F90E081703C
:1013C00090700F900F90CF91DF910895DF93CF939E
:1013D000CDB7DEB7E3E2F0E0808180958695869513
:1013E0008370CF91DF910895DF93CF93CDB7DEB7B0
:1013F000E3E2F0E0808180958370CF91DF910895E2
:10140000DF93CF930F92CDB7DEB78983898191E0C7
:101410008927882371F48091330191E089278823FB
:1014200041F4A2E2B0E0E2E2F0E0808188608C93D7
:101430000BC080913301882339F0A2E2B0E0E2E2F0
:10144000F0E08081877F8C930F90CF91DF9108959A
:10145000DF93CF93CDB7DEB7A1E2B0E0E1E2F0E0F9
:10146000808188608C93A2E2B0E0E2E2F0E08081CB
:10147000877F8C93CF91DF910895DF93CF930F9265
:10148000CDB7DEB7898381E069810E948E0899819A
:1014900081E08927882F90E00E94000A998181E0ED
:1014A0008927882331F080916A018F5F80936A01D8
:1014B00002C010926A0180916A018A3040F0109255
:1014C0006A01E8E2F0E084E08083F894FFCF0F90B7
:1014D000CF91DF910895DF93CF9300D000D0CDB7A7
:1014E000DEB79B838A836C838C81813071F4EA81BF
:1014F000FB810180F281E02D8AE6808381E00E94F9
:10150000000A81E080936B0116C08C81823069F4FF
:10151000EA81FB810180F281E02D85E5808380E016
:101520000E94000A10926B0106C0EA81FB810180D3
:10153000F281E02D10828A819B810E94320789838B
:10154000EA81FB810480F581E02D80818A3631F4C7
:1015500081E00E94000A81E080936B01EA81FB81B7
:101560000480F581E02D80818535D9F4A0E6B0E0D6
:10157000E0E6F0E0808188608C93A0E6B0E0E0E6F1
:10158000F0E080818F7B8C93A89588E190E028E043
:101590000FB6F894A895809360000FBE209360006A
:1015A000FFCF89810F900F900F900F90CF91DF9117
:1015B0000895DF93CF930F92CDB7DEB780916B0183
:1015C000882311F0198202C081E0898389810F90FC
:1015D000CF91DF910895AA1BBB1B51E107C0AA1F41
:1015E000BB1FA617B70710F0A61BB70B881F991FC4
:1015F0005A95A9F780959095BC01CD01089597FB68
:10160000092E07260AD077FD04D0E5DF06D000209A
:101610001AF4709561957F4F0895F6F7909581952E
:101620009F4F0895A1E21A2EAA1BBB1BFD010DC0FE
:10163000AA1FBB1FEE1FFF1FA217B307E407F50782
:1016400020F0A21BB30BE40BF50B661F771F881F5E
:10165000991F1A9469F760957095809590959B01F4
:0C166000AC01BD01CF010895F894FFCF4C
:10166C0047490030310043480030380045490044B8
:10167C004900313000425200343800000077774482
:10168C00523D0030313233343536373839414243EC
:04169C00444546017A
:00000001FF
