:100000000C9446000C9465000C9465000C946500FB
:100010000C9465000C9465000C9465000C946500CC
:100020000C9465000C9465000C9465000C946500BC
:100030000C9465000C9465000C9465000C944404C9
:100040000C9465000C9465000C9465000C9465009C
:100050000C94B1030C9472070C9465000C94650029
:100060000C9465000C9465000C9465000C9465007C
:100070000C941A080C94C6070C9465000C94650047
:100080000C9465000C9465000C94650011241FBE4F
:10009000CFEFD0E4DEBFCDBF11E0A0E0B1E0EAE7F2
:1000A000FCE100E00BBF02C007900D92A035B10744
:1000B000D9F711E0A0E5B1E001C01D92A93BB1075D
:1000C000E1F70E9467000C943B0E0C9400000F9324
:1000D0001F93DF93CF93CDB7DEB7C654D0400FB692
:1000E000F894DEBF0FBECDBF80E1FE013E96DF017A
:1000F000982F1D929A95E9F782E0898780E58E8F87
:10010000CE010E96089698A38F8F81E090E09AA377
:1001100089A3CE010E9609969CA38BA381E090E063
:100120009EA38DA382E08D8782E08C878985682FCE
:10013000772767FD70958985992787FD90959E01A2
:10014000225F3F4F280F391F8985482F552747FDCC
:10015000509581E08FA3CE010E9699A788A77BA723
:100160006AA73DA72CA75FA74EA780E488ABCE0166
:100170000E960A969AAB89AB81E090E09CAB8BAB74
:10018000CE010E960B969EAB8DAB81E090E098AFC2
:100190008FAB80E189AFCE010E960C969BAF8AAFF4
:1001A00081E090E09DAF8CAFCE010E960D969FAF93
:1001B0008EAFFE01E05CFF4F81E090E09183808391
:1001C00018861E821A820E94AD0B0E94E40C0E94C7
:1001D0005F0D0E946703A7E2B0E0E7E2F0E08081F4
:1001E00084608C93E8E2F0E084E0808384E60E94FF
:1001F0003D09A89588E190E02DE00FB6F894A89508
:10020000809360000FBE2093600081E090E068E082
:100210004AE050E00E94C50520E531E080E090E032
:10022000B90144E250E00E94580684E690E00E9442
:10023000C20B80E090E068E140E450E00E94C50518
:100240008D85882F90E0880F991FFC01E45FFE4F99
:100250002081318182E291E0B9010E94BB048C854A
:10026000882F90E0880F991FFC01E65EFE4F2081E9
:10027000318185E291E0B9010E94BB0488E291E0FE
:1002800029E031E0B9010E94BB048BE291E02EE24B
:1002900031E0B9010E94BB0481E391E024E331E045
:1002A000B9010E94BB0480E090E060E943E051E0C6
:1002B0000E94C50580E060E00E94730B81E060E071
:1002C0000E94730B82E060E00E94730B789484E6D6
:1002D00090E00E94C20BA8E2B0E0E8E2F0E080818A
:1002E0008B7F8C9389E190E00E94C20BE0E8F0E004
:1002F0001082E1E8F0E085E08083EFE6F0E081E065
:100300008083E4E8F0E0118210820E948A039B87D8
:100310008A87EA85FB8581818270882309F4D2C0AF
:10032000EA85FB8580818170882309F4CBC0EA854A
:10033000FB8580818071882309F4C4C0EA85FB8530
:1003400082818F70882F90E08D3091050CF4BAC0B7
:10035000EA85FB8583818F70882F90E08D30910531
:100360000CF4B0C080E060E00E94730B81E060E0BC
:100370000E94730B82E060E00E94730B80E090E0CB
:1003800068E143E051E00E94C50588E291E029E080
:1003900031E0B9010E943D0523968FAF2397239644
:1003A000AFAD2397AA2321F0B1E02396BFAF2397E7
:1003B00023969FAD239782E0692F0E94730B8BE2F7
:1003C00091E02EE231E0B9010E943D0524968FAF05
:1003D000249724968FAD2497882321F091E02496CA
:1003E0009FAF249724969FAD249782E0692F0E94A7
:1003F000730B8D85882F90E0880F991FFC01E45FB7
:10040000FE4F2081318182E291E0B9010E943D05D9
:1004100025968FAF25972596AFAD2597AA2321F076
:10042000B1E02596BFAF259725969FAD259782E031
:10043000692F0E94730B8C85882F90E0880F991F7D
:10044000FC01E65EFE4F2081318185E291E0B90139
:100450000E943D0526968FAF269726968FAD26974C
:10046000882321F091E026969FAF269726969FAD90
:10047000269782E0692F0E94730B81E391E024E3C9
:1004800031E0B9010E943D0527968FAF2797279647
:10049000AFAD2797AA2321F0B1E02796BFAF2797EA
:1004A00027969FAD279782E0692F0E94730B84E601
:1004B00090E00E94C20B80E090E060E943E051E0F0
:1004C0000E94C5051F82EA85FB8581818072882391
:1004D00021F08F8181608F8303C08F818E7F8F8316
:1004E000EA85FB8581818870882321F08F81826075
:1004F0008F8303C08F818D7F8F83EA85FB85818108
:100500008074882321F08F8184608F8303C08F8162
:100510008B7F8F83EA85FB8581818071882321F021
:100520008F8188608F8303C08F81877F8F838F81C6
:10053000882319F081E08A8301C01A8282E06A81EF
:100540000E94730BCE01C0966F814A810E94C20C3B
:10055000EA85FB8580818870882319F081E08A8391
:1005600001C01A82CE014E9660EF4A810E94C20CF1
:1005700080E58E83EA85FB8580818078882319F069
:1005800082E08B830BC0EA85FB85808180728823A3
:1005900019F081E08B8302C083E08B831D821C8273
:1005A0000CC02C81CE0187966B814E810E944C0C31
:1005B0008C819D8101969D838C838C819D8182306D
:1005C00091057CF3EA85FB8581818170882349F060
:1005D000EA85FB8581818470882319F081E0888712
:1005E0000AC0EA85FB8581818270882319F082E048
:1005F000888701C0188681E089838981082F10E0EF
:10060000CE014E960E947409882F90E0802391239A
:100610001982009711F081E0898384E090E00E94C4
:10062000100C8981082F10E0CE0187960E94740972
:10063000882F90E0802391231982009711F081E0A8
:10064000898384E090E00E94100C8981082F10E0DB
:100650002885CE01C996622F0E94940D882F90E0C4
:10066000802391231982009711F081E08983898189
:10067000082F10E0CE01C9960E947409882F90E0DF
:10068000802391231982009711F081E0898384E00F
:1006900090E00E94100C8981082F10E0CE01C096D6
:1006A0000E947409882F90E080239123198200977B
:1006B00011F081E0898384E090E00E94100C898130
:1006C0000E94740D89E190E00E94C20B1ECEDF9360
:1006D000CF93CDB7DEB71092740115C0809174012D
:1006E000282F30E080917401882F90E0FC01E95CB4
:1006F000FE4F8081F901E858FE4F8083809174019C
:100700008F5F8093740180917401843038F3CF91AE
:10071000DF910895DF93CF93CDB7DEB7F8941092B1
:10072000740115C080917401282F30E0809174010C
:10073000882F90E0FC01E858FE4F8081F901E458D1
:10074000FE4F8083809174018F5F8093740180914C
:100750007401843038F378948CE791E0CF91DF9185
:1007600008951F920F920FB60F9200905B000F92A8
:1007700011242F933F934F935F936F937F938F93A6
:100780009F93AF93BF93EF93FF93DF93CF93CDB737
:10079000DEB7E6ECF0E080818093980180917601ED
:1007A000882309F452C080917501882F90E0209130
:1007B0009801FC01E058FE4F208380917501823042
:1007C000B0F480917501882F90E0FC01E55CFE4F4C
:1007D000908180919801981791F11092760180E0B4
:1007E00060E00E94730B81E00E94370D28C0809169
:1007F0007501883021F58091850180937801809181
:100800008601809379018091870180937A0180919C
:10081000880180937B0110927601A89580E061E0C9
:100820000E94730B0E94020E882319F080E00E9440
:10083000370D10927701E4E8F0E011821082809188
:1008400075018F5F8093750109C0809198018A328C
:1008500029F41092750181E080937601CF91DF91A8
:10086000FF91EF91BF91AF919F918F917F916F9188
:100870005F914F913F912F910F9000925B000F90ED
:100880000FBE0F901F9018951F920F920FB60F92E8
:1008900000905B000F9211242F933F938F939F93AF
:1008A000EF93FF93DF93CF93CDB7DEB780917701BE
:1008B0008F5F80937701809177018739F0F01092F4
:1008C00077011092740115C080917401282F30E0D7
:1008D00080917401882F90E0FC01E95CFE4F8081DB
:1008E000F901E858FE4F8083809174018F5F8093F7
:1008F000740180917401843038F3CF91DF91FF91BE
:10090000EF919F918F913F912F910F9000925B00FB
:100910000F900FBE0F901F901895DF93CF9300D0CC
:100920000F92CDB7DEB789837B836A8389818295F5
:100930008F70882F90E0FC01E15CFE4F8081EA819E
:10094000FB8180838A819B81DC0111968981882FBC
:1009500090E08F709070FC01E15CFE4F80818C9381
:100960008A819B81FC01329610820F900F900F902C
:10097000CF91DF9108950F931F93DF93CF9300D012
:1009800000D00F92CDB7DEB79A8389837C836B83C7
:1009900080E40E94A106E981FA8180810E94A1067B
:1009A00089819A81FC01319680810E94A1060AC04A
:1009B000EB81FC8180810E94A1068B819C81019644
:1009C0009C838B83EB81FC818081882389F78DE078
:1009D0000E94A1068AE00E94A1061092990132C0ED
:1009E00080919901082F10E00E948B06F801E656CD
:1009F000FE4F808380919901882F90E0FC01E6569C
:100A0000FE4F80810E94C106809199018823A9F040
:100A100080919901882F90E00197FC01E656FE4FE6
:100A200080818D3051F480919901882F90E0FC01F4
:100A3000E656FE4F80818A3049F0809199018F5FA0
:100A400080939901809199018A3050F280919B01A5
:100A5000853439F480919C01823519F481E08D83CD
:100A600001C01D828D810F900F900F900F900F90FD
:100A7000CF91DF911F910F9108950F931F93DF93F3
:100A8000CF9300D000D00F92CDB7DEB79A83898381
:100A90007C836B8380E40E94A106E981FA818081D6
:100AA0000E94A10689819A81FC01319680810E9471
:100AB000A1060AC0EB81FC8180810E94A1068B8186
:100AC0009C8101969C838B83EB81FC8180818823B0
:100AD00089F78FE20E94A10687E50E94A1068DE0BA
:100AE0000E94A1068AE00E94A1061092990132C0DC
:100AF00080919901082F10E00E948B06F801E656BC
:100B0000FE4F808380919901882F90E0FC01E6568A
:100B1000FE4F80810E94C106809199018823A9F02F
:100B200080919901882F90E00197FC01E656FE4FD5
:100B300080818D3051F480919901882F90E0FC01E3
:100B4000E656FE4F80818A3049F0809199018F5F8F
:100B500080939901809199018A3050F280919B0194
:100B6000853439F480919C01823519F481E08D83BC
:100B700001C01D828D810F900F900F900F900F90EC
:100B8000CF91DF911F910F910895DF93CF93CDB750
:100B9000DEB72D970FB6F894DEBF0FBECDBF9C8396
:100BA0008B836D835F834E838B819C819D878C8734
:100BB0008C859D85009731F08C859D8581309105D0
:100BC000B1F164C0E1ECF0E01082A2ECB0E0E2EC44
:100BD000F0E0808186608C931A82198205C0898139
:100BE0009A8101969A83898389819A8123E1883841
:100BF0009207ACF3E1ECF0E08D818083E5ECF0E06E
:100C00008E819F81892F99278083E4ECF0E08E818B
:100C10008083E0ECF0E08081A0ECB0E0E0ECF0E07C
:100C20008081837E8C93E6ECF0E0108234C0EDECA2
:100C3000F0E08E819F81892F99278083ECECF0E092
:100C40008E8180831A82198205C089819A810196DA
:100C50009A83898389819A8123E188389207ACF34A
:100C6000A9ECB0E0E9ECF0E090818D81892B8C93C8
:100C7000E8ECF0E08081A8ECB0E0E8ECF0E0808106
:100C8000837E8C93EEECF0E0108205C08FEF9FEF37
:100C90009987888702C019861886888599852D9638
:100CA0000FB6F894DEBF0FBECDBFCF91DF91089590
:100CB000DF93CF9300D000D000D0CDB7DEB79A83BA
:100CC00089837C836B835E834D8389819A81992399
:100CD000CCF089819A8182309105A4F429813A81EE
:100CE000C901880F991F880F991F880F991F820FBC
:100CF000931F8A559E4F4D815E812B813C81B901A6
:100D00000E94500826960FB6F894DEBF0FBECDBFE6
:100D1000CF91DF910895DF93CF93CDB7DEB7E0ECAD
:100D2000F0E080818823DCF7A0ECB0E0E0ECF0E0BC
:100D300080818F778C93E6ECF0E08081CF91DF911A
:100D40000895DF93CF930F92CDB7DEB78983E0ECA0
:100D5000F0E08081882F90E0807290700097B9F366
:100D6000E6ECF0E089818083A0ECB0E0E0ECF0E01C
:100D700080818F7D8C9380E090E00F90CF91DF9108
:100D80000895DF93CF930F92CDB7DEB78983898122
:100D90008A30A1F4E8ECF0E08081882F90E0807246
:100DA00090700097B9F3EEECF0E08DE08083A8EC52
:100DB000B0E0E8ECF0E080818F7D8C93E8ECF0E02F
:100DC0008081882F90E0807290700097B9F3EEECEC
:100DD000F0E089818083A8ECB0E0E8ECF0E080816D
:100DE0008F7D8C9380E090E00F90CF91DF910895FC
:100DF000DF93CF9300D00F92CDB7DEB78B831A82EB
:100E00001982EFE5F0E080818093A401F8948B8152
:100E10008A3061F486EA91E06DE00E947E080097D6
:100E200029F48FEF9FEF9A83898312C086EA91E0BD
:100E30006B810E947E08009721F48FEF9FEF9A83C9
:100E40008983A1ECB0E0E1ECF0E0808180628C93DA
:100E5000EFE5F0E08091A401808389819A810F9071
:100E60000F900F90CF91DF910895DF93CF9300D033
:100E70000F92CDB7DEB78B831A821982EFE5F0E0CF
:100E800080818093A401F8948B818A3061F48FEA89
:100E900091E06DE00E947E08009729F48FEF9FEFAC
:100EA0009A83898312C08FEA91E06B810E947E0849
:100EB000009721F48FEF9FEF9A838983A9ECB0E02C
:100EC000E9ECF0E0808180628C93EFE5F0E08091C6
:100ED000A401808389819A810F900F900F90CF9108
:100EE000DF9108951F920F920FB60F9200905B0052
:100EF0000F9211242F933F934F935F936F937F93A0
:100F00008F939F93AF93BF93EF93FF93DF93CF9311
:100F10000F92CDB7DEB786EA91E09E012F5F3F4F7B
:100F2000B9010E94D108009761F0E6ECF0E08981F8
:100F30008083A0ECB0E0E0ECF0E080818F7D8C93CA
:100F40000EC0A1ECB0E0E1ECF0E080818F7D8C93ED
:100F5000A0ECB0E0E0ECF0E080818F7D8C930F900E
:100F6000CF91DF91FF91EF91BF91AF919F918F91C1
:100F70007F916F915F914F913F912F910F900092D0
:100F80005B000F900FBE0F901F9018951F920F924D
:100F90000FB60F9200905B000F9211242F933F9396
:100FA0004F935F936F937F938F939F93AF93BF9371
:100FB000EF93FF93DF93CF930F92CDB7DEB78FEA16
:100FC00091E09E012F5F3F4FB9010E94D108009729
:100FD00061F0EEECF0E089818083A8ECB0E0E8EC11
:100FE000F0E080818F7D8C930EC0A9ECB0E0E9EC3D
:100FF000F0E080818F7D8C93A8ECB0E0E8ECF0E02D
:1010000080818F7D8C930F90CF91DF91FF91EF9135
:10101000BF91AF919F918F917F916F915F914F9110
:101020003F912F910F9000925B000F900FBE0F9099
:101030001F9018951F920F920FB60F9200905B00B1
:101040000F9211242F933F934F935F936F937F934E
:101050008F939F93AF93BF93EF93FF93DF93CF93C0
:10106000CDB7DEB7EEECF0E020818FEA91E0622FA1
:101070000E947E08CF91DF91FF91EF91BF91AF91D8
:101080009F918F917F916F915F914F913F912F91A0
:101090000F9000925B000F900FBE0F901F9018955D
:1010A000DF93CF9300D000D000D0CDB7DEB79A83C6
:1010B00089837C836B835E834D83E981FA818B8195
:1010C0009C8191838083E981FA818D819E819783C0
:1010D0008683E981FA8113821282E981FA8115827D
:1010E0001482E981FA8181E0808726960FB6F89410
:1010F000DEBF0FBECDBFCF91DF910895DF93CF93B9
:1011000000D000D00F92CDB7DEB79A8389836B836E
:10111000E981FA818085882371F4E981FA8122814D
:101120003381E981FA81848195812817390719F47F
:101130001D821C822CC0E981FA8120813181E981E4
:10114000FA8184819581F901E80FF91F8B818083F1
:10115000E981FA81848195810196E981FA819583FB
:101160008483E981FA8124813581E981FA8186814C
:1011700097812817390721F4E981FA8115821482B1
:10118000E981FA81108681E090E09D838C838C81D7
:101190009D810F900F900F900F900F90CF91DF9146
:1011A0000895DF93CF9300D000D000D0CDB7DEB745
:1011B0009A8389837C836B83E981FA818085882384
:1011C000D9F5E981FA8120813181E981FA81828131
:1011D0009381F901E80FF91F8081EB81FC81808305
:1011E000E981FA81828193810196E981FA81938371
:1011F0008283E981FA8122813381E981FA818681C2
:1012000097812817390721F4E981FA811382128224
:10121000E981FA8122813381E981FA818481958192
:101220002817390721F4E981FA8181E0808781E07C
:1012300090E09E838D8305C0EB81FC8110821E822D
:101240001D828D819E8126960FB6F894DEBF0FBE5B
:10125000CDBFCF91DF910895DF93CF9300D0CDB76D
:10126000DEB79A838983E981FA818085882F90E0AF
:101270000F900F90CF91DF910895DF93CF9300D01F
:1012800000D00F92CDB7DEB7898388EB90E09B83C7
:101290008A838981282F30E080E29EE4B9010E9490
:1012A000140ECB0140979D838C83EC81FD81FF233D
:1012B0002CF48C819D8101969D838C838C819D81F2
:1012C00095958795EA81FB818083E9EBF0E01082B8
:1012D000ECEBF0E084E080830F900F900F900F9084
:1012E0000F90CF91DF910895DF93CF9300D00F92AD
:1012F000CDB7DEB79A838983ECEBF0E084EA808394
:10130000ECEBF0E080818823DCF7E9EBF0E0808112
:10131000882F90E0887F90708830910509F056C042
:10132000ABEBB0E0E981FA818081880F8C93ECEB24
:10133000F0E084E88083ECEBF0E080818823DCF748
:10134000E9EBF0E08081882F90E0887F9070883111
:101350009105E1F51092A50127C0ABEBB0E0E98162
:10136000FA81218132818091A501882F90E0F901D5
:10137000E80FF91F80818C93ECEBF0E084E8808328
:10138000ECEBF0E080818823DCF7E9EBF0E0808192
:10139000882F90E0887F907088329105B9F4809111
:1013A000A5018F5F8093A5018091A501282F30E0D2
:1013B000E981FA81838194812817390770F2ECEB77
:1013C000F0E084E9808381E08B8305C0ECEBF0E002
:1013D00084E980831B828B810F900F900F90CF91B7
:1013E000DF910895DF93CF9300D00F92CDB7DEB792
:1013F0009A838983ECEBF0E084EA8083ECEBF0E005
:1014000080818823DCF7E9EBF0E08081882F90E091
:10141000887F90708830910509F07FC0ABEBB0E019
:10142000E981FA818081882F90E0880F991F81607F
:101430008C93ECEBF0E084E88083ECEBF0E08081CF
:101440008823DCF7E9EBF0E08081882F90E0887F4B
:1014500090708034910509F060C01092A50128C0F9
:10146000ECEBF0E084EC8083ECEBF0E0808188230F
:10147000DCF7E9EBF0E08081882F90E0887F9070C6
:101480008035910509F049C0E981FA8125813681CD
:101490008091A501882F90E0D901A80FB91FEBEB2F
:1014A000F0E080818C938091A5018F5F8093A501EE
:1014B0008091A501282F30E0E981FA81878190850C
:1014C00001972817390760F2ECEBF0E084E880839D
:1014D000ECEBF0E080818823DCF7E9EBF0E0808141
:1014E000882F90E0887F907088359105B1F4E9816C
:1014F000FA81258136818091A501882F90E0D9015C
:10150000A80FB91FEBEBF0E080818C93ECEBF0E0DF
:1015100084E9808381E08B8305C0ECEBF0E084E913
:1015200080831B828B810F900F900F90CF91DF9162
:101530000895DF93CF9300D000D0CDB7DEB79A8364
:1015400089836B83ECEBF0E084EA8083ECEBF0E0E2
:1015500080818823DCF7ABEBB0E0E981FA81808100
:10156000880F8C93ECEBF0E084E88083ECEBF0E008
:1015700080818823DCF7E9EBF0E08081882F90E020
:10158000887F90708034910509F0A0C0EBEBF0E00B
:101590008B818083ECEBF0E084E88083ECEBF0E07F
:1015A00080818823DCF7E9EBF0E08081882F90E0F0
:1015B000887F90708832910509F088C0ECEBF0E0EC
:1015C00084EA8083ECEBF0E080818823DCF7E9EBB0
:1015D000F0E08081882F90E0887F907080319105C5
:1015E00009F074C0ABEBB0E0E981FA818081882F0B
:1015F00090E0880F991F81608C93ECEBF0E084E819
:101600008083ECEBF0E080818823DCF71092A50169
:1016100028C0ECEBF0E084EC8083ECEBF0E0808120
:101620008823DCF7E9EBF0E08081882F90E0887F69
:1016300090708035910509F049C0E981FA812581D2
:1016400036818091A501882F90E0D901A80FB91F9C
:10165000EBEBF0E080818C938091A5018F5F80930C
:10166000A5018091A501282F30E0E981FA818781C9
:10167000908501972817390760F2ECEBF0E084E8D9
:101680008083ECEBF0E080818823DCF7E9EBF0E08D
:101690008081882F90E0887F907088359105B1F423
:1016A000E981FA81258136818091A501882F90E01A
:1016B000D901A80FB91FEBEBF0E080818C93ECEB24
:1016C000F0E084E9808381E08C8305C0ECEBF0E0FE
:1016D00084E980831C828C810F900F900F900F9073
:1016E000CF91DF910895DF93CF9300D0CDB7DEB7D0
:1016F00089836A838981833058F58A818823A9F098
:10170000A2E2B0E0E2E2F0E08081482F8981282F58
:1017100030E081E090E0022E02C0880F991F0A9409
:10172000E2F7809584238C9313C0A2E2B0E0E2E25A
:10173000F0E08081482F8981282F30E081E090E01F
:10174000022E02C0880F991F0A94E2F7842B8C9313
:101750000F900F90CF91DF910895DF93CF93CDB786
:10176000DEB7A1E2B0E0E1E2F0E0808187608C9337
:10177000A2E2B0E0E2E2F0E0808187608C93CF915A
:10178000DF910895DF93CF9300D000D00F92CDB7B3
:10179000DEB79B838A83E0EBF0E01082E1EBF0E0C0
:1017A00081E08083E3EBF0E088EC808384E689834A
:1017B00020C0E2EBF0E01082E7E3F0E08081882FC8
:1017C00090E0827090700097B9F3A7E3B0E0E7E390
:1017D000F0E0808182608C9389818D838D81882364
:1017E00011F081E08D838D819981915099838823B7
:1017F00001F71C828A819B81009711F081E08C8324
:101800008A819B8101979B838A838C81882321F71E
:101810000F900F900F900F900F90CF91DF91089540
:10182000DF93CF9300D00F92CDB7DEB79A83898331
:10183000E0EBF0E01082E1EBF0E081E08083E3EBAD
:10184000F0E084E1808313C0E2EBF0E01082E7E394
:10185000F0E08081882F90E0827090700097B9F35B
:10186000A7E3B0E0E7E3F0E0808182608C931B8225
:1018700089819A81009711F081E08B8389819A8117
:1018800001979A8389838B818823F1F60F900F90BB
:101890000F90CF91DF910895DF93CF9300D000D0C8
:1018A00000D0CDB7DEB79B838A836C834D832E83B4
:1018B00019828E81853050F58D81853614F084E64D
:1018C0008D838D818C3914F48CE98D838C818230E9
:1018D00021F48D81819589830DC08C81882311F439
:1018E000198208C08C81833019F48FE7898302C084
:1018F0008D818983EA81FB81218132818E81882FCC
:1019000090E0F901E80FF91F8981808326960FB6D0
:10191000F894DEBF0FBECDBFCF91DF910895DF9366
:10192000CF9300D000D00F92CDB7DEB79A838983D2
:101930007C836B834D838D818823A9F08B819C816F
:1019400026E030E0B9010E94140ECB019C838B830A
:10195000E981FA8181819281FC0132968B818F71BC
:101960008064808307C0E981FA8181819281FC01D2
:10197000329610820F900F900F900F900F90CF9192
:10198000DF910895DF93CF9300D000D0CDB7DEB7BD
:101990009A8389836B834C838C81882341F0E9810E
:1019A000FA810180F281E02D8B81808306C0E9817C
:1019B000FA810180F281E02D10820F900F900F903C
:1019C0000F90CF91DF910895DF93CF93CDB7DEB71E
:1019D000A4E2B0E0E4E2F0E08081807F8C93A5E2B5
:1019E000B0E0E5E2F0E080818F608C93CF91DF91F1
:1019F0000895DF93CF9300D0CDB7DEB78A83E3E2BB
:101A0000F0E08081809589838981282F30E08A8168
:101A1000882F90E00197A90102C0559547958A95B6
:101A2000E2F7CA0189838981882F90E081709070E4
:101A30000F900F90CF91DF910895DF93CF93CDB7A3
:101A4000DEB7E3E2F0E0808180958695869583702D
:101A5000CF91DF910895DF93CF93CDB7DEB7E3E267
:101A6000F0E0808180958370CF91DF910895DF93BE
:101A7000CF930F92CDB7DEB78983898191E0892713
:101A8000882371F480914F0191E08927882341F4E4
:101A9000A2E2B0E0E2E2F0E0808188608C930BC0CB
:101AA00080914F01882339F0A2E2B0E0E2E2F0E059
:101AB0008081877F8C930F90CF91DF910895DF9382
:101AC000CF93CDB7DEB7A1E2B0E0E1E2F0E08081F4
:101AD00088608C93A2E2B0E0E2E2F0E08081877F50
:101AE0008C93CF91DF910895DF93CF930F92CDB771
:101AF000DEB7898381E069810E94730B998181E05F
:101B00008927882F90E00E94370D998181E08927ED
:101B1000882331F0E8E2F0E084E08083F894FFCF9E
:101B20000F90CF91DF910895DF93CF9300D000D035
:101B3000CDB7DEB79B838A836C838C81813071F44F
:101B4000EA81FB810180F281E02D8AE6808381E0D9
:101B50000E94370D81E08093B80116C08C818230DD
:101B600069F4EA81FB810180F281E02D85E58083C3
:101B700080E00E94370D1092B80106C0EA81FB8117
:101B80000180F281E02D10828A819B810E94F209FE
:101B90008983EA81FB810580F681E02D80818A3688
:101BA00031F481E00E94370D81E08093B801EA8131
:101BB000FB810580F681E02D80818535D9F4A0E692
:101BC000B0E0E0E6F0E0808188608C93A0E6B0E0D1
:101BD000E0E6F0E080818F7B8C93A89588E190E02F
:101BE00028E00FB6F894A895809360000FBE20936C
:101BF0006000FFCF89810F900F900F900F90CF91D1
:101C0000DF910895DF93CF930F92CDB7DEB7809128
:101C1000B801882311F0198202C081E0898389818B
:101C20000F90CF91DF91089597FB092E07260AD0D8
:101C300077FD04D00CD006D000201AF47095619581
:101C40007F4F0895F6F7909581959F4F0895AA1BB1
:101C5000BB1B51E107C0AA1FBB1FA617B70710F097
:101C6000A61BB70B881F991F5A95A9F780959095C9
:0A1C7000BC01CD010895F894FFCFE8
:101C7A0030310030320030330030340000010301CB
:101C8A000601090130380032450014011401170118
:101C9A001701474900434800454900444900343088
:101CAA00004252003438000000777744523D003039
:101CBA0031323334353637383941424344454601A7
:00000001FF
