:1000000019C033C032C031C030C02FC02EC02DC087
:100010002CC02BC02AC029C028C027C026C025C09C
:1000200024C023C022C021C020C01FC01EC01DC0CC
:1000300010C11BC011241FBECFEFD4E0DEBFCDBF67
:1000400011E0A0E0B1E0E8E7F5E002C005900D9214
:10005000A830B107D9F711E0A8E0B1E001C01D92C6
:10006000A131B107E1F702D085C2CACF3F924F92CA
:100070005F926F927F928F929F92AF92BF92CF9238
:10008000DF92EF92FF920F931F93DF93CF93CDB741
:10009000DEB7A1970FB6F894DEBF0FBECDBF1982B1
:1000A0001A821B821C82DE0156968CE0FD011192A1
:1000B0008A95E9F79E012B5F3F4F88E0F901119285
:1000C0008A95E9F781E08D87BF87AE8724E030E02D
:1000D000398B288BCE014A969B8B8A8B3D8B2C8B40
:1000E00078940FD28E01035F1F4FC80194D020E097
:1000F0006E010894C11CD11CA6E16A2E712C6C0EF5
:100100007D1EF5E08F2E912C8C0E9D1EE2E03E2E82
:100110004424439473E0572E580114C0E22FFF2764
:10012000E7FDF095DF01AA0FBB1FAC0DBD1DE60D6D
:10013000F71D8081992787FD909515969C938E9346
:1001400014972F5F243054F374018601D7012D9149
:100150003C912F37310519F4F801508215C0211553
:10016000310519F4D8011C920FC0121613061CF4A5
:10017000F801408209C0D8013C9288279927821B48
:10018000930BF70191838083D701ED91FC91CF010F
:100190006AE070E0C8D19B01220F331F220F331F8A
:1001A000260F371FCF0164E670E0BDD1CB01880F69
:1001B000991F880F991F860F971F280F391FEE0F61
:1001C000FF1F2E0F3F1FF701219331937F010F5F18
:1001D0001F4FEA15FB0509F0B9CFE0910001F0913E
:1001E000010189816D810995E0910201F09103017E
:1001F0008A816F810995E0910401F09105018B815D
:1002000069850995E0910601F09107018C816B8564
:10021000099520E097CFFC0190930C0180930B018E
:100220008081880F8083EAEBF0E0808380818160A9
:10023000808385E48093BC00A8952DE088E190E060
:100240000FB6F894A895809360000FBE20936000CD
:1002500008951F920F920FB60F9211248F939F93C0
:10026000EF93FF938091B900803919F1813948F4F7
:10027000803709F464C08038F9F0803609F067C02F
:100280000CC0883A41F1893A20F4803A09F05FC005
:1002900050C0883B09F05BC039C010920A018091C0
:1002A000BC0080688093BC0081E080930901A89520
:1002B00055C081E08093080180910A019091BB00B4
:1002C000E0910B01F0910C010180F281E02DE80F2B
:1002D000F11D908329C081E08093090110920A01E9
:1002E000E0910B01F0910C010580F681E02D8081F9
:1002F0008093BB0080910A018F5F80930A018091F7
:10030000BC0080688093BC00A89528C080910A0139
:10031000E0910B01F0910C010580F681E02DE80FD2
:10032000F11D80818093BB0080910A018F5F8093D3
:100330000A018091BC0080688093BC000FC0E091EE
:100340000B01F0910C010580F681E02D1082809167
:10035000BC0080688093BC0010920901FF91EF916E
:100360009F918F910F900FBE0F901F90189588232B
:1003700011F0409A089540980895882311F0419A09
:10038000089541980895882311F0599A089559982D
:100390000895882311F05A9A08955A980895882349
:1003A00011F05C9A08955C980895882311F05B9A87
:1003B00008955B980895882311F05F9A08955F98D7
:1003C0000895882311F0289A089528980895282FD1
:1003D00061307105B9F0623071051CF4672B49F08A
:1003E000089562307105B9F06330710509F05CC0A1
:1003F0001BC087EB91E090930E0180930D018DEB74
:1004000091E01AC083EC91E090930E0180930D016E
:1004100089EC91E011C08FEC91E090930E018093F4
:100420000D0185ED91E008C08BED91E090930E01F8
:1004300080930D0181EE91E09093100180930F0164
:10044000213039F02130B8F0223079F0233061F5D5
:100450001FC0E0910D01F0910E0180E00995E0913F
:100460000F01F091100181E011C0E0910D01F091B8
:100470000E0181E005C0E0910D01F0910E0180E0D8
:100480000995E0910F01F091100180E00995089520
:10049000E0910D01F0910E0181E00995E0910F01CD
:1004A000F091100181E0099508951F93162F60E0E7
:1004B00070E08DDF17BD1F9108951F93162F61E027
:1004C00070E085DF18BD1F9108950F931F93062FCD
:1004D00062E070E07CDF10E01093890000938800F8
:1004E0001F910F9108950F931F93062F63E070E003
:1004F0006EDF10E010938B0000938A001F910F9124
:10050000089583E387B98FEF8AB91BB884B915B80A
:1005100083EA84BD83E085BD81EA809380008BE01F
:1005200080938100089597FB092E07260AD077FD56
:1005300004D00CD006D000201AF4709561957F4F3E
:100540000895F6F7909581959F4F0895AA1BBB1BC0
:1005500051E107C0AA1FBB1FA617B70710F0A61BC3
:10056000B70B881F991F5A95A9F780959095BC01E4
:08057000CD010895F894FFCFBE
:0805780055025D0265027302E9
:00000001FF
