:1000000019C033C032C031C030C02FC02EC02DC087
:100010002CC02BC02AC029C028C027C026C025C09C
:1000200024C023C022C021C020C01FC01EC01DC0CC
:10003000D6C11BC011241FBECFEFD4E0DEBFCDBFA1
:1000400011E0A0E0B1E0E8E3FAE002C005900D9213
:10005000A830B107D9F711E0A8E0B1E001C01D92C6
:10006000A131B107E1F702D0E5C4CACFDF93CF9346
:10007000CDB7DEB76C970FB6F894DEBF0FBECDBF1D
:100080001B821C821D821E821F82188619861A8678
:100090001B8688E0FE013C96DF01982F1D929A9501
:1000A000E9F71A82198281E08C8BCE0108969E8B2B
:1000B0008D8B84E090E0988F8F8BCE0108969A8F7D
:1000C000898F84E090E09C8F8B8F64D4CE0144961E
:1000D0004DD178941B821EC08B81682F70E08B817C
:1000E000282F30E0CE010896FC01E20FF31F80813B
:1000F000482F552747FD50959B01220F331FCE01F6
:100100000196820F931FFC013B96518340838B81A4
:100110008F5F8B838B818430F8F21B82F3C08B81DD
:10012000882F90E09C01220F331FCE010196820F91
:10013000931FFC013B96808191818F37910559F483
:100140008B81282F30E0CE010496FC01E20FF31FD3
:1001500083E0808370C08B81882F90E09C01220F08
:10016000331FCE010196820F931FFC013B968081C5
:100170009181009751F48B81282F30E0CE010496B5
:10018000FC01E20FF31F108256C08B81882F90E094
:100190009C01220F331FCE010196820F931FFC0199
:1001A0003B9680819181181619065CF48B81282F6B
:1001B00030E0CE010496FC01E20FF31F81E0808362
:1001C0003AC08B81882F90E09C01220F331FCE0113
:1001D0000196820F931FFC013B96808191819923A8
:1001E00054F58B81282F30E0CE010496FC01E20FFC
:1001F000F31F82E080838B81682F70E08B81882FD2
:1002000090E09C01220F331FCE010196820F931FB5
:10021000FC013B968081918144275527481B590B4F
:100220009B01220F331FCE010196820F931FFC0109
:100230003B96518340838B81882F90E09C01220F55
:10024000331FCE010196820F931FFC013B968081E4
:100250009181880F991F9A8389838B81882F90E0E1
:100260009C01220F331FCE010196820F931FFC01C8
:100270003B96808191812AE030E0B901B4D3CB0173
:100280009C01C901880F991F880F991F280F391FDA
:1002900089819A81820F931F9A8389838B81882F0A
:1002A00090E09C01220F331FCE010196820F931F15
:1002B000FC013B968081918124E630E0B90193D323
:1002C000CB019C01C901880F991F880F991F280F26
:1002D000391F89819A81820F931F9A8389838B8129
:1002E000882F90E09C01220F331FCE010196820FD0
:1002F000931FFC013B9689819A81918380838B8136
:100300008F5F8B838B81843008F409CF1B822AC0D6
:100310008B81882F90E0880F991FFC01E050FF4FE0
:10032000408151818B81282F30E0CE010496FC0161
:10033000E20FF31F8081682F8B81882F90E09C0152
:10034000220F331FCE010196820F931FFC013B96B3
:1003500080819181982F862F692FFA0109958B81D1
:100360008F5F8B838B81843098F2B4CEDF93CF93F1
:1003700000D0CDB7DEB79A83898389819A81909323
:100380000C0180930B012AEB30E0A0910B01B0919E
:100390000C01E0910B01F0910C018081880F8C938E
:1003A0008C91F9018083AAEBB0E0EAEBF0E0808168
:1003B00081608C93ECEBF0E085E48083A89588E184
:1003C00090E02DE00FB6F894A895809360000FBEE2
:1003D000209360000F900F90CF91DF9108951F92AE
:1003E0000F920FB60F9211242F933F938F939F93E9
:1003F000AF93BF93EF93FF93DF93CF9300D0CDB72D
:10040000DEB7E9EBF0E08081282F30E03A832983E2
:1004100089819A818039910509F443C029813A8103
:10042000213931058CF489819A818037910509F44D
:100430009DC029813A8120383105B1F189819A81A5
:100440008036910501F1A4C029813A81283A31050D
:1004500009F450C089819A81893A91053CF4298137
:100460003A81203A310509F43DC092C089819A81D0
:10047000883B910509F45CC029813A81203C310513
:1004800009F47CC085C010920A01ACEBB0E0ECEB43
:10049000F0E0808180688C9381E080930901A895C9
:1004A00080C081E080930801E0910B01F0910C0184
:1004B0002181328180910A01882F90E0D901A80F13
:1004C000B91FEBEBF0E080818C9380910A018F5F84
:1004D00080930A01ACEBB0E0ECEBF0E08081806847
:1004E0008C935FC0ACEBB0E0ECEBF0E08081806817
:1004F0008C9357C081E08093090110920A01ABEB05
:10050000B0E0E0910B01F0910C010580F681E02D47
:1005100080818C9380910A018F5F80930A01ACEBFC
:10052000B0E0ECEBF0E0808180688C93A89539C056
:10053000ABEBB0E0E0910B01F0910C01258136812D
:1005400080910A01882F90E0F901E80FF91F80815E
:100550008C9380910A018F5F80930A01ACEBB0E02D
:10056000ECEBF0E0808180688C931BC0E0910B0184
:10057000F0910C010580F681E02D1082ACEBB0E02B
:10058000ECEBF0E0808180688C931092090109C047
:10059000ACEBB0E0ECEBF0E0808180688C931092E3
:1005A00009010F900F90CF91DF91FF91EF91BF91D3
:1005B000AF919F918F913F912F910F900FBE0F9010
:1005C0001F901895DF93CF930F92CDB7DEB7898335
:1005D0008981882341F0A8E2B0E0E8E2F0E0808180
:1005E00081608C9307C0A8E2B0E0E8E2F0E080818F
:1005F0008E7F8C930F90CF91DF910895DF93CF93EF
:100600000F92CDB7DEB789838981882341F0A8E2B4
:10061000B0E0E8E2F0E0808182608C9307C0A8E25D
:10062000B0E0E8E2F0E080818D7F8C930F90CF9175
:10063000DF910895DF93CF930F92CDB7DEB7898313
:100640008981882341F0ABE2B0E0EBE2F0E0808109
:1006500082608C9307C0ABE2B0E0EBE2F0E0808117
:100660008D7F8C930F90CF91DF910895DF93CF937F
:100670000F92CDB7DEB789838981882341F0ABE241
:10068000B0E0EBE2F0E0808184608C9307C0ABE2E5
:10069000B0E0EBE2F0E080818B7F8C930F90CF9104
:1006A000DF910895DF93CF930F92CDB7DEB78983A3
:1006B0008981882341F0ABE2B0E0EBE2F0E0808199
:1006C00080618C9307C0ABE2B0E0EBE2F0E08081A8
:1006D0008F7E8C930F90CF91DF910895DF93CF930E
:1006E0000F92CDB7DEB789838981882341F0ABE2D1
:1006F000B0E0EBE2F0E0808188608C9307C0ABE271
:10070000B0E0EBE2F0E08081877F8C930F90CF9197
:10071000DF910895DF93CF930F92CDB7DEB7898332
:100720008981882341F0ABE2B0E0EBE2F0E0808128
:1007300080688C9307C0ABE2B0E0EBE2F0E0808130
:100740008F778C930F90CF91DF910895DF93CF93A4
:100750000F92CDB7DEB789838981882341F0A5E266
:10076000B0E0E5E2F0E0808181608C9307C0A5E213
:10077000B0E0E5E2F0E080818E7F8C930F90CF9126
:10078000DF910895DF93CF9300D000D000D0CDB794
:10079000DEB789836A838A81282F30E03E832D83E8
:1007A0008D819E818130910511F12D813E81223014
:1007B00031052CF48D819E81009761F090C02D81D0
:1007C0003E812230310501F18D819E81833091057A
:1007D00041F185C082EE92E090930E0180930D016D
:1007E0008EEF92E09093100180930F0126C08AE172
:1007F00093E090930E0180930D0186E393E0909334
:10080000100180930F0119C082E593E090930E01CF
:1008100080930D018EE693E09093100180930F0179
:100820000CC08AE893E090930E0180930D0186EA54
:1008300093E09093100180930F018981282F30E07D
:100840003C832B838B819C8181309105A9F02B8186
:100850003C81223031052CF48B819C81009731F151
:100860003EC02B813C812230310599F08B819C81E7
:100870008330910541F133C0E0910D01F0910E01FB
:1008800080E00995E0910F01F091100181E0099558
:1008900026C0E0910D01F0910E0181E00995E091F3
:1008A0000F01F091100180E0099519C0E0910D0150
:1008B000F0910E0180E00995E0910F01F091100197
:1008C00080E009950CC0E0910D01F0910E0181E0EE
:1008D0000995E0910F01F091100181E009952696AC
:1008E0000FB6F894DEBF0FBECDBFCF91DF91089554
:1008F000DF93CF9300D0CDB7DEB789836A83898138
:1009000060E040DFE7E4F0E08A8180830F900F90A1
:10091000CF91DF910895DF93CF9300D0CDB7DEB7AD
:1009200089836A83898161E02DDFE8E4F0E08A81D0
:1009300080830F900F90CF91DF910895DF93CF9335
:1009400000D0CDB7DEB789836A83898162E01ADF80
:10095000E8E8F0E08A81882F90E0918380830F900F
:100960000F90CF91DF910895DF93CF9300D0CDB753
:10097000DEB789836A83898163E004DFEAE8F0E017
:100980008A81882F90E0918380830F900F90CF9180
:10099000DF910895DF93CF93CDB7DEB7E7E2F0E0C4
:1009A00083E38083EAE2F0E08FEF8083EBE2F0E024
:1009B0001082E4E2F0E08FEF8083E5E2F0E0108265
:1009C000E4E4F0E083EA8083E5E4F0E083E0808320
:1009D000E0E8F0E081EA8083E1E8F0E08BE080830A
:1009E000CF91DF91089597FB092E07260AD077FD56
:1009F00004D00CD006D000201AF4709561957F4F7A
:100A00000895F6F7909581959F4F0895AA1BBB1BFB
:100A100051E107C0AA1FBB1FA617B70710F0A61BFE
:100A2000B70B881F991F5A95A9F780959095BC011F
:080A3000CD010895F894FFCFF9
:080A380078048B049E04B40451
:00000001FF
