:1000000019C033C032C031C030C02FC02EC02DC087
:100010002CC02BC02AC029C028C027C026C025C09C
:1000200024C023C022C021C020C01FC01EC01DC0CC
:10003000EBC01BC011241FBECFEFD4E0DEBFCDBF8D
:1000400011E0A0E0B1E0E4EFF4E002C005900D9211
:10005000A830B107D9F711E0A8E0B1E001C01D92C6
:10006000A131B107E1F702D043C2CACF2F923F922C
:100070005F926F927F928F929F92AF92BF92CF9238
:10008000DF92EF92FF920F931F93DF93CF93CDB741
:10009000DEB7A5970FB6F894DEBF0FBECDBFDE0169
:1000A0005A968CE0FD0111928A95E9F71D821E8215
:1000B0001F8218869E01275F3F4F88E0F901119249
:1000C0008A95E9F781E0898BBB8BAA8B24E030E02D
:1000D0003D8B2C8BCE014E969F8B8E8B398F288F2C
:1000E0007894DBD1CE0141967DD090E06E010894EA
:1000F000C11CD11C6AE1862E912C8C0E9D1E59E0EC
:10010000A52EB12CAC0EBD1E45E0E42EF12CEC0E5C
:10011000FD1E32E0532E6624639423E0722E0CC041
:10012000E92FFF27E7FDF095D601AE0FBF1FE80DC1
:10013000F91D80818C939F5F943094F316018501A3
:10014000F701D1018C918F3711F470820CC0882394
:1001500011F4108208C0181614F4608204C0508292
:100160008195D1018C93D1014D911D01842F6AE0BD
:10017000A6D1B5E08B0290011124842F64E69FD1B3
:100180008B02C0011124280F391F552747FD5095B8
:10019000440F551F240F351FD8012D933D938D011A
:1001A00031962E143F0469F6E0910601F0910701A3
:1001B00088856F850995E0910401F09105018F8193
:1001C0006D850995E0910201F09103018E816B85A7
:1001D0000995E0910001F09101018D8169850995F2
:1001E00090E0AACFFC0190930C0180930B018081D9
:1001F000880F8083EAEBF0E08083808181608083D8
:1002000085E48093BC0008951F920F920FB60F9261
:1002100011248F939F93EF93FF938091B9008039BE
:1002200011F1813948F4803709F455C08038F1F074
:10023000803609F058C00CC0883A39F1893A20F468
:10024000803A09F050C041C0883B09F04CC02AC038
:1002500010920A018091BC0080688093BC0081E00C
:100260008093090147C081E08093080180910A01D1
:100270009091BB00E0910B01F0910C010180F281A3
:10028000E02DE80FF11D90831BC081E080930901F0
:1002900010920A01E0910B01F0910C010580F681AA
:1002A000E02D0BC080910A01E0910B01F0910C014F
:1002B0000580F681E02DE80FF11D80818093BB0061
:1002C00080910A018F5F80930A018091BC00806851
:1002D0008093BC000FC0E0910B01F0910C010580F0
:1002E000F681E02D10828091BC0080688093BC0074
:1002F00010920901FF91EF919F918F910F900FBE86
:100300000F901F901895882311F0409A08954098F7
:100310000895882311F0419A0895419808958823FB
:1003200011F0599A089559980895882311F05A9A0E
:1003300008955A980895882311F05C9A08955C985E
:100340000895882311F05B9A08955B980895882397
:1003500011F05F9A08955F980895882311F0289A04
:10036000089528980895282F61307105B9F06230FA
:1003700071051CF4672B49F0089562307105B9F0DE
:100380006330710509F05CC01BC083E891E0909375
:100390000E0180930D0189E891E01AC08FE891E089
:1003A00090930E0180930D0185E991E011C08BE9D6
:1003B00091E090930E0180930D0181EA91E008C0D5
:1003C00087EA91E090930E0180930D018DEA91E010
:1003D0009093100180930F01213039F02130B8F053
:1003E000223079F0233061F51FC0E0910D01F091CA
:1003F0000E0180E00995E0910F01F091100181E07C
:1004000011C0E0910D01F0910E0181E005C0E09175
:100410000D01F0910E0180E00995E0910F01F0913E
:10042000100180E009950895E0910D01F0910E0111
:1004300081E00995E0910F01F091100181E00995AB
:1004400008951F93162F60E070E08DDF17BD1F9198
:1004500008951F93162F61E070E085DF18BD1F918E
:1004600008950F931F93062F62E070E07CDF10E089
:1004700010938900009388001F910F9108950F93A6
:100480001F93062F63E070E06EDF10E010938B0087
:1004900000938A001F910F91089583E387B98FEF2E
:1004A0008AB91BB884B915B883EA84BD83E085BDD9
:1004B00081EA809380008BE080938100089587FB20
:1004C000082E062687FD819567FD619505D00EF4FF
:1004D000919507FC81950895991B79E004C0991FB7
:1004E000961708F0961B881F7A95C9F7809508958E
:0404F000F894FFCFAE
:0804F4002102290231023F023E
:00000001FF
