:100000000C9446000C9465000C9465000C946500FB
:100010000C9465000C9465000C9465000C946500CC
:100020000C9465000C9465000C9465000C946500BC
:100030000C9465000C9465000C9465000C945105BB
:100040000C9465000C9465000C9465000C9465009C
:100050000C94BE040C947F080C9465000C9465000D
:100060000C9465000C9465000C9465000C9465007C
:100070000C9427090C94D3080C9465000C9465002B
:100080000C9465000C9465000C94650011241FBE4F
:10009000CFEFD0E4DEBFCDBF13E0A0E0B1E0E0EBF6
:1000A000FEE100E00BBF02C007900D92A831B1073E
:1000B000D9F713E0A8E1B3E001C01D92A238B1075F
:1000C000E1F70E9467000C94560F0C9400000F9308
:1000D0001F93DF93CF93CDB7DEB7CC50D2400FB68E
:1000E000F894DEBF0FBECDBF80E1FE013D96DF017B
:1000F000982F1D929A95E9F783E08C8783E08B8790
:1001000084E088871F821E82DE019196C250DE4FF6
:10011000B983A883CE5FD140E9E0F2E0C050DE4F62
:10012000F983E883C050D240F1EECE5FDD4FF88313
:10013000C250D240C050DE4FA881B981C050D240D9
:100140000C90C050DE4FE881F981C050D24031960A
:10015000C050DE4FF983E883C050D240C250DE4F1A
:10016000A881B981CE5FD1400C92C250DE4FE881A8
:10017000F981CE5FD1403196C250DE4FF983E883DA
:10018000CE5FD140CE5FDD4FF881C250D240F150FA
:10019000CE5FDD4FF883C250D240CE5FDD4F888105
:1001A000C250D240882331F6CE018E5F9E4FCD5F84
:1001B000DD4F99838883C350D240A8E2B1E0CB5F82
:1001C000DD4FB983A883C550D240B1EEC95FDD4F82
:1001D000B883C750D240CB5FDD4FE881F981C5506D
:1001E000D2400080CB5FDD4F88819981C550D240DD
:1001F0000196CB5FDD4F99838883C550D240CD5F98
:10020000DD4FA881B981C350D2400C92CD5FDD4F44
:10021000E881F981C350D2403196CD5FDD4FF9833B
:10022000E883C350D240C95FDD4FF881C750D24048
:10023000F150C95FDD4FF883C750D240C95FDD4F31
:100240008881C750D240882331F68885482F5527AA
:1002500047FD50958885992787FD90959E01235FDE
:100260003F4F280F391F8885682F772767FD7095C6
:10027000FE01ED51FE4F81E08083FE01ED51FE4F06
:10028000CE010D9692838183FE01ED51FE4F548382
:100290004383FE01ED51FE4F36832583FE01ED5170
:1002A000FE4F70876783FE01E451FE4F80E4808338
:1002B000FE01E451FE4FCE010D960A969283818392
:1002C000FE01E451FE4F81E090E094838383FE01C0
:1002D000E451FE4FCE010D960B9696838583FE0169
:1002E000E451FE4F81E090E090878783FE01EB5060
:1002F000FE4F80E18083FE01EB50FE4FCE010D9654
:100300000C9692838183FE01EB50FE4F81E090E0DA
:1003100094838383FE01EB50FE4FCE010D960D9624
:1003200096838583FE01EB50FE4F81E090E090873D
:1003300087831B821A820E94BA0C0E94F10D0E94D0
:100340006C0E0E947404A7E2B0E0E7E2F0E0808166
:1003500084608C93E8E2F0E084E0808384E60E948D
:100360004A0AA89588E190E02DE00FB6F894A89588
:10037000809360000FBE2093600081E090E068E011
:100380004AE050E00E94D20628E133E080E090E0AD
:10039000B90144E250E00E94650784E690E00E94C3
:1003A000CF0C80E090E068E140E450E00E94D2068B
:1003B0008C85882F90E0880F991FFC01E45FFE4F29
:1003C000208131818AEE92E0B9010E94C8058B85B7
:1003D000882F90E0880F991FFC01E05EFE4F20817E
:1003E00031818DEE92E0B9010E94C80580EF92E064
:1003F00024E131E0B9010E94C80583EF92E026EFC5
:1004000032E0B9010E94C80589EF92E02CEF32E09A
:10041000B9010E94C80580E090E060E943E051E046
:100420000E94D20680E060E00E94800C81E060E0E3
:100430000E94800C82E060E00E94800C789484E648
:1004400090E00E94CF0CA8E2B0E0E8E2F0E080810A
:100450008B7F8C9389E190E00E94CF0CE0E8F0E084
:100460001082E1E8F0E085E08083EFE6F0E081E0F3
:100470008083E4E8F0E0118210820E9497049A875A
:100480008987E985FA8581818270882309F4FAC019
:10049000E985FA8580818170882309F4F3C0E985B4
:1004A000FA8580818071882309F4ECC0E985FA859A
:1004B00082818F70882F90E08D3091050CF4E2C01E
:1004C000E985FA8583818F70882F90E08D309105C2
:1004D0000CF4D8C080E060E00E94800C81E060E015
:1004E0000E94800C82E060E00E94800C80E090E03E
:1004F00068E143E051E00E94D2068C85882F90E0AD
:10050000880F991FFC01E45FFE4F208131818AEE44
:1005100092E0B9010E944A06C85FDD4F8883C85047
:10052000D240C85FDD4F9881C850D240992331F046
:10053000A1E0C85FDD4FA883C850D240C85FDD4F3F
:100540009881C850D24082E0692F0E94800C8B8530
:10055000882F90E0880F991FFC01E05EFE4F2081FC
:1005600031818DEE92E0B9010E944A06C75FDD4FEE
:100570008883C950D240C75FDD4FB881C950D2408F
:10058000BB2331F0E1E0C75FDD4FE883C950D240C3
:10059000C75FDD4F9881C950D24082E0692F0E9429
:1005A000800C80EF92E024E131E0B9010E944A061C
:1005B000C65FDD4F8883CA50D240C65FDD4FF881E9
:1005C000CA50D240FF2331F081E0C65FDD4F8883FF
:1005D000CA50D240C65FDD4F9881CA50D24082E0F7
:1005E000692F0E94800C83EF92E026EF32E0B90180
:1005F0000E944A06C55FDD4F8883CB50D240C55F5D
:10060000DD4F9881CB50D240992331F0A1E0C55FF6
:10061000DD4FA883CB50D240C55FDD4F9881CB50D2
:10062000D24082E0692F0E94800C89EF92E02CEF8B
:1006300032E0B9010E944A06C45FDD4F8883CC5086
:10064000D240C45FDD4FB881CC50D240BB2331F0E3
:10065000E1E0C45FDD4FE883CC50D240C45FDD4FA2
:100660009881CC50D24082E0692F0E94800C84E6B1
:1006700090E00E94CF0C80E090E060E943E051E020
:100680000E94D2061F821E8281E08C8381E08D83CE
:10069000E985FA8580818078882329F082E38F8339
:1006A00086E38E8367C0E985FA858081807288231E
:1006B00029F08BEC8F838EEC8E835CC0E985FA8504
:1006C000818180728823C9F087E38F838EEC8E83CB
:1006D000E985FA8581818870882319F084E68F8303
:1006E0001E82E985FA8580818170882309F442C0E1
:1006F00084E68F838CE98E833DC0E985FA8581810C
:1007000080748823C1F08EEC8F8382E38E83E98529
:10071000FA8581818071882319F084E68E831F8297
:10072000E985FA8580818170882321F18CE98F83A6
:1007300084E68E831FC0E985FA85828182958F7059
:10074000882F90E09E8F8D8FE985FA8582818F704A
:10075000882F90E098A38F8F8D8D9E8D8730910587
:1007600049F48F8D98A18730910521F483E08D8322
:1007700083E08C838E81882311F483E08D838F81C5
:10078000882311F483E08C832D81CE018D519E4FFF
:10079000622F4E8120E00E94590D2C818F81382FCD
:1007A0003195CE018D519E4F622F432F21E00E9443
:1007B000590D2D81CE018D519E4F622F4E8122E029
:1007C0000E94590D2C818F81382F3195CE018D518A
:1007D0009E4F622F432F23E00E94590DE985FA8531
:1007E00080818870882319F081E08A8301C01A8291
:1007F000CE0184519E4F63E04A810E94CF0DE9856E
:10080000FA8581818170882349F0E985FA858181A3
:100810008470882319F081E08B830AC0E985FA850A
:1008200081818270882319F082E08B8301C01B8252
:1008300081E089838981082F10E0CE018D519E4F80
:100840000E94810A882F90E08023912319820097CB
:1008500011F081E0898384E090E00E941D0D898180
:10086000082F10E02B81CE018B509E4F622F0E94EB
:10087000AF0E882F90E0802391231982009711F00A
:1008800081E089838981082F10E0CE018B509E4F33
:100890000E94810A882F90E080239123198200977B
:1008A00011F081E0898384E090E00E941D0D898130
:1008B000082F10E0CE0184519E4F0E94810A882F9C
:1008C00090E0802391231982009711F081E08983C1
:1008D00084E090E00E941D0D89810E94810E89E1D3
:1008E00090E00E94CF0CC9CDDF93CF93CDB7DEB798
:1008F00010923C0315C080913C03282F30E080917A
:100900003C03882F90E0FC01E150FD4F8081F9010C
:10091000E05CFC4F808380913C038F5F80933C03BD
:1009200080913C03843038F3CF91DF910895DF93B9
:10093000CF93CDB7DEB7F89410923C0315C08091E9
:100940003C03282F30E080913C03882F90E0FC018D
:10095000E05CFC4F8081F901EC5BFC4F808380916F
:100960003C038F5F80933C0380913C03843038F3D9
:10097000789484E493E0CF91DF9108951F920F92D1
:100980000FB60F9200905B000F9211242F933F93AC
:100990004F935F936F937F938F939F93AF93BF9387
:1009A000EF93FF93DF93CF93CDB7DEB7E6ECF0E0A4
:1009B00080818093600380913E03882309F452C0B4
:1009C00080913D03882F90E020916003FC01E85B5B
:1009D000FC4F208380913D038230B0F480913D0331
:1009E000882F90E0FC01ED5FFC4F908180916003C7
:1009F000981791F110923E0380E060E00E94800C15
:100A000081E00E94440E28C080913D03883021F58A
:100A100080914D038093400380914E038093410366
:100A200080914F038093420380915003809343034E
:100A300010923E03A89580E061E00E94800C0E9425
:100A40001D0F882319F080E00E94440E10923F038E
:100A5000E4E8F0E01182108280913D038F5F809383
:100A60003D0309C0809160038A3229F410923D034E
:100A700081E080933E03CF91DF91FF91EF91BF9191
:100A8000AF919F918F917F916F915F914F913F9126
:100A90002F910F9000925B000F900FBE0F901F9050
:100AA00018951F920F920FB60F9200905B000F9255
:100AB00011242F933F938F939F93EF93FF93DF9393
:100AC000CF93CDB7DEB780913F038F5F80933F0315
:100AD00080913F038739F0F010923F0310923C035E
:100AE00015C080913C03282F30E080913C03882F73
:100AF00090E0FC01E150FD4F8081F901E05CFC4F8A
:100B0000808380913C038F5F80933C0380913C0302
:100B1000843038F3CF91DF91FF91EF919F918F91C6
:100B20003F912F910F9000925B000F900FBE0F909E
:100B30001F901895DF93CF9300D00F92CDB7DEB7FB
:100B400089837B836A83898182958F70882F90E067
:100B5000FC01E95FFC4F8081EA81FB8180838A810F
:100B60009B81DC0111968981882F90E08F709070B5
:100B7000FC01E95FFC4F80818C938A819B81FC01A1
:100B8000329610820F900F900F90CF91DF910895C1
:100B90000F931F93DF93CF9300D000D00F92CDB768
:100BA000DEB79A8389837C836B8380E40E94AE07DF
:100BB000E981FA8180810E94AE0789819A81FC01D6
:100BC000319680810E94AE070AC0EB81FC81808152
:100BD0000E94AE078B819C8101969C838B83EB8165
:100BE000FC818081882389F78DE00E94AE078AE02E
:100BF0000E94AE071092610332C080916103082FFA
:100C000010E00E949807F801EE59FC4F8083809114
:100C10006103882F90E0FC01EE59FC4F80810E9417
:100C2000CE07809161038823A9F080916103882F0A
:100C300090E00197FC01EE59FC4F80818D3051F41A
:100C400080916103882F90E0FC01EE59FC4F808178
:100C50008A3049F0809161038F5F809361038091B6
:100C600061038A3050F280916303853439F48091B6
:100C70006403823519F481E08D8301C01D828D816A
:100C80000F900F900F900F900F90CF91DF911F91C9
:100C90000F9108950F931F93DF93CF9300D000D04F
:100CA0000F92CDB7DEB79A8389837C836B8380E410
:100CB0000E94AE07E981FA8180810E94AE07898196
:100CC0009A81FC01319680810E94AE070AC0EB81B7
:100CD000FC8180810E94AE078B819C8101969C8360
:100CE0008B83EB81FC818081882389F78FE20E94CE
:100CF000AE0787E50E94AE078DE00E94AE078AE04E
:100D00000E94AE071092610332C080916103082FE8
:100D100010E00E949807F801EE59FC4F8083809103
:100D20006103882F90E0FC01EE59FC4F80810E9406
:100D3000CE07809161038823A9F080916103882FF9
:100D400090E00197FC01EE59FC4F80818D3051F409
:100D500080916103882F90E0FC01EE59FC4F808167
:100D60008A3049F0809161038F5F809361038091A5
:100D700061038A3050F280916303853439F48091A5
:100D80006403823519F481E08D8301C01D828D8159
:100D90000F900F900F900F900F90CF91DF911F91B8
:100DA0000F910895DF93CF93CDB7DEB72D970FB690
:100DB000F894DEBF0FBECDBF9C838B836D835F83B2
:100DC0004E838B819C819D878C878C859D85009728
:100DD00031F08C859D8581309105B1F164C0E1ECE5
:100DE000F0E01082A2ECB0E0E2ECF0E080818660FE
:100DF0008C931A82198205C089819A8101969A83FF
:100E0000898389819A8123E188389207ACF3E1ECE8
:100E1000F0E08D818083E5ECF0E08E819F81892F69
:100E200099278083E4ECF0E08E818083E0ECF0E0B1
:100E30008081A0ECB0E0E0ECF0E08081837E8C93D8
:100E4000E6ECF0E0108234C0EDECF0E08E819F81A2
:100E5000892F99278083ECECF0E08E8180831A82C1
:100E6000198205C089819A8101969A838983898133
:100E70009A8123E188389207ACF3A9ECB0E0E9EC61
:100E8000F0E090818D81892B8C93E8ECF0E08081FB
:100E9000A8ECB0E0E8ECF0E08081837E8C93EEEC8F
:100EA000F0E0108205C08FEF9FEF9987888702C01E
:100EB00019861886888599852D960FB6F894DEBF19
:100EC0000FBECDBFCF91DF910895DF93CF9300D0B8
:100ED00000D000D0CDB7DEB79A8389837C836B8343
:100EE0005E834D8389819A819923CCF089819A818F
:100EF00082309105A4F429813A81C901880F991F94
:100F0000880F991F880F991F820F931F81599C4F3B
:100F10004D815E812B813C81B9010E945D0926963D
:100F20000FB6F894DEBF0FBECDBFCF91DF9108950D
:100F3000DF93CF93CDB7DEB7E0ECF0E0808188237C
:100F4000DCF7A0ECB0E0E0ECF0E080818F778C93F0
:100F5000E6ECF0E08081CF91DF910895DF93CF93AD
:100F60000F92CDB7DEB78983E0ECF0E08081882F67
:100F700090E0807290700097B9F3E6ECF0E0898120
:100F80008083A0ECB0E0E0ECF0E080818F7D8C937A
:100F900080E090E00F90CF91DF910895DF93CF93A1
:100FA0000F92CDB7DEB7898389818A30A1F4E8EC4E
:100FB000F0E08081882F90E0807290700097B9F304
:100FC000EEECF0E08DE08083A8ECB0E0E8ECF0E03F
:100FD00080818F7D8C93E8ECF0E08081882F90E019
:100FE000807290700097B9F3EEECF0E08981808315
:100FF000A8ECB0E0E8ECF0E080818F7D8C9380E09D
:1010000090E00F90CF91DF910895DF93CF9300D0C0
:101010000F92CDB7DEB78B831A821982EFE5F0E02D
:10102000808180936C03F8948B818A3061F48FE621
:1010300093E06DE00E948B09009729F48FEF9FEFFA
:101040009A83898312C08FE693E06B810E948B099B
:10105000009721F48FEF9FEF9A838983A1ECB0E092
:10106000E1ECF0E0808180628C93EFE5F0E080912C
:101070006C03808389819A810F900F900F90CF919C
:10108000DF910895DF93CF9300D00F92CDB7DEB7F5
:101090008B831A821982EFE5F0E0808180936C03E4
:1010A000F8948B818A3061F488E793E06DE00E94C8
:1010B0008B09009729F48FEF9FEF9A83898312C0E1
:1010C00088E793E06B810E948B09009721F48FEFF2
:1010D0009FEF9A838983A9ECB0E0E9ECF0E080818E
:1010E00080628C93EFE5F0E080916C0380838981CE
:1010F0009A810F900F900F90CF91DF9108951F92DA
:101100000F920FB60F9200905B000F9211242F9355
:101110003F934F935F936F937F938F939F93AF937F
:10112000BF93EF93FF93DF93CF930F92CDB7DEB7CB
:101130008FE693E09E012F5F3F4FB9010E94DE09C9
:10114000009761F0E6ECF0E089818083A0ECB0E0EC
:10115000E0ECF0E080818F7D8C930EC0A1ECB0E0DC
:10116000E1ECF0E080818F7D8C93A0ECB0E0E0ECCE
:10117000F0E080818F7D8C930F90CF91DF91FF9174
:10118000EF91BF91AF919F918F917F916F915F91FF
:101190004F913F912F910F9000925B000F900FBEE7
:1011A0000F901F9018951F920F920FB60F920090FC
:1011B0005B000F9211242F933F934F935F936F9394
:1011C0007F938F939F93AF93BF93EF93FF93DF939F
:1011D000CF930F92CDB7DEB788E793E09E012F5FE4
:1011E0003F4FB9010E94DE09009761F0EEECF0E09C
:1011F00089818083A8ECB0E0E8ECF0E080818F7D0D
:101200008C930EC0A9ECB0E0E9ECF0E080818F7D1A
:101210008C93A8ECB0E0E8ECF0E080818F7D8C93BB
:101220000F90CF91DF91FF91EF91BF91AF919F917F
:101230008F917F916F915F914F913F912F910F907F
:1012400000925B000F900FBE0F901F9018951F9299
:101250000F920FB60F9200905B000F9211242F9304
:101260003F934F935F936F937F938F939F93AF932E
:10127000BF93EF93FF93DF93CF93CDB7DEB7EEEC41
:10128000F0E0208188E793E0622F0E948B09CF91E4
:10129000DF91FF91EF91BF91AF919F918F917F91DE
:1012A0006F915F914F913F912F910F9000925B0052
:1012B0000F900FBE0F901F901895DF93CF9300D023
:1012C00000D000D0CDB7DEB79A8389837C836B834F
:1012D0005E834D83E981FA818B819C819183808338
:1012E000E981FA818D819E8197838683E981FA81E4
:1012F00013821282E981FA8115821482E981FA81CE
:1013000081E0808726960FB6F894DEBF0FBECDBF72
:10131000CF91DF910895DF93CF9300D000D00F924B
:10132000CDB7DEB79A8389836B83E981FA818085A3
:10133000882371F4E981FA8122813381E981FA817C
:10134000848195812817390719F41D821C822CC0CD
:10135000E981FA8120813181E981FA818481958155
:10136000F901E80FF91F8B818083E981FA8184817B
:1013700095810196E981FA8195838483E981FA81D7
:1013800024813581E981FA8186819781281739077F
:1013900021F4E981FA8115821482E981FA811086AB
:1013A00081E090E09D838C838C819D810F900F90D4
:1013B0000F900F900F90CF91DF910895DF93CF930F
:1013C00000D000D000D0CDB7DEB79A8389837C836C
:1013D0006B83E981FA8180858823D9F5E981FA81D7
:1013E00020813181E981FA8182819381F901E80FBD
:1013F000F91F8081EB81FC818083E981FA81828100
:1014000093810196E981FA8193838283E981FA814C
:1014100022813381E981FA818681978128173907F2
:1014200021F4E981FA8113821282E981FA81228111
:101430003381E981FA81848195812817390721F464
:10144000E981FA8181E0808781E090E09E838D834D
:1014500005C0EB81FC8110821E821D828D819E81E0
:1014600026960FB6F894DEBF0FBECDBFCF91DF91A9
:101470000895DF93CF9300D0CDB7DEB79A838983E9
:10148000E981FA818085882F90E00F900F90CF91AD
:10149000DF910895DF93CF9300D000D00F92CDB7A6
:1014A000DEB7898388EB90E09B838A838981282F2C
:1014B00030E080E29EE4B9010E942F0FCB014097FB
:1014C0009D838C83EC81FD81FF232CF48C819D8195
:1014D00001969D838C838C819D8195958795EA816A
:1014E000FB818083E9EBF0E01082ECEBF0E084E03C
:1014F00080830F900F900F900F900F90CF91DF91FE
:101500000895DF93CF9300D00F92CDB7DEB79A83C3
:101510008983ECEBF0E084EA8083ECEBF0E08081FF
:101520008823DCF7E9EBF0E08081882F90E0887F6A
:1015300090708830910509F056C0ABEBB0E0E981BE
:10154000FA818081880F8C93ECEBF0E084E8808353
:10155000ECEBF0E080818823DCF7E9EBF0E08081C0
:10156000882F90E0887F907088319105E1F5109286
:101570006D0327C0ABEBB0E0E981FA8121813281B4
:1015800080916D03882F90E0F901E80FF91F8081A9
:101590008C93ECEBF0E084E88083ECEBF0E080816E
:1015A0008823DCF7E9EBF0E08081882F90E0887FEA
:1015B000907088329105B9F480916D038F5F8093AC
:1015C0006D0380916D03282F30E0E981FA818381DA
:1015D00094812817390770F2ECEBF0E084E98083FE
:1015E00081E08B8305C0ECEBF0E084E980831B8213
:1015F0008B810F900F900F90CF91DF910895DF9323
:10160000CF9300D00F92CDB7DEB79A838983ECEBEE
:10161000F0E084EA8083ECEBF0E080818823DCF763
:10162000E9EBF0E08081882F90E0887F907088302F
:10163000910509F07FC0ABEBB0E0E981FA818081D0
:10164000882F90E0880F991F81608C93ECEBF0E07D
:1016500084E88083ECEBF0E080818823DCF7E9EB21
:10166000F0E08081882F90E0887F90708034910531
:1016700009F060C010926D0328C0ECEBF0E084EC40
:101680008083ECEBF0E080818823DCF7E9EBF0E08D
:101690008081882F90E0887F90708035910509F0D7
:1016A00049C0E981FA812581368180916D03882FB7
:1016B00090E0D901A80FB91FEBEBF0E080818C938B
:1016C00080916D038F5F80936D0380916D03282F50
:1016D00030E0E981FA8187819085019728173907E1
:1016E00060F2ECEBF0E084E88083ECEBF0E08081EA
:1016F0008823DCF7E9EBF0E08081882F90E0887F99
:10170000907088359105B1F4E981FA81258136819F
:1017100080916D03882F90E0D901A80FB91FEBEBE2
:10172000F0E080818C93ECEBF0E084E9808381E051
:101730008B8305C0ECEBF0E084E980831B828B8116
:101740000F900F900F90CF91DF910895DF93CF937B
:1017500000D000D0CDB7DEB79A8389836B83ECEBE2
:10176000F0E084EA8083ECEBF0E080818823DCF712
:10177000ABEBB0E0E981FA818081880F8C93ECEBD0
:10178000F0E084E88083ECEBF0E080818823DCF7F4
:10179000E9EBF0E08081882F90E0887F90708034C2
:1017A000910509F0A0C0EBEBF0E08B818083ECEBBE
:1017B000F0E084E88083ECEBF0E080818823DCF7C4
:1017C000E9EBF0E08081882F90E0887F907088328C
:1017D000910509F088C0ECEBF0E084EA8083ECEB43
:1017E000F0E080818823DCF7E9EBF0E08081882F4E
:1017F00090E0887F90708031910509F074C0ABEB68
:10180000B0E0E981FA818081882F90E0880F991FEC
:1018100081608C93ECEBF0E084E88083ECEBF0E00B
:1018200080818823DCF710926D0328C0ECEBF0E098
:1018300084EC8083ECEBF0E080818823DCF7E9EB3B
:10184000F0E08081882F90E0887F9070803591054E
:1018500009F049C0E981FA812581368180916D03C3
:10186000882F90E0D901A80FB91FEBEBF0E0808141
:101870008C9380916D038F5F80936D0380916D03D6
:10188000282F30E0E981FA81878190850197281718
:10189000390760F2ECEBF0E084E88083ECEBF0E0F9
:1018A00080818823DCF7E9EBF0E08081882F90E0ED
:1018B000887F907088359105B1F4E981FA8125819E
:1018C000368180916D03882F90E0D901A80FB91F50
:1018D000EBEBF0E080818C93ECEBF0E084E980832B
:1018E00081E08C8305C0ECEBF0E084E980831C820E
:1018F0008C810F900F900F900F90CF91DF910895F2
:10190000DF93CF9300D0CDB7DEB789836A83898117
:10191000833058F58A818823A9F0A2E2B0E0E2E2A0
:10192000F0E08081482F8981282F30E081E090E02D
:10193000022E02C0880F991F0A94E2F78095842333
:101940008C9313C0A2E2B0E0E2E2F0E08081482F85
:101950008981282F30E081E090E0022E02C0880FBC
:10196000991F0A94E2F7842B8C930F900F90CF91DC
:10197000DF910895DF93CF93CDB7DEB7A1E2B0E05A
:10198000E1E2F0E0808187608C93A2E2B0E0E2E2E5
:10199000F0E0808187608C93CF91DF910895DF9391
:1019A000CF9300D000D00F92CDB7DEB79B838A8350
:1019B000E0EBF0E01082E1EBF0E081E08083E3EB2C
:1019C000F0E088EC808384E6898320C0E2EBF0E0DD
:1019D0001082E7E3F0E08081882F90E082709070C1
:1019E0000097B9F3A7E3B0E0E7E3F0E0808182601D
:1019F0008C9389818D838D81882311F081E08D8383
:101A00008D81998191509983882301F71C828A8165
:101A10009B81009711F081E08C838A819B810197E3
:101A20009B838A838C81882321F70F900F900F90DE
:101A30000F900F90CF91DF910895DF93CF9300D057
:101A40000F92CDB7DEB79A838983E0EBF0E0108286
:101A5000E1EBF0E081E08083E3EBF0E084E1808380
:101A600013C0E2EBF0E01082E7E3F0E08081882F22
:101A700090E0827090700097B9F3A7E3B0E0E7E3DD
:101A8000F0E0808182608C931B8289819A8100972B
:101A900011F081E08B8389819A8101979A838983F0
:101AA0008B818823F1F60F900F900F90CF91DF91EB
:101AB0000895DF93CF9300D000D000D0CDB7DEB72C
:101AC0009B838A836C834D832E8319828E8185301C
:101AD00050F58D81853614F084E68D838D818C39A7
:101AE00014F48CE98D838C81823021F48D81819571
:101AF00089830DC08C81882311F4198208C08C81E0
:101B0000833019F48FE7898302C08D818983EA814C
:101B1000FB81218132818E81882F90E0F901E80FCD
:101B2000F91F8981808326960FB6F894DEBF0FBE19
:101B3000CDBFCF91DF910895DF93CF9300D000D038
:101B40000F92CDB7DEB79A8389837C836B834D83F5
:101B50008D818823A9F08B819C8126E030E0B9013A
:101B60000E942F0FCB019C838B83E981FA818181B5
:101B70009281FC0132968B818F718064808307C0D3
:101B8000E981FA8181819281FC01329610820F9065
:101B90000F900F900F900F90CF91DF910895DF93EA
:101BA000CF9300D000D0CDB7DEB79A8389836B8303
:101BB0004C838C81882341F0E981FA810180F28194
:101BC000E02D8B81808306C0E981FA810180F2815A
:101BD000E02D10820F900F900F900F90CF91DF911A
:101BE0000895DF93CF93CDB7DEB7A4E2B0E0E4E28F
:101BF000F0E08081807F8C93A5E2B0E0E5E2F0E048
:101C000080818F608C93CF91DF910895DF93CF9384
:101C100000D0CDB7DEB78A83E3E2F0E08081809523
:101C200089838981282F30E08A81882F90E001976D
:101C3000A90102C0559547958A95E2F7CA018983A3
:101C40008981882F90E0817090700F900F90CF91D4
:101C5000DF910895DF93CF93CDB7DEB7E3E2F0E0F5
:101C600080818095869586958370CF91DF910895C8
:101C7000DF93CF93CDB7DEB7E3E2F0E080818095CC
:101C80008370CF91DF910895DF93CF930F92CDB7FB
:101C9000DEB78983898191E08927882371F4809157
:101CA000170391E08927882341F4A2E2B0E0E2E241
:101CB000F0E0808188608C930BC0809117038823AB
:101CC00039F0A2E2B0E0E2E2F0E08081877F8C931D
:101CD0000F90CF91DF910895DF93CF93CDB7DEB70B
:101CE000A1E2B0E0E1E2F0E0808188608C93A2E2C2
:101CF000B0E0E2E2F0E08081877F8C93CF91DF91CA
:101D00000895DF93CF930F92CDB7DEB7898381E03B
:101D100069810E94800C998181E08927882F90E059
:101D20000E94440E998181E08927882331F08091B7
:101D30006E038F5F80936E0302C010926E038091DA
:101D40006E038A3040F010926E03E8E2F0E084E027
:101D50008083F894FFCF0F90CF91DF910895DF93A8
:101D6000CF9300D000D0CDB7DEB79B838A836C833E
:101D70008C81813071F4EA81FB810180F281E02D58
:101D80008AE6808381E00E94440E81E08093810393
:101D900016C08C81823069F4EA81FB810180F28176
:101DA000E02D85E5808380E00E94440E109281033F
:101DB00006C0EA81FB810180F281E02D10828A81D8
:101DC0009B810E94FF0A8983EA81FB810580F6815D
:101DD000E02D80818A3631F481E00E94440E81E05A
:101DE00080938103EA81FB810580F681E02D80816B
:101DF0008535D9F4A0E6B0E0E0E6F0E080818860C7
:101E00008C93A0E6B0E0E0E6F0E080818F7B8C93DD
:101E1000A89588E190E028E00FB6F894A895809303
:101E200060000FBE20936000FFCF89810F900F905C
:101E30000F900F90CF91DF910895DF93CF930F9282
:101E4000CDB7DEB780918103882311F0198202C0DB
:101E500081E0898389810F90CF91DF91089597FB6D
:101E6000092E07260AD077FD04D00CD006D000201A
:101E70001AF4709561957F4F0895F6F790958195C6
:101E80009F4F0895AA1BBB1B51E107C0AA1FBB1F90
:101E9000A617B70710F0A61BB70B881F991F5A95F6
:101EA000A9F780959095BC01CD010895F894FFCFD6
:101EB0003031003032003033003034000001030193
:101EC000060109013038003230003232003245005C
:101ED000140117011A011D0164646464646464647C
:101EE000563D29180C040064646464646464563DBF
:101EF00029180C040000646464646464563D291865
:101F00000C040000006464646464563D29180C04E9
:101F10000000000064646464563D29180C0400004D
:101F2000000000646464563D29180C0400000000A1
:101F300000006464563D29180C04000000000000F5
:101F40000064563D29180C04000000000000000049
:101F500064523925140800FCFC00000000000064F5
:101F600049311D0C00F8F4F4F800000000005A3D5F
:101F7000251000F4ECE8E8ECF400000000492D1412
:101F800000F0E3DBD7D7DBE3F0000000351800EC0E
:101F9000DBCFC7C3C3C7CFDBEC00001D00E8D3C352
:101FA000B7AEAAAAAEB7C3D3E80000E3CBB7A69CEE
:101FB0009C9C9C9C9CA6B7CBE300040C18293D5626
:101FC00064646464646464640000040C18293D560D
:101FD00064646464646464000000040C18293D5661
:101FE00064646464646400000000040C18293D56B5
:101FF00064646464640000000000040C18293D5609
:1020000064646464000000000000040C18293D565C
:1020100064646400000000000000040C18293D56B0
:1020200064640000000000000000040C18293D5604
:1020300064000000000000FCFC0008142539526414
:102040000000000000F8F4F4F8000C1D31496400B1
:10205000000000F4ECE8E8ECF40010253D5A000024
:1020600000F0E3DBD7D7DBE3F000142D490000ECF0
:10207000DBCFC7C3C3C7CFDBEC00183500E8D3C341
:10208000B7AEAAAAAEB7C3D3E8001DE3CBB7A69CF0
:102090009C9C9C9C9CA6B7CBE3004749004348000E
:1020A00045490044490038300042520034380000AD
:1020B00000777744523D003031323334353637388B
:0820C000394142434445460149
:00000001FF
