:100000000C9446000C9465000C9465000C946500FB
:100010000C9465000C9465000C9465000C946500CC
:100020000C9465000C9465000C9465000C946500BC
:100030000C9465000C9465000C9465000C94080405
:100040000C9465000C9465000C9465000C9465009C
:100050000C9475030C9436070C9465000C946500A1
:100060000C9465000C9465000C9465000C9465007C
:100070000C94DE070C948A070C9465000C946500C0
:100080000C9465000C9465000C94650011241FBE4F
:10009000CFEFD0E4DEBFCDBF11E0A0E0B1E0E2E001
:1000A000FCE100E00BBF02C007900D92A635B1073E
:1000B000D9F711E0A6E5B1E001C01D92AF3BB10751
:1000C000E1F70E9467000C94FF0D0C9400000F9361
:1000D0001F93DF93CF93CDB7DEB7ED970FB6F894AC
:1000E000DEBF0FBECDBF1A86198680E1FE013E96A7
:1000F000DF01982F1D929A95E9F782E08E831D8289
:1001000081E08C831B828E81682F772767FD709535
:100110008E81992787FD90959E01225F3F4F280F82
:10012000391F8E81482F552747FD509581E08E8FCE
:10013000CE010E9698A38F8F7AA369A33CA32BA31D
:100140005EA34DA380E48FA3CE010E960A9699A7D5
:1001500088A781E090E09BA78AA7CE010E960B9618
:100160009DA78CA781E090E09FA78EA780E188AB38
:10017000CE010E960C969AAB89AB81E090E09CABD9
:100180008BABCE010E960D969EAB8DAB81E090E0D1
:1001900098AF8FAB19820E94710B0E94A80C0E942D
:1001A000230D0E942B03A7E2B0E0E7E2F0E080819C
:1001B00084608C93E8E2F0E084E0808384E60E942F
:1001C0000109A89588E190E02DE00FB6F894A89574
:1001D000809360000FBE2093600081E090E068E0B3
:1001E0004AE050E00E94890526E531E080E090E099
:1001F000B90144E250E00E941C0684E690E00E94AF
:10020000860B80E090E068E140E450E00E948905C0
:100210008A85882F90E0880F991FFC01E45FFE4FCC
:100220002081318188E291E0B9010E947F048985B3
:10023000882F90E0880F991FFC01E05EFE4F20811F
:1002400031818BE291E0B9010E947F048EE291E05E
:1002500020E031E0B9010E947F0481E391E024E3D2
:1002600031E0B9010E947F0487E391E02AE331E0A5
:10027000B9010E947F0480E090E060E943E051E032
:100280000E94890580E060E00E94370B81E060E019
:100290000E94370B82E060E00E94370B789484E67E
:1002A00090E00E94860BA8E2B0E0E8E2F0E08081F6
:1002B0008B7F8C9389E190E00E94860BE0E8F0E070
:1002C0001082E1E8F0E085E08083EFE6F0E081E095
:1002D0008083E4E8F0E0118210820E944E039D8743
:1002E0008C87EC85FD8581818270882309F4AAC002
:1002F000EC85FD8580818170882309F4A3C0EC859D
:10030000FD8580818071882309F49CC0EC85FD8582
:1003100082818F70882F90E08D3091050CF492C00F
:10032000EC85FD8583818F70882F90E08D3091055D
:100330000CF488C080E060E00E94370B81E060E050
:100340000E94370B82E060E00E94370B80E090E073
:1003500068E143E051E00E9489058EE291E020E0EF
:1003600031E0B9010E94010589AFA9ADAA2311F0BE
:10037000B1E0B9AF99AD82E0692F0E94370B81E3FC
:1003800091E024E331E0B9010E9401058AAF8AAD12
:10039000882311F091E09AAF9AAD82E0692F0E9414
:1003A000370B8A85882F90E0880F991FFC01E45F46
:1003B000FE4F2081318188E291E0B9010E94010560
:1003C0008BAFABADAA2311F0B1E0BBAF9BAD82E028
:1003D000692F0E94370B8985882F90E0880F991F1D
:1003E000FC01E05EFE4F208131818BE291E0B9019A
:1003F0000E9401058CAF8CAD882311F091E09CAF79
:100400009CAD82E0692F0E94370B87E391E02AE3DD
:1004100031E0B9010E9401058DAFADADAA2311F005
:10042000B1E0BDAF9DAD82E0692F0E94370B84E63D
:1004300090E00E94860B80E090E060E943E051E0AC
:100440000E9489058C818823A9F11B86EC85FD8596
:1004500081818072882321F08B8581608B8703C026
:100460008B858E7F8B87EC85FD85818180748823C9
:1004700021F08B8582608B8703C08B858D7F8B8776
:10048000EC85FD8581818870882321F08B858061D2
:100490008B8703C08B858F7E8B87EC85FD85818163
:1004A0008071882321F08B8580628B8703C08B85C8
:1004B0008F7D8B87EC85FD8580818071882319F085
:1004C00082E08B871C82EC85FD8580818074882387
:1004D00019F01B8681E08C838B85882319F081E0DD
:1004E0008B8301C01B8282E06B810E94370BEC85FD
:1004F000FD8581818170882361F0EC85FD85818196
:100500008470882331F081E089838B858F7C8B8791
:100510000AC0EC85FD8581818270882319F082E014
:10052000898301C01982CE0187966B854B810E9419
:10053000860C84E68D83EC85FD858081827088231E
:1005400019F081E088870BC0EC85FD85808184707F
:10055000882319F082E0888702C083E08887EC85D1
:10056000FD8580818170882329F086E48D8381E078
:1005700088870AC0EC85FD8580818870882321F0FA
:1005800083E28D8381E088871F820AC0CE014E9668
:1005900068854D812F810E94100C8F818F5F8F8322
:1005A0008F81823098F381E08A838A81082F10E05E
:1005B000CE014E960E943809882F90E08023912327
:1005C0001A82009711F081E08A8384E090E00E9413
:1005D000D40B8A81082F10E02981CE01C096622FAA
:1005E0000E94580D882F90E0802391231A82009753
:1005F00011F081E08A838A81082F10E0CE01C09635
:100600000E943809882F90E0802391231A82009756
:1006100011F081E08A8384E090E00E94D40B8A810B
:10062000082F10E0CE0187960E943809882F90E0AD
:10063000802391231A82009711F081E08A8384E05D
:1006400090E00E94D40B8A810E94380D89E190E0ED
:100650000E94860B42CEDF93CF93CDB7DEB71092C8
:100660007A0115C080917A01282F30E080917A01BB
:10067000882F90E0FC01E35CFE4F8081F901E25895
:10068000FE4F808380917A018F5F80937A01809101
:100690007A01843038F3CF91DF910895DF93CF93BF
:1006A000CDB7DEB7F89410927A0115C080917A0127
:1006B000282F30E080917A01882F90E0FC01E258E9
:1006C000FE4F8081F901EE57FE4F808380917A01C1
:1006D0008F5F80937A0180917A01843038F3789427
:1006E00082E891E0CF91DF9108951F920F920FB6AB
:1006F0000F9200905B000F9211242F933F934F9322
:100700005F936F937F938F939F93AF93BF93EF9379
:10071000FF93DF93CF93CDB7DEB7E6ECF0E08081B7
:1007200080939E0180917C01882309F452C08091BE
:100730007B01882F90E020919E01FC01EA57FE4F3B
:10074000208380917B018230B0F480917B01882FDF
:1007500090E0FC01EF5BFE4F908180919E01981725
:1007600091F110927C0180E060E00E94370B81E003
:100770000E94FB0C28C080917B01883021F580917C
:100780008B0180937E0180918C0180937F01809109
:100790008D018093800180918E0180938101109260
:1007A0007C01A89580E061E00E94370B0E94C60D95
:1007B000882319F080E00E94FB0C10927D01E4E890
:1007C000F0E01182108280917B018F5F80937B012A
:1007D00009C080919E018A3229F410927B0181E048
:1007E00080937C01CF91DF91FF91EF91BF91AF9109
:1007F0009F918F917F916F915F914F913F912F9139
:100800000F9000925B000F900FBE0F901F901895F5
:100810001F920F920FB60F9200905B000F9211245F
:100820002F933F938F939F93EF93FF93DF93CF93F8
:10083000CDB7DEB780917D018F5F80937D01809180
:100840007D018739F0F010927D0110927A0115C078
:1008500080917A01282F30E080917A01882F90E0F2
:10086000FC01E35CFE4F8081F901E258FE4F80837A
:1008700080917A018F5F80937A0180917A01843030
:1008800038F3CF91DF91FF91EF919F918F913F913D
:100890002F910F9000925B000F900FBE0F901F9052
:1008A0001895DF93CF9300D00F92CDB7DEB7898331
:1008B0007B836A83898182958F70882F90E0FC0109
:1008C000EB5BFE4F8081EA81FB8180838A819B8183
:1008D000DC0111968981882F90E08F709070FC0167
:1008E000EB5BFE4F80818C938A819B81FC01329669
:1008F00010820F900F900F90CF91DF9108950F937A
:100900001F93DF93CF9300D000D00F92CDB7DEB707
:100910009A8389837C836B8380E40E946506E981E6
:10092000FA8180810E94650689819A81FC01319655
:1009300080810E9465060AC0EB81FC8180810E9453
:1009400065068B819C8101969C838B83EB81FC8166
:100950008081882389F78DE00E9465068AE00E94E5
:10096000650610929F0132C080919F01082F10E010
:100970000E944F06F801E056FE4F808380919F0150
:10098000882F90E0FC01E056FE4F80810E94850692
:1009900080919F018823A9F080919F01882F90E08A
:1009A0000197FC01E056FE4F80818D3051F480911B
:1009B0009F01882F90E0FC01E056FE4F80818A3035
:1009C00049F080919F018F5F80939F0180919F01EB
:1009D0008A3050F28091A101853439F48091A201CE
:1009E000823519F481E08D8301C01D828D810F90C5
:1009F0000F900F900F900F90CF91DF911F910F915B
:100A000008950F931F93DF93CF9300D000D00F92E0
:100A1000CDB7DEB79A8389837C836B8380E40E94A1
:100A20006506E981FA8180810E94650689819A8143
:100A3000FC01319680810E9465060AC0EB81FC8131
:100A400080810E9465068B819C8101969C838B83AB
:100A5000EB81FC818081882389F78FE20E94650603
:100A600087E50E9465068DE00E9465068AE00E9487
:100A7000650610929F0132C080919F01082F10E0FF
:100A80000E944F06F801E056FE4F808380919F013F
:100A9000882F90E0FC01E056FE4F80810E94850681
:100AA00080919F018823A9F080919F01882F90E079
:100AB0000197FC01E056FE4F80818D3051F480910A
:100AC0009F01882F90E0FC01E056FE4F80818A3024
:100AD00049F080919F018F5F80939F0180919F01DA
:100AE0008A3050F28091A101853439F48091A201BD
:100AF000823519F481E08D8301C01D828D810F90B4
:100B00000F900F900F900F90CF91DF911F910F9149
:100B10000895DF93CF93CDB7DEB72D970FB6F89436
:100B2000DEBF0FBECDBF9C838B836D835F834E83FF
:100B30008B819C819D878C878C859D85009731F06A
:100B40008C859D8581309105B1F164C0E1ECF0E0C8
:100B50001082A2ECB0E0E2ECF0E0808186608C9341
:100B60001A82198205C089819A8101969A838983A4
:100B700089819A8123E188389207ACF3E1ECF0E0B7
:100B80008D818083E5ECF0E08E819F81892F99270C
:100B90008083E4ECF0E08E818083E0ECF0E0808103
:100BA000A0ECB0E0E0ECF0E08081837E8C93E6EC9A
:100BB000F0E0108234C0EDECF0E08E819F81892F4F
:100BC00099278083ECECF0E08E8180831A82198271
:100BD00005C089819A8101969A83898389819A8146
:100BE00023E188389207ACF3A9ECB0E0E9ECF0E03F
:100BF00090818D81892B8C93E8ECF0E08081A8ECCA
:100C0000B0E0E8ECF0E08081837E8C93EEECF0E0E5
:100C1000108205C08FEF9FEF9987888702C01986E1
:100C20001886888599852D960FB6F894DEBF0FBE7D
:100C3000CDBFCF91DF910895DF93CF9300D000D047
:100C400000D0CDB7DEB79A8389837C836B835E83C4
:100C50004D8389819A819923CCF089819A81823050
:100C60009105A4F429813A81C901880F991F880F41
:100C7000991F880F991F820F931F84559E4F4D8196
:100C80005E812B813C81B9010E94140826960FB623
:100C9000F894DEBF0FBECDBFCF91DF910895DF93F3
:100CA000CF93CDB7DEB7E0ECF0E080818823DCF7AE
:100CB000A0ECB0E0E0ECF0E080818F778C93E6EC84
:100CC000F0E08081CF91DF910895DF93CF930F9271
:100CD000CDB7DEB78983E0ECF0E08081882F90E02B
:100CE000807290700097B9F3E6ECF0E08981808320
:100CF000A0ECB0E0E0ECF0E080818F7D8C9380E0B0
:100D000090E00F90CF91DF910895DF93CF930F92F2
:100D1000CDB7DEB7898389818A30A1F4E8ECF0E0B1
:100D20008081882F90E0807290700097B9F3EEEC8C
:100D3000F0E08DE08083A8ECB0E0E8ECF0E08081AA
:100D40008F7D8C93E8ECF0E08081882F90E08072BA
:100D500090700097B9F3EEECF0E089818083A8EC05
:100D6000B0E0E8ECF0E080818F7D8C9380E090E053
:100D70000F90CF91DF910895DF93CF9300D00F9222
:100D8000CDB7DEB78B831A821982EFE5F0E0808160
:100D90008093AA01F8948B818A3061F48CEA91E007
:100DA0006DE00E944208009729F48FEF9FEF9A832D
:100DB000898312C08CEA91E06B810E9442080097FF
:100DC00021F48FEF9FEF9A838983A1ECB0E0E1ECEF
:100DD000F0E0808180628C93EFE5F0E08091AA01E1
:100DE000808389819A810F900F900F90CF91DF912E
:100DF0000895DF93CF9300D00F92CDB7DEB78B83EA
:100E00001A821982EFE5F0E080818093AA01F894BC
:100E10008B818A3061F485EB91E06DE00E9442089D
:100E2000009729F48FEF9FEF9A83898312C085EB97
:100E300091E06B810E944208009721F48FEF9FEFB1
:100E40009A838983A9ECB0E0E9ECF0E080818062CC
:100E50008C93EFE5F0E08091AA01808389819A81EB
:100E60000F900F900F90CF91DF9108951F920F92E6
:100E70000FB60F9200905B000F9211242F933F93B7
:100E80004F935F936F937F938F939F93AF93BF9392
:100E9000EF93FF93DF93CF930F92CDB7DEB78CEA3A
:100EA00091E09E012F5F3F4FB9010E949508009786
:100EB00061F0E6ECF0E089818083A0ECB0E0E0EC4A
:100EC000F0E080818F7D8C930EC0A1ECB0E0E1EC6E
:100ED000F0E080818F7D8C93A0ECB0E0E0ECF0E05E
:100EE00080818F7D8C930F90CF91DF91FF91EF9157
:100EF000BF91AF919F918F917F916F915F914F9132
:100F00003F912F910F9000925B000F900FBE0F90BA
:100F10001F9018951F920F920FB60F9200905B00D2
:100F20000F9211242F933F934F935F936F937F936F
:100F30008F939F93AF93BF93EF93FF93DF93CF93E1
:100F40000F92CDB7DEB785EB91E09E012F5F3F4F4B
:100F5000B9010E949508009761F0EEECF0E08981FC
:100F60008083A8ECB0E0E8ECF0E080818F7D8C938A
:100F70000EC0A9ECB0E0E9ECF0E080818F7D8C93AD
:100F8000A8ECB0E0E8ECF0E080818F7D8C930F90CE
:100F9000CF91DF91FF91EF91BF91AF919F918F9191
:100FA0007F916F915F914F913F912F910F900092A0
:100FB0005B000F900FBE0F901F9018951F920F921D
:100FC0000FB60F9200905B000F9211242F933F9366
:100FD0004F935F936F937F938F939F93AF93BF9341
:100FE000EF93FF93DF93CF93CDB7DEB7EEECF0E056
:100FF000208185EB91E0622F0E944208CF91DF9122
:10100000FF91EF91BF91AF919F918F917F916F91E0
:101010005F914F913F912F910F9000925B000F9045
:101020000FBE0F901F901895DF93CF9300D000D084
:1010300000D0CDB7DEB79A8389837C836B835E83D0
:101040004D83E981FA818B819C8191838083E98141
:10105000FA818D819E8197838683E981FA8113824B
:101060001282E981FA8115821482E981FA8181E094
:10107000808726960FB6F894DEBF0FBECDBFCF9106
:10108000DF910895DF93CF9300D000D00F92CDB7BA
:10109000DEB79A8389836B83E981FA81808588230F
:1010A00071F4E981FA8122813381E981FA818481B5
:1010B00095812817390719F41D821C822CC0E981FB
:1010C000FA8120813181E981FA8184819581F90158
:1010D000E80FF91F8B818083E981FA8184819581F2
:1010E0000196E981FA8195838483E981FA812481DB
:1010F0003581E981FA81868197812817390721F4A2
:10110000E981FA8115821482E981FA81108681E0F1
:1011100090E09D838C838C819D810F900F900F9028
:101120000F900F90CF91DF910895DF93CF9300D070
:1011300000D000D0CDB7DEB79A8389837C836B83E0
:10114000E981FA8180858823D9F5E981FA812081B6
:101150003181E981FA8182819381F901E80FF91FD8
:101160008081EB81FC818083E981FA818281938196
:101170000196E981FA8193838283E981FA81228150
:101180003381E981FA81868197812817390721F413
:10119000E981FA8113821282E981FA812281338105
:1011A000E981FA81848195812817390721F4E98141
:1011B000FA8181E0808781E090E09E838D8305C085
:1011C000EB81FC8110821E821D828D819E8126967C
:1011D0000FB6F894DEBF0FBECDBFCF91DF9108955B
:1011E000DF93CF9300D0CDB7DEB79A838983E981AF
:1011F000FA818085882F90E00F900F90CF91DF913A
:101200000895DF93CF9300D000D00F92CDB7DEB713
:10121000898388EB90E09B838A838981282F30E043
:1012200080E29EE4B9010E94D80DCB0140979D83D6
:101230008C83EC81FD81FF232CF48C819D810196B0
:101240009D838C838C819D8195958795EA81FB8117
:101250008083E9EBF0E01082ECEBF0E084E0808347
:101260000F900F900F900F900F90CF91DF910895F6
:10127000DF93CF9300D00F92CDB7DEB79A838983E7
:10128000ECEBF0E084EA8083ECEBF0E080818823F3
:10129000DCF7E9EBF0E08081882F90E0887F9070A8
:1012A0008830910509F056C0ABEBB0E0E981FA81D6
:1012B0008081880F8C93ECEBF0E084E88083ECEB8A
:1012C000F0E080818823DCF7E9EBF0E08081882F73
:1012D00090E0887F907088319105E1F51092AB0124
:1012E00027C0ABEBB0E0E981FA81218132818091A6
:1012F000AB01882F90E0F901E80FF91F80818C93F2
:10130000ECEBF0E084E88083ECEBF0E08081882374
:10131000DCF7E9EBF0E08081882F90E0887F907027
:1013200088329105B9F48091AB018F5F8093AB0156
:101330008091AB01282F30E0E981FA81838194818B
:101340002817390770F2ECEBF0E084E9808381E044
:101350008B8305C0ECEBF0E084E980831B828B81FA
:101360000F900F900F90CF91DF910895DF93CF935F
:1013700000D00F92CDB7DEB79A838983ECEBF0E013
:1013800084EA8083ECEBF0E080818823DCF7E9EBF2
:10139000F0E08081882F90E0887F90708830910500
:1013A00009F07FC0ABEBB0E0E981FA818081882F42
:1013B00090E0880F991F81608C93ECEBF0E084E85B
:1013C0008083ECEBF0E080818823DCF7E9EBF0E050
:1013D0008081882F90E0887F90708034910509F09B
:1013E00060C01092AB0128C0ECEBF0E084EC80838D
:1013F000ECEBF0E080818823DCF7E9EBF0E0808122
:10140000882F90E0887F90708035910509F049C061
:10141000E981FA81258136818091AB01882F90E0A6
:10142000D901A80FB91FEBEBF0E080818C9380917C
:10143000AB018F5F8093AB018091AB01282F30E02F
:10144000E981FA818781908501972817390760F231
:10145000ECEBF0E084E88083ECEBF0E08081882323
:10146000DCF7E9EBF0E08081882F90E0887F9070D6
:1014700088359105B1F4E981FA8125813681809121
:10148000AB01882F90E0D901A80FB91FEBEBF0E07A
:1014900080818C93ECEBF0E084E9808381E08B83A6
:1014A00005C0ECEBF0E084E980831B828B810F9018
:1014B0000F900F90CF91DF910895DF93CF9300D0DD
:1014C00000D0CDB7DEB79A8389836B83ECEBF0E075
:1014D00084EA8083ECEBF0E080818823DCF7ABEBDF
:1014E000B0E0E981FA818081880F8C93ECEBF0E029
:1014F00084E88083ECEBF0E080818823DCF7E9EB83
:10150000F0E08081882F90E0887F90708034910592
:1015100009F0A0C0EBEBF0E08B818083ECEBF0E016
:1015200084E88083ECEBF0E080818823DCF7E9EB52
:10153000F0E08081882F90E0887F9070883291055C
:1015400009F088C0ECEBF0E084EA8083ECEBF0E09B
:1015500080818823DCF7E9EBF0E08081882F90E040
:10156000887F90708031910509F074C0ABEBB0E0DA
:10157000E981FA818081882F90E0880F991F81602E
:101580008C93ECEBF0E084E88083ECEBF0E080817E
:101590008823DCF71092AB0128C0ECEBF0E084EC80
:1015A0008083ECEBF0E080818823DCF7E9EBF0E06E
:1015B0008081882F90E0887F90708035910509F0B8
:1015C00049C0E981FA81258136818091AB01882F5C
:1015D00090E0D901A80FB91FEBEBF0E080818C936C
:1015E0008091AB018F5F8093AB018091AB01282F7D
:1015F00030E0E981FA8187819085019728173907C2
:1016000060F2ECEBF0E084E88083ECEBF0E08081CA
:101610008823DCF7E9EBF0E08081882F90E0887F79
:10162000907088359105B1F4E981FA812581368180
:101630008091AB01882F90E0D901A80FB91FEBEB87
:10164000F0E080818C93ECEBF0E084E9808381E032
:101650008C8305C0ECEBF0E084E980831C828C81F4
:101660000F900F900F900F90CF91DF910895DF931F
:10167000CF9300D0CDB7DEB789836A838981833069
:1016800058F58A818823A9F0A2E2B0E0E2E2F0E016
:101690008081482F8981282F30E081E090E0022E60
:1016A00002C0880F991F0A94E2F7809584238C93D7
:1016B00013C0A2E2B0E0E2E2F0E08081482F89812D
:1016C000282F30E081E090E0022E02C0880F991FA1
:1016D0000A94E2F7842B8C930F900F90CF91DF91B7
:1016E0000895DF93CF93CDB7DEB7A1E2B0E0E1E29A
:1016F000F0E0808187608C93A2E2B0E0E2E2F0E06B
:10170000808187608C93CF91DF910895DF93CF9391
:1017100000D000D00F92CDB7DEB79B838A83E0EB79
:10172000F0E01082E1EBF0E081E08083E3EBF0E0B9
:1017300088EC808384E6898320C0E2EBF0E01082AD
:10174000E7E3F0E08081882F90E08270907000974E
:10175000B9F3A7E3B0E0E7E3F0E0808182608C9327
:1017600089818D838D81882311F081E08D838D8126
:10177000998191509983882301F71C828A819B81EA
:10178000009711F081E08C838A819B8101979B8374
:101790008A838C81882321F70F900F900F900F90F0
:1017A0000F90CF91DF910895DF93CF9300D00F92E8
:1017B000CDB7DEB79A838983E0EBF0E01082E1EBEE
:1017C000F0E081E08083E3EBF0E084E1808313C00C
:1017D000E2EBF0E01082E7E3F0E08081882F90E018
:1017E000827090700097B9F3A7E3B0E0E7E3F0E010
:1017F000808182608C931B8289819A81009711F08D
:1018000081E08B8389819A8101979A8389838B8177
:101810008823F1F60F900F900F90CF91DF910895EC
:10182000DF93CF9300D000D000D0CDB7DEB79B833D
:101830008A836C834D832E8319828E81853050F587
:101840008D81853614F084E68D838D818C3914F476
:101850008CE98D838C81823021F48D8181958983FF
:101860000DC08C81882311F4198208C08C818330CB
:1018700019F48FE7898302C08D818983EA81FB8116
:10188000218132818E81882F90E0F901E80FF91FC4
:101890008981808326960FB6F894DEBF0FBECDBF38
:1018A000CF91DF910895DF93CF9300D000D00F92B6
:1018B000CDB7DEB79A8389837C836B834D838D811B
:1018C0008823A9F08B819C8126E030E0B9010E9439
:1018D000D80DCB019C838B83E981FA818181928130
:1018E000FC0132968B818F718064808307C0E9810F
:1018F000FA8181819281FC01329610820F900F90C3
:101900000F900F900F90CF91DF910895DF93CF93B9
:1019100000D000D0CDB7DEB79A8389836B834C8328
:101920008C81882341F0E981FA810180F281E02DE8
:101930008B81808306C0E981FA810180F281E02DEC
:1019400010820F900F900F900F90CF91DF9108951C
:10195000DF93CF93CDB7DEB7A4E2B0E0E4E2F0E0EE
:101960008081807F8C93A5E2B0E0E5E2F0E08081A9
:101970008F608C93CF91DF910895DF93CF9300D048
:10198000CDB7DEB78A83E3E2F0E08081809589837A
:101990008981282F30E08A81882F90E00197A90162
:1019A00002C0559547958A95E2F7CA0189838981D6
:1019B000882F90E0817090700F900F90CF91DF9101
:1019C0000895DF93CF93CDB7DEB7E3E2F0E08081F7
:1019D0008095869586958370CF91DF910895DF93EA
:1019E000CF93CDB7DEB7E3E2F0E0808180958370DE
:1019F000CF91DF910895DF93CF930F92CDB7DEB7EC
:101A00008983898191E08927882371F48091550128
:101A100091E08927882341F4A2E2B0E0E2E2F0E01D
:101A2000808188608C930BC080915501882339F0A8
:101A3000A2E2B0E0E2E2F0E08081877F8C930F9039
:101A4000CF91DF910895DF93CF93CDB7DEB7A1E2B9
:101A5000B0E0E1E2F0E0808188608C93A2E2B0E047
:101A6000E2E2F0E08081877F8C93CF91DF9108954F
:101A7000DF93CF930F92CDB7DEB7898381E0698181
:101A80000E94370B998181E08927882F90E00E947E
:101A9000FB0C998181E08927882331F0E8E2F0E0AE
:101AA00084E08083F894FFCF0F90CF91DF91089569
:101AB000DF93CF9300D000D0CDB7DEB79B838A836E
:101AC0006C838C81813071F4EA81FB810180F28129
:101AD000E02D8AE6808381E00E94FB0C81E0809308
:101AE000BE0116C08C81823069F4EA81FB810180DD
:101AF000F281E02D85E5808380E00E94FB0C10924E
:101B0000BE0106C0EA81FB810180F281E02D1082D6
:101B10008A819B810E94B6098983EA81FB810580C5
:101B2000F681E02D80818A3631F481E00E94FB0C41
:101B300081E08093BE01EA81FB810580F681E02D82
:101B400080818535D9F4A0E6B0E0E0E6F0E0808160
:101B500088608C93A0E6B0E0E0E6F0E080818F7BC7
:101B60008C93A89588E190E028E00FB6F894A895AA
:101B7000809360000FBE20936000FFCF89810F909B
:101B80000F900F900F90CF91DF910895DF93CF9337
:101B90000F92CDB7DEB78091BE01882311F0198274
:101BA00002C081E0898389810F90CF91DF910895F0
:101BB00097FB092E07260AD077FD04D00CD006D05B
:101BC00000201AF4709561957F4F0895F6F790956F
:101BD00081959F4F0895AA1BBB1B51E107C0AA1F07
:101BE000BB1FA617B70710F0A61BB70B881F991FBE
:101BF0005A95A9F780959095BC01CD010895F89468
:021C0000FFCF14
:101C02003031003032003033003034000001030143
:101C1200060109013038003230003232003245000C
:101C2200140117011A011D014749004348004549A3
:101C3200004449003130004252003438000000773D
:101C42007744523D003031323334353637383941FA
:061C520042434445460137
:00000001FF
