:100000000C9446000C9465000C9465000C946500FB
:100010000C9465000C9465000C9465000C946500CC
:100020000C9465000C9465000C9465000C946500BC
:100030000C9465000C9465000C9465000C949E046F
:100040000C9465000C9465000C9465000C9465009C
:100050000C940B040C94CC070C9465000C94650074
:100060000C9465000C9465000C9465000C9465007C
:100070000C9474080C9420080C9465000C94650092
:100080000C9465000C9465000C94650011241FBE4F
:10009000CFEFD0E4DEBFCDBF11E0A0E0B1E0EEE2F3
:1000A000FDE100E00BBF02C007900D92A635B1073D
:1000B000D9F711E0A6E5B1E001C01D92AF3BB10751
:1000C000E1F70E9467000C94950E0C9400000F93CA
:1000D0001F93DF93CF93CDB7DEB7C254D0400FB696
:1000E000F894DEBF0FBECDBF198A188A80E1FE01E9
:1000F0007296DF01982F1D929A95E9F782E08D871D
:100100008D85682F772767FD70958D85992787FDE9
:1001100090959E012E5E3F4F280F391F8D85482FE9
:10012000552747FD509581E08AA3CE0142969CA3B6
:100130008BA37EA36DA338A72FA35AA749A780E45A
:100140008BA7CE0142960A969DA78CA781E090E0EE
:100150009FA78EA7CE0142960B9699AB88AB81E004
:1001600090E09BAB8AAB80E18CABCE0142960C96C3
:100170009EAB8DAB81E090E098AF8FABCE01429605
:100180000D969AAF89AF81E090E09CAF8BAF19825A
:100190000E94070C0E943E0D0E94B90D0E94C103EF
:1001A000A7E2B0E0E7E2F0E0808184608C93E8E2CF
:1001B000F0E084E0808384E60E949709A89588E1B6
:1001C00090E02DE00FB6F894A895809360000FBEE4
:1001D0002093600081E090E068E04AE050E00E94F7
:1001E0001F0626E531E080E090E0B90144E250E0EE
:1001F0000E94B20684E690E00E941C0C80E090E031
:1002000068E140E450E00E941F068989882F90E051
:10021000880F991FFC01E45FFE4F2081318188E245
:1002200091E0B9010E9415058889882F90E0880F18
:10023000991FFC01E05EFE4F208131818BE291E04D
:10024000B9010E9415058EE291E020E031E0B9018C
:100250000E94150581E391E024E331E0B9010E9499
:10026000150587E391E02AE331E0B9010E94150505
:1002700080E090E060E943E051E00E941F0680E0EA
:1002800060E00E94CD0B81E060E00E94CD0B82E037
:1002900060E00E94CD0B789484E690E00E941C0CF4
:1002A000A8E2B0E0E8E2F0E080818B7F8C9389E106
:1002B00090E00E941C0CE0E8F0E01082E1E8F0E041
:1002C00085E08083EFE6F0E081E08083E4E8F0E021
:1002D000118210820E94E4039F878E87EE85FF853E
:1002E00081818270882309F4C2C0EE85FF858081F8
:1002F0008170882309F4BBC0EE85FF858081807101
:10030000882309F4B4C0EE85FF8582818F70882F21
:1003100090E08D3091050CF4AAC0EE85FF858381B5
:100320008F70882F90E08D3091050CF4A0C080E094
:1003300060E00E94CD0B81E060E00E94CD0B82E086
:1003400060E00E94CD0B80E090E068E143E051E086
:100350000E941F068EE291E020E031E0B9010E9488
:1003600097058EAFAEADAA2311F0B1E0BEAF9EAD42
:1003700082E0692F0E94CD0B81E391E024E331E01C
:10038000B9010E9497058FAF8FAD882311F091E0DE
:100390009FAF9FAD82E0692F0E94CD0B8989882F86
:1003A00090E0880F991FFC01E45FFE4F20813181AE
:1003B00088E291E0B9010E94970521968FAF2197BD
:1003C0002196AFAD2197AA2321F0B1E02196BFAFCE
:1003D000219721969FAD219782E0692F0E94CD0B36
:1003E0008889882F90E0880F991FFC01E05EFE4FFE
:1003F000208131818BE291E0B9010E94970522961C
:100400008FAF229722968FAD2297882321F091E01B
:1004100022969FAF229722969FAD229782E0692F66
:100420000E94CD0B87E391E02AE331E0B9010E94FD
:10043000970523968FAF23972396AFAD2397AA23D3
:1004400021F0B1E02396BFAF239723969FAD23976A
:1004500082E0692F0E94CD0B84E690E00E941C0C84
:1004600080E090E060E943E051E00E941F061C86B6
:10047000EE85FF8580818270882319F084E68C8761
:100480001CC0EE85FF8580818170882319F086E489
:100490008C8713C0EE85FF8580818870882319F0D2
:1004A0008EE18C870AC0EE85FF8580818470882369
:1004B00019F08CE98C8701C01C86CE01829661E020
:1004C0004C8520E00E94A60CCE01829661E04C850E
:1004D00021E00E94A60C1A868A858B871E828E8157
:1004E0008F838F818887888589871C828C818D8303
:1004F000EE85FF8581818072882319F081E08B87EA
:1005000046C0EE85FF8581818870882371F09985CA
:1005100081E0982781E08927882339F481E08B875F
:1005200081E089878AE08D8332C0EE85FF858181F5
:100530008870882339F4898591E08927882311F40C
:10054000198625C0EE85FF8580818078882371F02B
:100550009E8181E0982781E08927882339F481E012
:100560008B8781E08E8384E18D8311C0EE85FF85CA
:1005700080818078882339F48E8191E089278823CF
:1005800011F41E8204C08D81882309F41B868D819D
:10059000882319F08D8181508D83EE85FF858181BF
:1005A0008074882319F081E08A8748C0EE85FF8532
:1005B00081818071882371F0988581E0982781E09E
:1005C0008927882339F481E08A8781E088878AE057
:1005D0008C8334C0EE85FF8581818071882339F456
:1005E000888591E08927882311F4188627C0EE8535
:1005F000FF8580818072882371F09F8181E0982738
:1006000081E08927882339F481E08A8781E08F831C
:1006100084E18C8313C0EE85FF85808180728823FE
:1006200039F48F8191E08927882311F41F8206C055
:100630008C81882319F48C8181508C838A85882F42
:1006400090E0880F991F880F991F880F991F282FF6
:100650008B85882F90E0880F991F880F991F282B72
:100660008A85882F90E0880F991F922F982B8B8571
:10067000892B8A838A85282F30E08B85882F90E00C
:10068000822B932B1DAE009711F081E08DAFCE0130
:100690008B966A814DAD0E941C0DEE85FF85818190
:1006A0008170882361F0EE85FF85818184708823C5
:1006B00031F081E089838A818F7C8A830AC0EE854C
:1006C000FF8581818270882319F082E0898301C0CF
:1006D000198281E08B838B81082F10E0CE018296F6
:1006E0000E94CE09882F90E0802391231B820097DF
:1006F00011F081E08B8384E090E00E946A0C8B8192
:10070000082F10E02981CE01C496622F0E94EE0DC1
:10071000882F90E0802391231B82009711F081E0C5
:100720008B838B81082F10E0CE01C4960E94CE09E6
:10073000882F90E0802391231B82009711F081E0A5
:100740008B8384E090E00E946A0C8B81082F10E07C
:10075000CE018B960E94CE09882F90E080239123B2
:100760001B82009711F081E08B8384E090E00E946F
:100770006A0C8B810E94CE0D89E190E00E941C0CD6
:10078000A9CDDF93CF93CDB7DEB710927A0115C014
:1007900080917A01282F30E080917A01882F90E0B3
:1007A000FC01E35CFE4F8081F901E258FE4F80833B
:1007B00080917A018F5F80937A0180917A018430F1
:1007C00038F3CF91DF910895DF93CF93CDB7DEB7A4
:1007D000F89410927A0115C080917A01282F30E0A8
:1007E00080917A01882F90E0FC01E258FE4F8081D1
:1007F000F901EE57FE4F808380917A018F5F8093DD
:100800007A0180917A01843038F3789482E891E01B
:10081000CF91DF9108951F920F920FB60F92009023
:100820005B000F9211242F933F934F935F936F932D
:100830007F938F939F93AF93BF93EF93FF93DF9338
:10084000CF93CDB7DEB7E6ECF0E0808180939E01D8
:1008500080917C01882309F452C080917B01882F0C
:1008600090E020919E01FC01EA57FE4F2083809189
:100870007B018230B0F480917B01882F90E0FC01F5
:10088000EF5BFE4F908180919E01981791F110923D
:100890007C0180E060E00E94CD0B81E00E94910D20
:1008A00028C080917B01883021F580918B01809355
:1008B0007E0180918C0180937F0180918D018093D6
:1008C000800180918E018093810110927C01A89516
:1008D00080E061E00E94CD0B0E945C0E882319F03D
:1008E00080E00E94910D10927D01E4E8F0E0118219
:1008F000108280917B018F5F80937B0109C0809182
:100900009E018A3229F410927B0181E080937C0160
:10091000CF91DF91FF91EF91BF91AF919F918F9117
:100920007F916F915F914F913F912F910F90009226
:100930005B000F900FBE0F901F9018951F920F92A3
:100940000FB60F9200905B000F9211242F933F93EC
:100950008F939F93EF93FF93DF93CF93CDB7DEB742
:1009600080917D018F5F80937D0180917D0187392A
:10097000F0F010927D0110927A0115C080917A01F9
:10098000282F30E080917A01882F90E0FC01E35C11
:10099000FE4F8081F901E258FE4F808380917A01F9
:1009A0008F5F80937A0180917A01843038F3CF9100
:1009B000DF91FF91EF919F918F913F912F910F9038
:1009C00000925B000F900FBE0F901F901895DF9361
:1009D000CF9300D00F92CDB7DEB789837B836A8334
:1009E000898182958F70882F90E0FC01EB5BFE4F30
:1009F0008081EA81FB8180838A819B81DC01119661
:100A00008981882F90E08F709070FC01EB5BFE4F26
:100A100080818C938A819B81FC01329610820F9099
:100A20000F900F90CF91DF9108950F931F93DF9355
:100A3000CF9300D000D00F92CDB7DEB79A838983D1
:100A40007C836B8380E40E94FB06E981FA818081CC
:100A50000E94FB0689819A81FC01319680810E9467
:100A6000FB060AC0EB81FC8180810E94FB068B8122
:100A70009C8101969C838B83EB81FC818081882300
:100A800089F78DE00E94FB068AE00E94FB06109227
:100A90009F0132C080919F01082F10E00E94E5065F
:100AA000F801E056FE4F808380919F01882F90E0EF
:100AB000FC01E056FE4F80810E941B0780919F0140
:100AC0008823A9F080919F01882F90E00197FC0175
:100AD000E056FE4F80818D3051F480919F01882F28
:100AE00090E0FC01E056FE4F80818A3049F0809111
:100AF0009F018F5F80939F0180919F018A3050F208
:100B00008091A101853439F48091A201823519F4D4
:100B100081E08D8301C01D828D810F900F900F9019
:100B20000F900F90CF91DF911F910F9108950F9328
:100B30001F93DF93CF9300D000D00F92CDB7DEB7D5
:100B40009A8389837C836B8380E40E94FB06E9811E
:100B5000FA8180810E94FB0689819A81FC0131968D
:100B600080810E94FB060AC0EB81FC8180810E948B
:100B7000FB068B819C8101969C838B83EB81FC819E
:100B80008081882389F78FE20E94FB0687E50E9417
:100B9000FB068DE00E94FB068AE00E94FB06109295
:100BA0009F0132C080919F01082F10E00E94E5064E
:100BB000F801E056FE4F808380919F01882F90E0DE
:100BC000FC01E056FE4F80810E941B0780919F012F
:100BD0008823A9F080919F01882F90E00197FC0164
:100BE000E056FE4F80818D3051F480919F01882F17
:100BF00090E0FC01E056FE4F80818A3049F0809100
:100C00009F018F5F80939F0180919F018A3050F2F6
:100C10008091A101853439F48091A201823519F4C3
:100C200081E08D8301C01D828D810F900F900F9008
:100C30000F900F90CF91DF911F910F910895DF9347
:100C4000CF93CDB7DEB72D970FB6F894DEBF0FBEAA
:100C5000CDBF9C838B836D835F834E838B819C810F
:100C60009D878C878C859D85009731F08C859D852F
:100C700081309105B1F164C0E1ECF0E01082A2ECAA
:100C8000B0E0E2ECF0E0808186608C931A821982F9
:100C900005C089819A8101969A83898389819A8185
:100CA00023E188389207ACF3E1ECF0E08D8180839A
:100CB000E5ECF0E08E819F81892F99278083E4EC19
:100CC000F0E08E818083E0ECF0E08081A0ECB0E089
:100CD000E0ECF0E08081837E8C93E6ECF0E0108223
:100CE00034C0EDECF0E08E819F81892F99278083BD
:100CF000ECECF0E08E8180831A82198205C0898134
:100D00009A8101969A83898389819A8123E188381F
:100D10009207ACF3A9ECB0E0E9ECF0E090818D81B2
:100D2000892B8C93E8ECF0E08081A8ECB0E0E8EC53
:100D3000F0E08081837E8C93EEECF0E0108205C0C1
:100D40008FEF9FEF9987888702C01986188688855C
:100D500099852D960FB6F894DEBF0FBECDBFCF910B
:100D6000DF910895DF93CF9300D000D000D0CDB7AE
:100D7000DEB79A8389837C836B835E834D8389810D
:100D80009A819923CCF089819A8182309105A4F4CB
:100D900029813A81C901880F991F880F991F880FEF
:100DA000991F820F931F84559E4F4D815E812B8129
:100DB0003C81B9010E94AA0826960FB6F894DEBFBE
:100DC0000FBECDBFCF91DF910895DF93CF93CDB705
:100DD000DEB7E0ECF0E080818823DCF7A0ECB0E047
:100DE000E0ECF0E080818F778C93E6ECF0E080819E
:100DF000CF91DF910895DF93CF930F92CDB7DEB7F8
:100E00008983E0ECF0E08081882F90E08072907020
:100E10000097B9F3E6ECF0E089818083A0ECB0E0C4
:100E2000E0ECF0E080818F7D8C9380E090E00F908B
:100E3000CF91DF910895DF93CF930F92CDB7DEB7B7
:100E4000898389818A30A1F4E8ECF0E08081882FE1
:100E500090E0807290700097B9F3EEECF0E08DE0D6
:100E60008083A8ECB0E0E8ECF0E080818F7D8C938B
:100E7000E8ECF0E08081882F90E08072907000971D
:100E8000B9F3EEECF0E089818083A8ECB0E0E8EC07
:100E9000F0E080818F7D8C9380E090E00F90CF9187
:100EA000DF910895DF93CF9300D00F92CDB7DEB7D7
:100EB0008B831A821982EFE5F0E080818093AA018A
:100EC000F8948B818A3061F48CEA91E06DE00E94A5
:100ED000D808009729F48FEF9FEF9A83898312C077
:100EE0008CEA91E06B810E94D808009721F48FEF83
:100EF0009FEF9A838983A1ECB0E0E1ECF0E0808180
:100F000080628C93EFE5F0E08091AA018083898173
:100F10009A810F900F900F90CF91DF910895DF93FA
:100F2000CF9300D00F92CDB7DEB78B831A82198290
:100F3000EFE5F0E080818093AA01F8948B818A30FC
:100F400061F485EB91E06DE00E94D808009729F4E8
:100F50008FEF9FEF9A83898312C085EB91E06B81BD
:100F60000E94D808009721F48FEF9FEF9A8389831E
:100F7000A9ECB0E0E9ECF0E0808180628C93EFE5D1
:100F8000F0E08091AA01808389819A810F900F906F
:100F90000F90CF91DF9108951F920F920FB60F928D
:100FA00000905B000F9211242F933F934F935F9318
:100FB0006F937F938F939F93AF93BF93EF93FF9321
:100FC000DF93CF930F92CDB7DEB78CEA91E09E010D
:100FD0002F5F3F4FB9010E942B09009761F0E6ECAB
:100FE000F0E089818083A0ECB0E0E0ECF0E080816B
:100FF0008F7D8C930EC0A1ECB0E0E1ECF0E080813D
:101000008F7D8C93A0ECB0E0E0ECF0E080818F7DF0
:101010008C930F90CF91DF91FF91EF91BF91AF91A2
:101020009F918F917F916F915F914F913F912F9100
:101030000F9000925B000F900FBE0F901F901895BD
:101040001F920F920FB60F9200905B000F92112427
:101050002F933F934F935F936F937F938F939F93C0
:10106000AF93BF93EF93FF93DF93CF930F92CDB7DF
:10107000DEB785EB91E09E012F5F3F4FB9010E94E3
:101080002B09009761F0EEECF0E089818083A8ECF9
:10109000B0E0E8ECF0E080818F7D8C930EC0A9EC8D
:1010A000B0E0E9ECF0E080818F7D8C93A8ECB0E0BB
:1010B000E8ECF0E080818F7D8C930F90CF91DF91F1
:1010C000FF91EF91BF91AF919F918F917F916F9120
:1010D0005F914F913F912F910F9000925B000F9085
:1010E0000FBE0F901F9018951F920F920FB60F9280
:1010F00000905B000F9211242F933F934F935F93C7
:101100006F937F938F939F93AF93BF93EF93FF93CF
:10111000DF93CF93CDB7DEB7EEECF0E0208185EB27
:1011200091E0622F0E94D808CF91DF91FF91EF915B
:10113000BF91AF919F918F917F916F915F914F91EF
:101140003F912F910F9000925B000F900FBE0F9078
:101150001F901895DF93CF9300D000D000D0CDB76B
:10116000DEB79A8389837C836B835E834D83E981B9
:10117000FA818B819C8191838083E981FA818D81C1
:101180009E8197838683E981FA8113821282E981A5
:10119000FA8115821482E981FA8181E0808726969E
:1011A0000FB6F894DEBF0FBECDBFCF91DF9108958B
:1011B000DF93CF9300D000D00F92CDB7DEB79A83E4
:1011C00089836B83E981FA818085882371F4E981C1
:1011D000FA8122813381E981FA81848195812817FE
:1011E000390719F41D821C822CC0E981FA81208103
:1011F0003181E981FA8184819581F901E80FF91F34
:101200008B818083E981FA81848195810196E981CE
:10121000FA8195838483E981FA8124813581E9818A
:10122000FA81868197812817390721F4E981FA81AB
:1012300015821482E981FA81108681E090E09D8315
:101240008C838C819D810F900F900F900F900F9049
:10125000CF91DF910895DF93CF9300D000D000D0DD
:10126000CDB7DEB79A8389837C836B83E981FA816A
:1012700080858823D9F5E981FA8120813181E9814E
:10128000FA8182819381F901E80FF91F8081EB8156
:10129000FC818083E981FA81828193810196E981D1
:1012A000FA8193838283E981FA8122813381E98102
:1012B000FA81868197812817390721F4E981FA811B
:1012C00013821282E981FA8122813381E981FA81D4
:1012D000848195812817390721F4E981FA8181E019
:1012E000808781E090E09E838D8305C0EB81FC8147
:1012F00010821E821D828D819E8126960FB6F894E3
:10130000DEBF0FBECDBFCF91DF910895DF93CF93A6
:1013100000D0CDB7DEB79A838983E981FA818085D1
:10132000882F90E00F900F90CF91DF910895DF9379
:10133000CF9300D000D00F92CDB7DEB7898388EB72
:1013400090E09B838A838981282F30E080E29EE4AD
:10135000B9010E946E0ECB0140979D838C83EC8176
:10136000FD81FF232CF48C819D8101969D838C83CC
:101370008C819D8195958795EA81FB818083E9EB3E
:10138000F0E01082ECEBF0E084E080830F900F90AF
:101390000F900F900F90CF91DF910895DF93CF932F
:1013A00000D00F92CDB7DEB79A838983ECEBF0E0E3
:1013B00084EA8083ECEBF0E080818823DCF7E9EBC2
:1013C000F0E08081882F90E0887F907088309105D0
:1013D00009F056C0ABEBB0E0E981FA818081880F5B
:1013E0008C93ECEBF0E084E88083ECEBF0E0808120
:1013F0008823DCF7E9EBF0E08081882F90E0887F9C
:10140000907088319105E1F51092AB0127C0ABEBEC
:10141000B0E0E981FA81218132818091AB01882F8E
:1014200090E0F901E80FF91F80818C93ECEBF0E07C
:1014300084E88083ECEBF0E080818823DCF7E9EB43
:10144000F0E08081882F90E0887F9070883291054D
:10145000B9F48091AB018F5F8093AB018091AB01B8
:10146000282F30E0E981FA81838194812817390798
:1014700070F2ECEBF0E084E9808381E08B8305C0BF
:10148000ECEBF0E084E980831B828B810F900F905E
:101490000F90CF91DF910895DF93CF9300D00F92FB
:1014A000CDB7DEB79A838983ECEBF0E084EA8083E2
:1014B000ECEBF0E080818823DCF7E9EBF0E0808161
:1014C000882F90E0887F90708830910509F07FC068
:1014D000ABEBB0E0E981FA818081882F90E0880F42
:1014E000991F81608C93ECEBF0E084E88083ECEB57
:1014F000F0E080818823DCF7E9EBF0E08081882F41
:1015000090E0887F90708034910509F060C010925F
:10151000AB0128C0ECEBF0E084EC8083ECEBF0E076
:1015200080818823DCF7E9EBF0E08081882F90E070
:10153000887F90708035910509F049C0E981FA8172
:10154000258136818091AB01882F90E0D901A80FC9
:10155000B91FEBEBF0E080818C938091AB018F5F42
:101560008093AB018091AB01282F30E0E981FA81B3
:101570008781908501972817390760F2ECEBF0E03E
:1015800084E88083ECEBF0E080818823DCF7E9EBF2
:10159000F0E08081882F90E0887F907088359105F9
:1015A000B1F4E981FA81258136818091AB01882FE0
:1015B00090E0D901A80FB91FEBEBF0E080818C938C
:1015C000ECEBF0E084E9808381E08B8305C0ECEBF9
:1015D000F0E084E980831B828B810F900F900F9045
:1015E000CF91DF910895DF93CF9300D000D0CDB796
:1015F000DEB79A8389836B83ECEBF0E084EA808327
:10160000ECEBF0E080818823DCF7ABEBB0E0E98124
:10161000FA818081880F8C93ECEBF0E084E8808382
:10162000ECEBF0E080818823DCF7E9EBF0E08081EF
:10163000882F90E0887F90708034910509F0A0C0D9
:10164000EBEBF0E08B818083ECEBF0E084E88083CF
:10165000ECEBF0E080818823DCF7E9EBF0E08081BF
:10166000882F90E0887F90708832910509F088C0BB
:10167000ECEBF0E084EA8083ECEBF0E080818823FF
:10168000DCF7E9EBF0E08081882F90E0887F9070B4
:101690008031910509F074C0ABEBB0E0E981FA81CB
:1016A0008081882F90E0880F991F81608C93ECEBEC
:1016B000F0E084E88083ECEBF0E080818823DCF7C5
:1016C0001092AB0128C0ECEBF0E084EC8083ECEBF3
:1016D000F0E080818823DCF7E9EBF0E08081882F5F
:1016E00090E0887F90708035910509F049C0E981CC
:1016F000FA81258136818091AB01882F90E0D90154
:10170000A80FB91FEBEBF0E080818C938091AB01C7
:101710008F5F8093AB018091AB01282F30E0E9818E
:10172000FA818781908501972817390760F2ECEBE1
:10173000F0E084E88083ECEBF0E080818823DCF744
:10174000E9EBF0E08081882F90E0887F9070883509
:101750009105B1F4E981FA81258136818091AB014F
:10176000882F90E0D901A80FB91FEBEBF0E0808142
:101770008C93ECEBF0E084E9808381E08C8305C0FE
:10178000ECEBF0E084E980831C828C810F900F9059
:101790000F900F90CF91DF910895DF93CF9300D0FA
:1017A000CDB7DEB789836A838981833058F58A8112
:1017B0008823A9F0A2E2B0E0E2E2F0E08081482FC5
:1017C0008981282F30E081E090E0022E02C0880F4E
:1017D000991F0A94E2F7809584238C9313C0A2E2A8
:1017E000B0E0E2E2F0E08081482F8981282F30E0EC
:1017F00081E090E0022E02C0880F991F0A94E2F760
:10180000842B8C930F900F90CF91DF910895DF93ED
:10181000CF93CDB7DEB7A1E2B0E0E1E2F0E08081A6
:1018200087608C93A2E2B0E0E2E2F0E08081876022
:101830008C93CF91DF910895DF93CF9300D000D0A8
:101840000F92CDB7DEB79B838A83E0EBF0E0108286
:10185000E1EBF0E081E08083E3EBF0E088EC808373
:1018600084E6898320C0E2EBF0E01082E7E3F0E059
:101870008081882F90E0827090700097B9F3A7E381
:10188000B0E0E7E3F0E0808182608C9389818D8312
:101890008D81882311F081E08D838D819981915014
:1018A0009983882301F71C828A819B81009711F01C
:1018B00081E08C838A819B8101979B838A838C81C1
:1018C000882321F70F900F900F900F900F90CF91DA
:1018D000DF910895DF93CF9300D00F92CDB7DEB79D
:1018E0009A838983E0EBF0E01082E1EBF0E081E0A5
:1018F0008083E3EBF0E084E1808313C0E2EBF0E06F
:101900001082E7E3F0E08081882F90E08270907091
:101910000097B9F3A7E3B0E0E7E3F0E080818260ED
:101920008C931B8289819A81009711F081E08B83CF
:1019300089819A8101979A8389838B818823F1F623
:101940000F900F900F90CF91DF910895DF93CF9379
:1019500000D000D000D0CDB7DEB79B838A836C83E4
:101960004D832E8319828E81853050F58D81853689
:1019700014F084E68D838D818C3914F48CE98D8389
:101980008C81823021F48D81819589830DC08C8179
:10199000882311F4198208C08C81833019F48FE7F1
:1019A000898302C08D818983EA81FB812181328113
:1019B0008E81882F90E0F901E80FF91F89818083DB
:1019C00026960FB6F894DEBF0FBECDBFCF91DF9144
:1019D0000895DF93CF9300D000D00F92CDB7DEB73C
:1019E0009A8389837C836B834D838D818823A9F0BF
:1019F0008B819C8126E030E0B9010E946E0ECB0104
:101A00009C838B83E981FA8181819281FC013296EA
:101A10008B818F718064808307C0E981FA81818125
:101A20009281FC01329610820F900F900F900F90D0
:101A30000F90CF91DF910895DF93CF9300D000D026
:101A4000CDB7DEB79A8389836B834C838C818823DF
:101A500041F0E981FA810180F281E02D8B81808360
:101A600006C0E981FA810180F281E02D10820F9099
:101A70000F900F900F90CF91DF910895DF93CF9348
:101A8000CDB7DEB7A4E2B0E0E4E2F0E08081807F91
:101A90008C93A5E2B0E0E5E2F0E080818F608C936A
:101AA000CF91DF910895DF93CF9300D0CDB7DEB70C
:101AB0008A83E3E2F0E08081809589838981282F01
:101AC00030E08A81882F90E00197A90102C05595E6
:101AD00047958A95E2F7CA0189838981882F90E02A
:101AE000817090700F900F90CF91DF910895DF93E8
:101AF000CF93CDB7DEB7E3E2F0E0808180958695A5
:101B000086958370CF91DF910895DF93CF93CDB702
:101B1000DEB7E3E2F0E0808180958370CF91DF91C2
:101B20000895DF93CF930F92CDB7DEB78983898174
:101B300091E08927882371F48091550191E08927EC
:101B4000882341F4A2E2B0E0E2E2F0E08081886024
:101B50008C930BC080915501882339F0A2E2B0E04C
:101B6000E2E2F0E08081877F8C930F90CF91DF914C
:101B70000895DF93CF93CDB7DEB7A1E2B0E0E1E205
:101B8000F0E0808188608C93A2E2B0E0E2E2F0E0D5
:101B90008081877F8C93CF91DF910895DF93CF93DE
:101BA0000F92CDB7DEB7898381E069810E94CD0BAA
:101BB000998181E08927882F90E00E94910D998179
:101BC00081E08927882331F0E8E2F0E084E0808337
:101BD000F894FFCF0F90CF91DF910895DF93CF93CB
:101BE00000D000D0CDB7DEB79B838A836C838C8115
:101BF000813071F4EA81FB810180F281E02D8AE677
:101C0000808381E00E94910D81E08093BE0116C027
:101C10008C81823069F4EA81FB810180F281E02DC0
:101C200085E5808380E00E94910D1092BE0106C080
:101C3000EA81FB810180F281E02D10828A819B8103
:101C40000E944C0A8983EA81FB810580F681E02DA0
:101C500080818A3631F481E00E94910D81E0809389
:101C6000BE01EA81FB810580F681E02D808185350A
:101C7000D9F4A0E6B0E0E0E6F0E0808188608C93E3
:101C8000A0E6B0E0E0E6F0E080818F7B8C93A89541
:101C900088E190E028E00FB6F894A8958093600062
:101CA0000FBE20936000FFCF89810F900F900F909F
:101CB0000F90CF91DF910895DF93CF930F92CDB71F
:101CC000DEB78091BE01882311F0198202C081E045
:101CD000898389810F90CF91DF91089597FB092E19
:101CE00007260AD077FD04D00CD006D000201AF4C5
:101CF000709561957F4F0895F6F7909581959F4F68
:101D00000895AA1BBB1B51E107C0AA1FBB1FA61742
:101D1000B70710F0A61BB70B881F991F5A95A9F794
:0E1D200080959095BC01CD010895F894FFCFF9
:101D2E003031003032003033003034000001030116
:101D3E0006010901303800323000323200324500DF
:101D4E00140117011A011D01474900434800454976
:101D5E000044490031300042520034380000007710
:101D6E007744523D003031323334353637383941CD
:061D7E004243444546010A
:00000001FF
