:1000000019C033C032C031C030C02FC02EC02DC087
:100010002CC02BC02AC029C028C027C026C025C09C
:1000200024C023C022C0A4C520C01FC01EC01DC044
:100030001CC01BC011241FBECFEFD4E0DEBFCDBF5C
:1000400011E0A0E0B1E0E2EDF6E102C005900D9212
:10005000A032B107D9F711E0A0E2B1E001C01D92D2
:10006000A43BB107E1F761D032CBCACF8F929F9208
:10007000AF92BF92CF92DF92EF92FF921F93DF93E6
:10008000CF93CDB7DEB72E970FB6F894DEBF0FBE75
:10009000CDBF5B0110E07E010894E11CF11C99E0EA
:1000A000C92ED12CCC0EDD1E85E0882E912C8C0E15
:1000B0009D1E2CC097D1C601D5D1C601B501C3D9AB
:1000C000C701B601A501DBD820E030E0F401E20F62
:1000D000F31FD701A20FB31F90818C91981769F07D
:1000E000C70164E05CD789818D838A818E838B818F
:1000F0008F838C81888710E005C02F5F3F4F2430AD
:10010000310521F78DE290E02BD11F5F153090F281
:10011000C70164E044D789818D838A818E838B8176
:100120008F838C81888710E0F1CF8F929F92AF925E
:10013000BF92CF92DF92EF92FF920F931F93DF93C4
:10014000CF93CDB7DEB765970FB6F894DEBF0FBE7D
:10015000CDBF8DB69EB62BD13BD10ED35C01E8D37B
:10016000A114B10419F484E090E002C083E090E0AF
:100170008C01000F111F000F111F080F191F8DB7E1
:100180009EB7801B910B0FB6F8949EBF0FBE8DBF1C
:10019000EDB6FEB60894E11CF11C88E140E05BE49A
:1001A00060E070E05BD4C701B80196D480E895E0C8
:1001B0003DD680E995E035D6189902C000E009C027
:1001C000199902C001E005C01A9B02C003E001C0FA
:1001D00002E010E0CC24C394C98222E0D22EDA825D
:1001E00083E08B8394E0E92EEC82FE01E00FF11FA7
:1001F00081819ED788E0F82EFD82FE828EE28F8379
:100200008887FE01E00FF11F85816DD780E18D8722
:1002100080E28E8780E48F8780E8888BFE01E00F84
:10022000F11F8585A1D7C986DA86EB86FC860C0F7F
:100230001D1FF8018185B4D784EF91E091D082E34E
:1002400090E08ED080E46CD482E46AD482E568D4F5
:1002500084E366D488E364D48DE062D48AE060D419
:1002600084EF91E07DD088E140EC52E160E070E005
:10027000F5D384EF91E074D0A89588E10FB6F89497
:1002800080936000109260000FBEF1E0AF16B104E1
:1002900039F4419866D1BE016F5E7F4F23D008C00C
:1002A000AB2831F442985DD1BE016F5E7F4FDEDE38
:1002B00080E090E00FB6F8949EBE0FBE8DBE6596AE
:1002C0000FB6F894DEBF0FBECDBFCF91DF911F9167
:1002D0000F91FF90EF90DF90CF90BF90AF909F90E5
:1002E0008F900895AF92BF92CF92DF92EF92FF92DC
:1002F0000F931F93DF93CF93CDB7DEB729970FB638
:10030000F894DEBF0FBECDBF5C016B0184E0E82E28
:10031000F12CEC0EFD1E8E010F5F1F4FA89562D0D1
:10032000C701A0D0C701B601ABD4C801B701A6016F
:100330005FD4A114B10421F4C80163E030D607C032
:1003400081E0A816B10419F4C80163E045D78DE235
:1003500090E006D08981807C803C01F7A0D2DECF7E
:10036000DF93CF9300D0CDB7DEB79C0140EA50E0D9
:100370000BC05A83498389819A8101979A83898323
:100380000196C9F7215030402115310591F70F90A2
:100390000F90CF91DF910895419A429A8EEE92E0AC
:1003A000DFDF419842988EEE92E0DADFF5CF80EC05
:1003B00084B99FEF95B98EEF87B988B98CEF8AB968
:1003C0009BB983E08093B8001092B90043980895D8
:1003D00080E680937C0086E880937A008FE08093AB
:1003E0007E00089584EA8093BC008091BC0087FF62
:1003F000FCCF8091B900887F883009F0CDDF84EA96
:100400008093BB0084E88093BC008091BC0087FF90
:10041000FCCF8091B900887F883109F0BDDF80E48E
:100420008093BB0084E88093BC008091BC0087FF70
:10043000FCCF8091B900887F883209F0ADDF10923F
:10044000BB0084E88093BC008091BC0087FFFCCF98
:100450008091B900887F883209F09EDF84E980931B
:10046000BC000895EF92FF920F931F93CF93DF93F9
:100470007C0182E090E074DF84EA8093BC0080918C
:10048000BC0087FFFCCF8091B900887F883009F0DD
:1004900083DF84EA8093BB0084E88093BC00809172
:1004A000BC0087FFFCCF8091B900887F883109F0BC
:1004B00073DF1092BB0084E88093BC008091BC0085
:1004C00087FFFCCF8091B900887F883209F064DF14
:1004D00084E98093BC0081E090E042DF84EA80936D
:1004E000BC008091BC0087FFFCCF8091B900887F61
:1004F000883009F051DF85EA8093BB0084E880935F
:10050000BC008091BC0087FFFCCF8091B900887F40
:10051000803409F041DFC0E0D0E004EC17E1009343
:10052000BC008091BC0087FFFCCF8091B900887F20
:10053000803509F031DF8091BB00F701EC0FFD1F22
:100540008127895E80832196C630D10541F784E9F1
:100550008093BC00DF91CF911F910F91FF90EF909E
:10056000089589B129B130E03695279536952795BC
:100570002095309521703070C9010895DF92EF9277
:10058000FF920F931F93DF93CF93CDB7DEB763979F
:100590000FB6F894DEBF0FBECDBFDE011696ECE0BD
:1005A000F1E087E001900D928150E1F7DE011D96A8
:1005B000E5E0F1E087E001900D928150E1F7DE0186
:1005C0001196E0E0F1E085E001900D928150E1F7B5
:1005D00082E090E0C5DE84EA8093BC008091BC009C
:1005E00087FFFCCF8091B900887F883009F0D4DE86
:1005F00084EA8093BB0084E88093BC008091BC00B7
:1006000087FFFCCF8091B900887F883109F0C4DE74
:100610008E010A5F1F4F64E8D62E5DE0E52EF12CB7
:10062000EC0EFD1EF80180818093BB00D092BC00CF
:100630008091BC0087FFFCCF8091B900887F883211
:1006400009F0AADE0F5F1F4F0E151F0559F784E949
:100650008093BC0082E090E083DE84EA8093BC005B
:100660008091BC0087FFFCCF8091B900887F8830E3
:1006700009F092DE84EA8093BB0084E88093BC009A
:100680008091BC0087FFFCCF8091B900887F8831C2
:1006900009F082DE8E01035F1F4F44E8D42E34E15F
:1006A000E32EF12CEC0EFD1EF80180818093BB003F
:1006B000D092BC008091BC0087FFFCCF8091B90034
:1006C000887F883209F068DE0F5F1F4F0E151F0507
:1006D00059F784E98093BC0082E090E041DE84EA2F
:1006E0008093BC008091BC0087FFFCCF8091B90053
:1006F000887F883009F050DE84EA8093BB0084E86C
:100700008093BC008091BC0087FFFCCF8091B90032
:10071000887F883109F040DE8E010F5F1F4F24E88B
:10072000D22E96E0E92EF12CEC0EFD1EF801808110
:100730008093BB00D092BC008091BC0087FFFCCFAF
:100740008091B900887F883209F026DE0F5F1F4F45
:100750000E151F0559F784E98093BC0063960FB608
:10076000F894DEBF0FBECDBFCF91DF911F910F91E7
:10077000FF90EF90DF900895DF92EF92FF920F933A
:100780001F93DF93CF9300D0CDB7DEB7F7DE82E0C3
:1007900090E0E6DD84EA8093BC008091BC0087FF96
:1007A000FCCF8091B900887F883009F0F5DD84EABC
:1007B0008093BB0084E88093BC008091BC0087FFDD
:1007C000FCCF8091B900887F883109F0E5DD8EEF9C
:1007D0008093BB0084E88093BC008091BC0087FFBD
:1007E000FCCF8091B900887F883209F0D5DD84E99B
:1007F0008093BC0081E090E0B3DD84EA8093BC008C
:100800008091BC0087FFFCCF8091B900887F883041
:1008100009F0C2DD85EA8093BB0084E88093BC00C8
:100820008091BC0087FFFCCF8091B900887F803425
:1008300059F48E010F5F1F4FE4ECDE2E73E0E72EBC
:10084000F12CEC0EFD1E02C0A7DDF3CFD092BC0050
:100850008091BC0087FFFCCF8091B900887F8035F4
:1008600009F09ADD8091BB00F80181938F01EE15AC
:10087000FF0561F784E98093BC0020E030E08A81C5
:10088000813810F021E030E0C9010F900F90CF9136
:10089000DF911F910F91FF90EF90DF9008951F93CC
:1008A00080917A00806580937A0080917900823A05
:1008B000C8F48BB18F708BB985B18F7385B9809176
:1008C00079001AE0819FC00111244ADD8BB1806F4D
:1008D0008BB985B1806C85B980917900819FC00109
:1008E00011243EDD8BB18F708BB985B18F7385B9C3
:1008F00080917900823C08F45F9A809179008B3B6B
:1009000008F45E9A80917900853B08F45D9A8091A5
:1009100079008F3A08F42F9A809179008A3A08F486
:100920002E9A80917A00806180937A001F910895B9
:1009300080917A00806580937A005C988AEF90E0DD
:100940000FDD809179008B3A20F02E988AEF90E0AD
:1009500007DD80917900803B20F02F988AEF90E0AE
:10096000FFDC80917900863B20F05D988AEF90E073
:10097000F7DC809179008C3B20F05E988AEF90E064
:10098000EFDC80917900833C20F05F988AEF90E063
:10099000E7DC80917A00806180937A000895FC0101
:1009A0007183608357834683138212821582148277
:1009B00081E080870895CF93DF93EC0188858823B9
:1009C00051F42A813B818C819D812817390719F4C4
:1009D00020E030E012C0E881F9818C819D81E80F30
:1009E000F91F60838C819D816E817F81019639D64C
:1009F0009D838C83188621E030E0C901DF91CF917F
:100A00000895CF93DF93EC01DB0188858823D9F427
:100A1000E881F9818A819B81E80FF91F80818C939D
:100A20008A819B816E817F8101961BD69C019B836D
:100A30008A838C819D812817390711F481E088878A
:100A400021E030E003C01C9220E030E0C901DF91DA
:100A5000CF910895FC01808590E008951F93DF9366
:100A6000CF9300D0CDB7DEB7182F9A01AB0160E469
:100A700072E48FE090E009D6215030408091C000B0
:100A800082608093C0001092C1008091C200866095
:100A90008093C2001A82198205C089819A810196C9
:100AA0009A83898389819A8188589341B0F31093FE
:100AB000C1003093C5002093C4008091C000809194
:100AC000C000837E8093C00080E090E00F900F9084
:100AD000CF91DF911F910895909321018093200180
:100AE0007093270160932601109223011092220136
:100AF000109225011092240181E08093280108952D
:100B0000FC018091C00087FFFCCF8091C0008F77EF
:100B10008093C0008091C600808380E090E00895BB
:100B2000982F8091C00085FFFCCF9093C6008091E4
:100B3000C0008F7D8093C00080E090E008951F93F7
:100B4000682F1FB710932901F89480E291E033DFFA
:100B5000892B19F42FEF3FEF02C020E030E08091A5
:100B6000C10080628093C1001FBFC9011F91089519
:100B70001F920F920FB60F9211242F933F934F9312
:100B80005F936F937F938F939F93AF93BF93EF93F5
:100B9000FF93DF93CF930F92CDB7DEB780E291E062
:100BA000BE016F5F7F4F2DDF892B21F089818093FC
:100BB000C60005C08091C1008F7D8093C1008091E7
:100BC000C0008F7D8093C0000F90CF91DF91FF9187
:100BD000EF91BF91AF919F918F917F916F915F91B5
:100BE0004F913F912F910F900FBE0F901F9018952E
:100BF000CF93DF93FC01DA01EB018D818695817043
:100C000041E084278295880F880F807C90819F7BAC
:100C1000982B90838D8184278795882787959F7748
:100C2000982B90839C919770990F990F990F8281BF
:100C3000877C892B828311969C9111979770887F6E
:100C4000892B828312969C9112979295990F990FF6
:100C5000907C8F73892B828313969C911397929526
:100C6000907F81818F70892B81839EE014962C91D7
:100C7000921B9F70807F892B8183DF91CF91089594
:100C80009F92AF92BF92CF92DF92EF92FF920F931B
:100C90001F93CF93DF93FC01EB01808188838181D7
:100CA0008983828182958F708A83838182958F70F8
:100CB0008B83848182958F708C83DB01FB0120E024
:100CC00030E01EE0912E7DE0A72E6CE0B62E5BE0BA
:100CD000C52E4AE0D42E99E0E92E88E0F82E07E0F0
:100CE00016E075E064E053E042E091E080818234F8
:100CF00010F4108237C08C3410F4908333C08635E2
:100D000010F440832FC0803610F450832BC08A36F5
:100D100010F4608327C0843710F4708323C08E37AB
:100D200010F410831FC0883810F400831BC08F3B61
:100D300010F4F08217C0843C10F4E08213C0893CA8
:100D400010F4D0820FC08E3C10F4C0820BC0833DE3
:100D500010F4B08207C0883D10F4A08203C08A3D21
:100D600008F090822F5F3F4F31962230310509F015
:100D7000BDCFF7E0E6E075E064E053E042E091E0EB
:100D800012968C911297843020F412961C9212972E
:100D900027C0863020F412969C93129721C086308B
:100DA00021F412964C9312971BC0873021F41296AF
:100DB0005C93129715C0883021F412966C931297A9
:100DC0000FC0893021F412967C93129709C08A30A3
:100DD00021F41296EC93129703C01296FC9312978B
:100DE0002F5F3F4F11962430310551F68C818530AD
:100DF00010F41C820AC0883010F481E005C08830ED
:100E000011F482E001C083E08C83DF91CF911F91C8
:100E10000F91FF90EF90DF90CF90BF90AF909F9099
:100E200008959093AE018093AD0108959093B3011E
:100E30008093B2010895E091AD01F091AE01099562
:100E40000895E091B201F091B30109950895382F0A
:100E5000FB01282F22952F70822F90E00A9714F41F
:100E600080E301C087E3820F8083832F90E08F703F
:100E700090708A30910514F027E301C020E3280F19
:100E8000218312820895FC01DB0190818C919817D7
:100E900041F4918111968C91981719F420E030E07B
:100EA00002C02FEF3FEFC9010895FF920F931F93E8
:100EB000CF93DF938C01EB01F42EE091AD01F09123
:100EC000AE0180E40995E091AD01F091AE01D80149
:100ED0008C910995E091AD01F091AE01D801119688
:100EE0008C91099503C089910995FA94E091AD011F
:100EF000F091AE01FF20B9F78DE00995E091AD01C9
:100F0000F091AE018AE0099580E090E0DF91CF9109
:100F10001F910F91FF900895982FDA0180912A0177
:100F2000882319F0813069F508C09A3251F5109282
:100F30006B0181E080932A0124C09A3011F58091E1
:100F40006B01282F30E021503040F901E55DFE4F64
:100F500080818D30B1F483E005C0E55DFE4F808176
:100F60008D93892FE82FF0E0982F9F5FE217F3070A
:100F7000A4F380936C011C9210922A0121E030E0CE
:100F80000CC080916B01E82FF0E0E55DFE4F90838F
:100F90008F5F80936B0120E030E0C9010895EF92EC
:100FA000FF921F93DF93CF9300D00F92CDB7DEB7A0
:100FB0007C01162FE091AD01F091AE0180E409951E
:100FC000E091AD01F091AE0184E40995E091AD01AD
:100FD000F091AE0184E50995812FBE016F5F7F4FCF
:100FE00036DFE091AD01F091AE0189810995E09184
:100FF000AD01F091AE018A81099505C0D7018D91AF
:101000007D0109951150E091AD01F091AE011123E0
:10101000A9F78DE00995E091AD01F091AE018AE06C
:10102000099580E090E00F900F900F90CF91DF91A5
:101030001F91FF90EF900895FF920F931F93DF93FE
:10104000CF930F92CDB7DEB78C01F62EE091B201AF
:10105000F091B301CE010196099589816FEA71E0A3
:101060004DE651E059DF892B19F440E050E033C0E0
:101070008091AF01843469F58091B001823549F5E2
:1010800090916D0180916E01913410F430E301C0B4
:1010900037E3813410F420E301C027E3931B821B64
:1010A0009295907F892B482F50E0EFE6F1E021E008
:1010B00030E06F2D70E006C08191D8018D938D01D5
:1010C0002F5F3F4F4217530734F062177307A4F79F
:1010D00002C04FEF5FEFCA010F90CF91DF911F91D8
:1010E0000F91FF9008950F931F93DF93CF9300D03C
:1010F0000F92CDB7DEB7982F8750883218F02FEFB8
:101100003FEF0DC0892F8E010F5F1F4FB8019FDE8B
:1011100083E191E0B80142E0C8DE20E030E0C9019F
:101120000F900F900F90CF91DF911F910F91089525
:101130000F931F93DF93CF9300D00F92CDB7DEB7FD
:101140008E010F5F1F4FB80182DE86E191E0B8018A
:1011500042E0ABDE80E090E00F900F900F90CF91D7
:10116000DF911F910F9108950F931F93DF93CF93FA
:1011700000D00F92CDB7DEB78E010F5F1F4FB801C1
:1011800066DE89E191E0B80142E08FDE80E090E028
:101190000F900F900F90CF91DF911F910F910895B5
:1011A0000F931F93DF93CF9300D00F92CDB7DEB78D
:1011B0008E010F5F1F4FB8014ADE8CE191E0B8014C
:1011C00042E073DE80E090E00F900F900F90CF919F
:1011D000DF911F910F910895EF92FF921F93DF937C
:1011E000CF9300D00F92CDB7DEB77C01162FE091E0
:1011F000AD01F091AE018AE20995E091AD01F09167
:10120000AE0184E40995E091AD01F091AE0182E573
:101210000995E091AD01F091AE018DE30995812F23
:10122000BE016F5F7F4F13DEE091AD01F091AE0123
:1012300089810995E091AD01F091AE018A8109950E
:1012400005C0D7018D917D0109951150E091AD0147
:10125000F091AE011123A9F78DE00995E091AD0160
:10126000F091AE018AE0099580E090E00F900F9038
:101270000F90CF91DF911F91FF90EF900895FC01A7
:10128000DB0115968C911597869531E0832787951C
:101290008827879590819F77982B908314968C91BF
:1012A0001497829586958695817083278295880FFD
:1012B000880F807C9F7B982B908314968C91149739
:1012C000881F8827881F83278295880F807E9F7DAF
:1012D000982B908315968C91159781708327829512
:1012E000807F9F7E982B908315968C911597829581
:1012F000869581708327880F880F880F977F982B9A
:10130000908315968C911597829586958695817018
:101310008327880F880F9B7F982B908315968C913D
:101320001597829581708327880F9D7F982B9083D6
:1013300015968C911597869586958695817083274D
:101340009E7F982B908313968C9113978F7190E0CA
:1013500074E0969587957A95E1F781708295880F6C
:10136000880F807C21812F7B282B218312968C91E2
:10137000129782958695837090E0969587958170F7
:101380008295880F807E2F7D282B218315968C9146
:10139000159786958695817083278295807F2F7E0D
:1013A000282B218315968C911597881F8827881FD5
:1013B0008327880F880F880F277F282B2183149677
:1013C0008C9114978695869581708327880F880F56
:1013D0002B7F282B218314968C91149786958695C4
:1013E000869581708327880F2D7F282B2183149663
:1013F0008C918295817083272E7F282B2183DA019F
:101400009C919295907F82818F70892B82832EE0B0
:1014100011969C91B22FB91B9B2F9F70807F892BB7
:101420008283DA0112969C9112979295907F838124
:101430008F70892B838313969C91291B2F70807F3B
:10144000822B838308959F92AF92BF92CF92DF92B7
:10145000EF92FF920F931F93FC01DB0180818F734A
:101460008C9381818F7311968C9311972081229593
:1014700026952695237030E053E0220F331F5A95AE
:10148000E1F78181829586958695837090E0880F3B
:10149000991F282B392B8281881F8827881F90E06D
:1014A000282B392B12962C93129782818F711396C9
:1014B0008C931397FB0120E030E00EE0902E1DE0AE
:1014C000A12E7CE0B72E6BE0C62E5AE0D52E49E067
:1014D000E42E98E0F92E07E016E075E064E053E0B2
:1014E00042E091E080818B3010F4108235C08B3067
:1014F00011F4908331C08E3010F440832DC08231BE
:1015000010F4508329C0863110F4608325C08A31DD
:1015100010F4708321C08E3110F410831DC083320B
:1015200010F4008319C0873210F4F08215C08B329A
:1015300010F4E08211C08F3210F4D0820DC08333DA
:1015400010F4C08209C0863310F4B08205C088331D
:1015500010F4A08201C090822F5F3F4F319622305D
:10156000310509F0BFCF8EE0B82E0DE0C02E1CE093
:10157000D12EFBE0EF2EEAE0FE2E09E018E0F7E0C6
:10158000E6E075E064E053E042E091E012968C9171
:101590001297863020F412961C92129751C0863012
:1015A00021F412969C9312974BC0873021F4129627
:1015B0004C93129745C0883021F412965C93129791
:1015C0003FC08B3020F412966C93129739C08D3047
:1015D00020F412967C93129733C08F3020F4129629
:1015E000EC9312972DC0813120F41296FC93129740
:1015F00027C0833120F412961C93129721C08531A5
:1016000020F412960C9312971BC0873120F4129687
:10161000FC92129715C0873121F41296EC92129722
:101620000FC0883121F41296DC92129709C08931DB
:1016300021F41296CC92129703C01296BC92129784
:101640002F5F3F4F11962530310509F09FCF1F9135
:101650000F91FF90EF90DF90CF90BF90AF909F9051
:101660000895AA1BBB1B51E107C0AA1FBB1FA617E9
:10167000B70710F0A61BB70B881F991F5A95A9F73B
:1016800080959095BC01CD010895A1E21A2EAA1B68
:10169000BB1BFD010DC0AA1FBB1FEE1FFF1FA21722
:1016A000B307E407F50720F0A21BB30BE40BF50B1F
:1016B000661F771F881F991F1A9469F760957095A8
:1016C000809590959B01AC01BD01CF010895F894E0
:0216D000FFCF4A
:1016D2004CE3B3986746F283D4E0FD2640A4DD6D67
:1016E2000C2F7E4348004749004549004449000009
:00000001FF
