:100000000C9446000C9465000C9465000C946500FB
:100010000C9465000C9465000C9465000C946500CC
:100020000C9465000C9465000C9465000C946500BC
:100030000C9465000C9465000C9465000C946500AC
:100040000C9465000C9465000C9465000C9465009C
:100050000C9465000C9465000C9465000C9465008C
:100060000C9465000C9465000C9465000C9465007C
:100070000C9465000C9465000C9465000C9465006C
:100080000C9465000C9465000C94650011241FBE4F
:10009000CFEFD0E1DEBFCDBF11E0A0E0B1E0E2E004
:1000A000F4E100E00BBF02C007900D92A031B10750
:1000B000D9F712E0A0E1B1E001C01D92A034B10770
:1000C000E1F70E94F7000C94FF090C9400002091C6
:1000D0008E0110928E01213019F081E080938E0103
:1000E00030E0225D3E4FC90108958EEF81BB82E86A
:1000F00082BB82E082B9109261008FEF8093620030
:10010000089585B7806C85BFEDE6F0E080818E6054
:100110008083ECE6F0E08081806880830895209100
:100120008E014EE251E0420F511D61E070E020E38C
:1001300030E00E9432030895EF92FF920F93FC018A
:10014000A78DB0A11296EC9063E070E04DE151E014
:1001500021E130E002EFFF240E94AE030F91FF90F7
:10016000EF900895EF92FF920F93CF93DF93EC01FE
:10017000EF8DF8A1E28063E070E04DE151E021E114
:1001800030E002EFFF240E94AE0397FF1FC0EF8D07
:10019000F8A1E280CE0163E070E04DE151E021E1A1
:1001A00030E00E94AE0397FF11C0EF8DF8A1E2800E
:1001B000CE0163E070E04DE151E021E130E00E94CA
:1001C000AE0397FF03C02FEF3FEF0AC0CE0161E0FF
:1001D00070E04FE050E02FE830E00E94BC029C014C
:1001E000C901DF91CF910F91FF90EF900895CF92C9
:1001F000DF92EF92FF920F931F93DF93CF93CDB7D0
:10020000DEB7E3970FB6F894DEBF0FBECDBF8EEF1B
:1002100081BB82E882BB82E082B9109261008FEFDD
:10022000809362000E94810080E090E068E149E1F3
:1002300050E00E94B70825E0C22ED12CCC0EDD1E66
:1002400082B38B7A82BBF894929A979888EE93E067
:100250000E94650284E690E00E9465020E946F059C
:10026000892B71F70E9424067C010197029750F5B3
:1002700082B38B7A82BB949A04C084E690E00E9499
:100280006502C60160E070E0A7010E949E04892B10
:10029000A1F782B38B7A82BB929A949A84E690E01B
:1002A0000E94650210E010928E01C6010E94B20009
:1002B0007C011F5F163021F28AEF90E00E946502F8
:1002C000EF2889F795E0E92EF12CEC0EFD1E01E0F8
:1002D00010E08DE06FEF0E94C9051F5F1431C9F770
:1002E00040918E0150E0425D5E4FC70161E070E0D9
:1002F00020E330E00E943203E0918E0110928E01E3
:10030000E13011F000938E01F0E0E05DFE4F82815C
:1003100080FFDECF82B3846582BB85E0C82ED12CFE
:10032000CC0EDD1E01E07E010894E11CF11C10E002
:100330008DE06FEF0E94C9051F5F1431C9F740912E
:100340008E0150E0425D5E4FC60161E070E020E347
:1003500030E00E943203E0918E0110928E01E13074
:1003600011F000938E01F0E0E25DFE4FDF01129686
:100370004281242F221F2227221F89818C7F942FC4
:10038000929596959270822B892B242F26952695EF
:1003900026952470837F942F96959870822B892BB5
:1003A00011963C911197232F221F2227221F22955D
:1003B000207F8F7C932F96959072822B892B232FF1
:1003C000220F20748F73932F92959F709795992782
:1003D0009795822B892B8983932F96959695969541
:1003E00091708A818C7F36953270892B832B942F64
:1003F000990F990F990F90748F7B892B8A83E42F23
:10040000E17051968C915197843610F440E009C008
:10041000843B10F441E005C08F3F11F443E001C07C
:1004200042E050968C915097843610F410E009C049
:10043000843B10F411E005C08F3F11F413E001C0BC
:1004400012E014968C91149761E10E94F309382F01
:100450008F3009F43EE015968C91159761E10E946A
:10046000F309582F8F3009F45EE016968C91169799
:1004700061E10E94F309282F8F3009F42EE01796CE
:100480008C9161E10E94F309982F8F3009F49EE06E
:10049000E795EE27E7958A818377440F440F8E2BEB
:1004A000842B1295107F8F7C812B8A835295507FED
:1004B0003F70352B3B839295907F2F70292B2C8397
:1004C000C70164E00E94CC0732CFDF93CF9300D006
:1004D0000F92CDB7DEB79A83898304C087EE93E08D
:1004E0000E9487021B8289819A81009711F081E026
:1004F0008B8389819A8101979A8389838B81882351
:1005000069F70F900F900F90CF91DF910895DF93CF
:10051000CF9300D00F92CDB7DEB79B838A83198229
:100520008A819B8121E000002A95E9F70197D1F7A4
:1005300029830F900F900F90CF91DF910895109223
:1005400092011092910181E090E09093900180934C
:100550008F010895EF920F931F93FC0161834283F3
:100560002383012B11F480E001C080E88683E082C0
:100570001F910F91EF900895CF92DF92EF92FF922B
:100580000F931F93CF93DF93EC017A016901CB01A5
:1005900001970F9708F053C0EF8DF8A18481082FC1
:1005A00010E0A0E0B0E020E030E00FC04DA15EA17F
:1005B000FA01E20FF31F828190E08F709070295F43
:1005C0003F4F8617970729F01196A017B10774F3CC
:1005D00036C0FD0183E0EE0FFF1F8A95E1F7EA1BAD
:1005E000FB0BE40FF51F83818370833041F5868117
:1005F000882329F1D0931802C093170270931A022E
:1006000060931902D0921C02C0921B02F092140255
:10061000E0921302F0921602E0921502809191018D
:100620009091920190931E0280931D0283E192E0CB
:10063000909392018093910120E030E002C02FEF6F
:100640003FEFC901DF91CF911F910F91FF90EF9084
:10065000DF90CF900895FC0183E08583CF010E9455
:1006600083060895FC01618383E08583CF01BA018D
:10067000A9010E9483060895CF92DF92EF92FF9224
:100680000F931F93CF93DF938C017B016A0187E067
:10069000F8018483C80148E050E021E030E00E9486
:1006A0002407EC0197FD4BC0F701468157814115A6
:1006B0005105B1F1C114D10499F1808187FF17C0B0
:1006C00083E4F8018583C801B6010E948306EC012A
:1006D00097FD35C087E4F8018483C80160E070E0CD
:1006E00040E050E020E030E00E94240716C087E49C
:1006F000F8018483C801B60120E030E00E9424079D
:10070000EC0197FD1CC083E4F8018583C80160E01B
:1007100070E040E050E00E948306AE01EC010DC0A5
:1007200083E4F8018583C80160E070E040E050E0B8
:100730000E948306EC0140E050E0D7FFEA01CE01C1
:10074000DF91CF911F910F91FF90EF90DF90CF90AD
:100750000895FC0111820E943C030895EF92FF92DC
:100760000F931F93DF93CF93CDB7DEB728970FB6C4
:10077000F894DEBF0FBECDBF71EA798371E07A8352
:1007800010E0F62FE0E00E2B1F2B1C830B83FE8264
:10079000ED8238872F83BE016F5F7F4F0E94A903D0
:1007A00028960FB6F894DEBF0FBECDBFCF91DF9174
:1007B0001F910F91FF90EF900895DF93CF93CDB7E6
:1007C000DEB728970FB6F894DEBF0FBECDBFAB01E2
:1007D00020E8298328E02A831C821B821E821D8236
:1007E00021E030E038872F83BE016F5F7F4F0E948A
:1007F000A90328960FB6F894DEBF0FBECDBFCF91E8
:10080000DF910895DF93CF93CDB7DEB728970FB66A
:10081000F894DEBF0FBECDBF198229E02A837C8306
:100820006B831E821D8218861F82BE016F5F7F4F01
:1008300040E050E00E94A90328960FB6F894DEBF6E
:100840000FBECDBFCF91DF910895CF92DF92EF928F
:10085000FF920F931F93DF93CF93CDB7DEB7289707
:100860000FB6F894DEBF0FBECDBF6C017B011982BD
:1008700085E08A837C836B831E821D8218861F829B
:10088000C601BE016F5F7F4F40E050E00E94A903A8
:100890008C0197FD0CC0F701ED56FE4F81E080837F
:1008A000F601F086E782C601B7010E948305C80100
:1008B00028960FB6F894DEBF0FBECDBFCF91DF9163
:1008C0001F910F91FF90EF90DF90CF900895EF92DE
:1008D000FF920F93DF93CF93CDB7DEB728970FB674
:1008E000F894DEBF0FBECDBFDC01F90180E889833B
:1008F000862F8152823010F481E8898386E08A83D2
:10090000202F30E0962F80E0282B392B3C832B833F
:10091000FE82ED82F887EF83CD01BE016F5F7F4FCE
:100920000E94A90328960FB6F894DEBF0FBECDBF74
:10093000CF91DF910F91FF90EF900895AF92BF920A
:10094000CF92DF92EF92FF920F93DF93CF930F92AC
:10095000CDB7DEB76C01672B41F04130510529F46A
:1009600061E070E024E130E004C060E070E02CE081
:1009700030E0D60111961C92119788E012968C9364
:10098000129713962C93672B11F480E001C080E836
:10099000F60186831082528741872BE0A22EB12C6C
:1009A000AC0CBD1CC60161E0A50128E030E000E010
:1009B000EE24FF240E94670497FD83C0969AD60117
:1009C00052968C91529711961C92119712968C9375
:1009D000129784E113968C93139716961C92169790
:1009E0001C92C60161E070E00E9425048F5F9F4F5A
:1009F00009F467C0C60161E0A50122E130E00E9470
:100A0000670497FD5EC091E2A92E92E0B92EC6015F
:100A100062E0A50129E030E00E94670497FD51C023
:100A2000F601B68EA58E2091230230912402C601D4
:100A300062E0A5010E94670497FD43C09698D60125
:100A40005D96ED91FC915E978081E80FF11D909687
:100A5000FC93EE935F971F968C911F97882371F4F8
:100A60008581833059F48081E80FF11D9296FC93C3
:100A7000EE9391978081E80FF11D0CC0F60112A250
:100A800011A214A213A2078CF0A1E02D8081E80F1F
:100A9000F11DD6019696FC93EE939597D6015D963F
:100AA000ED91FC915E976581C60170E00E940204A1
:100AB000C601BE016F5F7F4F0E94DD0320E030E082
:100AC00002C02FEF3FEFC9010F90CF91DF910F913F
:100AD000FF90EF90DF90CF90BF90AF90089510926D
:100AE000200210921F020E941506089580E090E8EF
:100AF00090932B0280932A0280E090EC90932D0239
:100B000080932C020895FC01608308950F931F9336
:100B1000CF93DF938B01EA01E0912A02F0912B023F
:100B200007C0E0912C02F0912D02D8018D918D012A
:100B3000808386E990E00E9487022197BFEFCF3F34
:100B4000DB0779F7DF91CF911F910F9108950F93F4
:100B50001F93CF93DF938B01EA01E0912A02F0917A
:100B60002B02808308C0E0912C02F0912D0280813D
:100B7000F80181938F0186E990E00E948702219716
:100B8000FFEFCF3FDF0779F7DF91CF911F910F91F3
:100B900008951F93162FE0912A02F0912B02808373
:100BA00086E990E00E948702E0912C02F0912D02EC
:100BB000108386E990E00E9487021F9108951F9399
:100BC000E0912A02F0912B02808386E990E00E9456
:100BD0008702E0912C02F0912D02108186E990E0CD
:100BE0000E948702812F1F9108951F93CF93DF9357
:100BF000C0EFD0E0CE018195182F6C2F0E94C9055F
:100C0000812F0E94DF0590E08C179D0719F02FEFD0
:100C10003FEF06C02197C130D10561F720E030E0F9
:100C2000C901DF91CF911F91089580E090E89093E2
:100C30002B0280932A0280E090EC90932D02809307
:100C40002C020E94F50508951F93CF93DF9384E64D
:100C500090E00E9465028FE060E80E94C90585E08F
:100C600068E00E94C9058EE190E00E94650285E07F
:100C700060E00E94C90510E08DE06FEF0E94C90599
:100C80001F5F1436C9F78DE00E94DF0586FF07C09D
:100C900086E060E10E94C905C0E0D0E02FC087FF78
:100CA00013C08EE060EE0E94C9058FE06EEA0E94DC
:100CB000C90585E061E00E94C9058DE06FEF0E94E3
:100CC000C905C2E0D0E016C08EE060EE0E94C90502
:100CD0008FE06EEE0E94C90585E061E20E94C905C1
:100CE00010E08DE06FEF0E94C9051F5F1431C9F756
:100CF000C1E0D0E086E060E10E94C905CE01DF914D
:100D0000CF911F9108952F923F924F925F926F92D1
:100D10007F928F929F92AF92BF92CF92DF92EF928B
:100D2000FF920F931F93CF93DF93EC013B014A0196
:100D30008B81282E33248D819E81892B8D838CE09D
:100D400068810E94C905698160698BE00E94C905BC
:100D5000740120E1A22EB12C90E4492E8A8190E00A
:100D600067018E159F050CF46C01C6018A0D9B1D51
:100D70008F3F910521F01CF080E1A82EB12C5A2C58
:100D800089E06A2D0E94C9058AE06C2D0E94C90580
:100D900000E010E019C088E06D810E94C90582E082
:100DA00090E00E9465028DE00E94DF0581FFFBCF8D
:100DB0008BE00E94DF0587FF03C04EEF5FEF30C07E
:100DC00080FD08C00F5F1F4F0215130524F34FEF7E
:100DD0005FEF26C08CE00E94DF058601081B110929
:100DE0006114710461F0181419044CF4B4016E1903
:100DF0007F09660D771D852DA6010E94A705E01AC3
:100E0000F10A8D8184258D831E141F0434F40C1582
:100E10001D0519F4A00EB11EA1CFA4014E195F0942
:100E2000CA01DF91CF911F910F91FF90EF90DF905A
:100E3000CF90BF90AF909F908F907F906F905F907A
:100E40004F903F902F9008955F926F927F928F9274
:100E50009F92AF92BF92CF92DF92EF92FF920F9349
:100E60001F93CF93DF93EC014B017A0189018B81B2
:100E7000682E77248C819E81892B8C8381E060E1B0
:100E80000E94C90584E068810E94C90501301105EE
:100E900011F460ED02C06981606183E00E94C905C0
:100EA000670140E4542E8A8190E056018C159D051F
:100EB0000CF45C018114910461F01E141F044CF4C5
:100EC000B7016C197D09680D791D80E1A5010E94AB
:100ED000860582E06A2D0E94C90500E010E025C069
:100EE00080E06C810E94C90582E390E00E94650267
:100EF0008DE00E94DF0580FFFBCF83E00E94DF05CD
:100F0000809310018091100187FF05C03EEFE32E12
:100F10003FEFF32E1EC08091100180FD09C085E0D7
:100F200090E00E9465020F5F1F4F06151705C4F27F
:100F30008091100180FD04C0EE24EA94FE2C09C0CB
:100F4000CA18DB088C8185258C831C141D040CF4C5
:100F5000AACFC701DF91CF911F910F91FF90EF9022
:100F6000DF90CF90BF90AF909F908F907F906F90C9
:100F70005F900895982F92959F70A0E0B1E0FD01D9
:100F8000E90FF11D9081FB0190838F70A80FB11DB7
:100F90008C918183128208950F931F93CF93DF93D7
:100FA000EC01062F80E40E94E90884E40E94E9082D
:100FB00084E50E94E908E02FF0E0EF70F070E05067
:100FC000FF4F1081E02FE295EF70F0E0E050FF4F0F
:100FD00080810E94E908812F0E94E90804C089915C
:100FE0000E94E90801500023D1F78DE00E94E90832
:100FF0008AE00E94E90880E0DF91CF911F910F9174
:1010000008950F931F93CF93DF938C01EB0180E43E
:101010000E94E908F80180810E94E908F8018181B5
:101020000E94E90803C00E94E9082196888188236C
:10103000D1F78FE20E94E90887E50E94E9088DE078
:101040000E94E9088AE00E94E9081092110121C07B
:101050000E94E408E02FF0E0EE5EFE4F8083E09116
:101060001101F0E0EE5EFE4F80810E94F008909149
:101070001101992359F0E92FF0E0EE5EFE4F8291C5
:1010800031968D3019F480818A3039F09F5F9093CA
:101090001101009111010A30D8F2809113018534B9
:1010A00011F090E006C090E080911401823509F4BF
:1010B00091E0892FDF91CF911F910F9108950F93A8
:1010C0001F93CF93DF938C01EB0180E40E94E9082A
:1010D000F80180810E94E908F80181810E94E908F5
:1010E00003C00E94E908219688818823D1F78DE00A
:1010F0000E94E9088AE00E94E9081092110121C0CB
:101100000E94E408E02FF0E0EE5EFE4F8083E09165
:101110001101F0E0EE5EFE4F80810E94F008909198
:101120001101992359F0E92FF0E0EE5EFE4F829114
:1011300031968D3019F480818A3039F09F5F909319
:101140001101009111010A30D8F280911301853408
:1011500011F090E006C090E080911401823509F40E
:1011600091E0892FDF91CF911F910F910895009702
:1011700029F0019799F02FEF3FEF24C01AB8809122
:1011800095008660809395006AB95093900049B9A4
:101190008BB18BB1837E8BB91CB812C05093980071
:1011A0004093990080919A00862B80939A008091B9
:1011B0009B0080919B00837E80939B0010929C00FB
:1011C00020E030E0C90108955F9BFECF5F988CB1AD
:1011D00008955D9BFECF8CB95D9880E090E0089506
:1011E000982F8A3061F480919B0085FFFCCF8DE0C1
:1011F00080939C0080919B008F7D80939B008091C9
:101200009B0085FFFCCF90939C0080919B008F7D7D
:1012100080939B0080E090E008951F93182F8FB774
:1012200080931C01F8941A3051F487E392E06DE04A
:101230000E947709892B19F42FEF3FEF11C087E344
:1012400092E0612F0E947709892B19F42FEF3FEF6D
:1012500002C020E030E080919A00806280939A0082
:1012600080911C018FBFC9011F9108951F93182FF2
:101270008FB780931C01F8941A3051F48EE292E0FB
:101280006DE00E947709892B19F42FEF3FEF0DC015
:101290008EE292E0612F0E947709892B19F42FEFDB
:1012A0003FEF02C020E030E0559A80911C018FBFD3
:1012B000C9011F9108959C018230910558F4E3E023
:1012C000880F991FEA95E1F7820F931F825D9D4F6A
:1012D0000E946B090895FC017183608357834683E4
:1012E000138212821582148281E080870895DC01C6
:1012F00018968C911897882371F412962D913C9131
:10130000139714968D919C9115972817390719F406
:1013100020E030E022C0ED91FC91119714968D9160
:101320009C911597E80FF91F608314968D919C91FD
:101330001597019615969C938E93149716962D915A
:101340003C9117978217930721F415961C921E92D1
:10135000149718961C9221E030E0C9010895CF93AC
:10136000DF93DC01EB0118968C911897882381F5A7
:10137000ED91FC91119712968D919C911397E80F26
:10138000F91F8081888312968D919C911397019605
:1013900013969C938E93129716962D913C911797C6
:1013A0008217930721F413961C921E92129712969D
:1013B0002D913C91139714968D919C911597281718
:1013C000390719F481E018968C9321E030E003C0CE
:1013D000188220E030E0C901DF91CF910895FC012F
:1013E000808590E00895991B79E004C0991F9617B5
:1013F00008F0961B881F7A95C9F780950895F89490
:02140000FFCF1C
:101402003031323334353637383941424344454638
:00000001FF
