:1000000019C028C027C026C025C024C023C022C0D4
:1000100021C020C01FC01EC01DC01CC01BC01AC0F4
:1000200019C018C017C016C015C014C013C012C024
:10003000A4C010C011241FBECFEFD4E0DEBFCDBFDF
:1000400011E0A0E0B1E001C01D92A530B107E1F7D9
:1000500002D010C2D5CFDF93CF93CDB7DEB72E97A6
:100060000FB6F894DEBF0FBECDBF1D821C82198271
:1000700080E48E83CE01049698878F8381E090E0A0
:100080009A878987CE01049601969C878B8781E0A9
:1000900090E09E878D877894CE01069635D0A4E2B5
:1000A000B0E0E4E2F0E0808187608C93AAE2B0E007
:1000B000EAE2F0E080818F608C93EBE2F0E0108266
:1000C0008C818B83E5E2F0E08B8187708083EBE2AB
:1000D000F0E08B818F7080838B8182958F708A8313
:1000E0008B81882371F09B818981981751F0EBE215
:1000F000F0E08A81808386E090E032D1EBE2F0E0AC
:1001000010828B818983DCCFDF93CF9300D0CDB772
:10011000DEB79A83898389819A81909304018093C1
:1001200003012AEB30E0A0910301B0910401E091BA
:100130000301F09104018081880F8C938C91F90167
:100140008083AAEBB0E0EAEBF0E0808181608C93E1
:10015000ECEBF0E085E48083A89588E190E02DE069
:100160000FB6F894A895809360000FBE20936000AE
:100170000F900F90CF91DF9108951F920F920FB6BD
:100180000F9211242F933F938F939F93AF93BF931D
:10019000EF93FF93DF93CF9300D0CDB7DEB7E9EBBA
:1001A000F0E08081282F30E03A83298389819A8189
:1001B0008039910509F443C029813A8121393105FB
:1001C0008CF489819A818037910509F49DC0298139
:1001D0003A8120383105B1F189819A8180369105C3
:1001E00001F1A4C029813A81283A310509F450C0AF
:1001F00089819A81893A91053CF429813A81203A92
:10020000310509F43DC092C089819A81883B9105EE
:1002100009F45CC029813A81203C310509F47CC095
:1002200085C010920201ACEBB0E0ECEBF0E0808115
:1002300080688C9381E080930101A89580C081E063
:1002400080930001E0910301F0910401218132814A
:1002500080910201882F90E0D901A80FB91FEBEB24
:10026000F0E080818C93809102018F5F8093020186
:10027000ACEBB0E0ECEBF0E0808180688C935FC089
:10028000ACEBB0E0ECEBF0E0808180688C9357C081
:1002900081E08093010110920201ABEBB0E0E091AC
:1002A0000301F09104010580F681E02D80818C939B
:1002B000809102018F5F80930201ACEBB0E0ECEB28
:1002C000F0E0808180688C93A89539C0ABEBB0E0FA
:1002D000E0910301F09104012581368180910201B2
:1002E000882F90E0F901E80FF91F80818C938091AD
:1002F00002018F5F80930201ACEBB0E0ECEBF0E029
:10030000808180688C931BC0E0910301F09104010F
:100310000580F681E02D1082ACEBB0E0ECEBF0E074
:10032000808180688C931092010109C0ACEBB0E031
:10033000ECEBF0E0808180688C93109201010F90CB
:100340000F90CF91DF91FF91EF91BF91AF919F916E
:100350008F913F912F910F900FBE0F901F90189586
:10036000DF93CF9300D000D00F92CDB7DEB79B8341
:100370008A83E0EBF0E01082E1EBF0E081E0808343
:10038000E3EBF0E088EC808384E6898320C0E2EB35
:10039000F0E01082E7E3F0E08081882F90E0827047
:1003A00090700097B9F3A7E3B0E0E7E3F0E0808155
:1003B00082608C9389818D838D81882311F081E007
:1003C0008D838D81998191509983882301F71C82B7
:1003D0008A819B81009711F081E08C838A819B81C7
:1003E00001979B838A838C81882321F70F900F903C
:1003F0000F900F900F90CF91DF910895DF93CF93DF
:1004000000D00F92CDB7DEB79A838983E0EBF0E09E
:100410001082E1EBF0E081E08083E3EBF0E084E147
:10042000808313C0E2EBF0E01082E7E3F0E080812C
:10043000882F90E0827090700097B9F3A7E3B0E046
:10044000E7E3F0E0808182608C931B8289819A814E
:10045000009711F081E08B8389819A8101979A83BB
:1004600089838B818823F1F60F900F900F90CF91A5
:08047000DF910895F894FFCF1D
:00000001FF
