:100000000C9446000C9465000C9465000C946500FB
:100010000C9465000C9465000C9465000C946500CC
:100020000C9465000C9465000C9465000C946500BC
:100030000C9465000C9465000C9465000C946500AC
:100040000C9465000C9465000C9465000C9465009C
:100050000C94B4030C9433070C9465000C94650065
:100060000C9465000C9465000C9465000C9465007C
:100070000C94DB070C9487070C9465000C946500C6
:100080000C9465000C9465000C94650011241FBE4F
:10009000CFEFD0E4DEBFCDBF11E0A0E0B1E0E6E6F7
:1000A000FBE100E00BBF02C007900D92A433B10743
:1000B000D9F711E0A4E3B1E001C01D92AD39B10759
:1000C000E1F70E9467000C94B10D0C9400000F93AF
:1000D0001F93DF93CF93CDB7DEB7EA970FB6F894AF
:1000E000DEBF0FBECDBF8CE0FE013E96DF01982F34
:1000F0001D929A95E9F781E08A8FCE010E969C8F2A
:100100008B8F84E090E09E8F8D8FCE010E960496AB
:1001100098A38F8F84E090E09AA389A380E48BA3B7
:10012000CE010E9608969DA38CA381E090E09FA33C
:100130008EA3CE010E96099699A788A781E090E03C
:100140009BA78AA780E18CA7CE010E960A969EA750
:100150008DA781E090E098AB8FA7CE010E960B960D
:100160009AAB89AB81E090E09CAB8BABE0EBF0E02D
:100170001082E1EBF0E081E080830E94750B0E9429
:100180005A0C0E94D50CA7E2B0E0E7E2F0E08081D3
:1001900084608C93E8E2F0E084E0808384E60E944F
:1001A000FE08A89588E190E02DE00FB6F894A89598
:1001B000809360000FBE2093600081E090E068E0D3
:1001C0004AE050E00E94860524E331E080E090E0C0
:1001D000B90144E250E00E94190684E690E00E94D2
:1001E000A00B80E090E068E140E450E00E948605CA
:1001F00080E091E023E031E0B9010E947C0486E0D8
:1002000091E029E031E0B9010E947C048CE091E0AA
:100210002FE031E0B9010E947C0482E191E025E108
:1002200031E0B9010E947C0488E191E02BE131E0EA
:10023000B9010E947C0480E090E060E943E051E075
:100240000E94860580E060E00E943B0B81E060E058
:100250000E943B0B82E060E00E943B0B789484EFAD
:1002600091E00E94A00BA8E2B0E0E8E2F0E080811B
:100270008B7F8C9389E190E00E94A00B0E948D03FC
:100280009D878C87EC85FD8581818270882309F4A8
:100290009AC0EC85FD8580818170882309F493C024
:1002A000EC85FD8580818071882309F48CC0EC8504
:1002B000FD8582818F70882F90E08D3091050CF440
:1002C00082C0EC85FD8583818F70882F90E08D3012
:1002D00091050CF478C080E060E00E943B0B81E067
:1002E00060E00E943B0B82E060E00E943B0B80E0FC
:1002F00090E068E143E051E00E94860580E091E0F3
:1003000023E031E0B9010E94FE048DABADA9AA2320
:1003100011F0B1E0BDAB9DA982E0692F0E943B0BBB
:1003200086E091E029E031E0B9010E94FE048EAB45
:100330008EA9882311F091E09EAB9EA982E0692FDF
:100340000E943B0B8CE091E02FE031E0B9010E946C
:10035000FE048FABAFA9AA2311F0B1E0BFAB9FA9F8
:1003600082E0692F0E943B0B82E191E025E131E0C0
:10037000B9010E94FE0488AF88AD882311F091E096
:1003800098AF98AD82E0692F0E943B0B88E191E025
:100390002BE131E0B9010E94FE0489AFA9ADAA2387
:1003A00011F0B1E0B9AF99AD82E0692F0E943B0B2B
:1003B00084E690E00E94A00B80E090E060E943E0DA
:1003C00051E00E948605EC85FD858081817088233F
:1003D00009F446C08A819B81863491050CF040C0A7
:1003E00084E690E09D838C8384E68E838A819B8162
:1003F00001969B838A832A813B81C901880F991FBB
:10040000820F931F880F991F22273327281B390B30
:100410008C819D81820F931F9D838C83CE014A9690
:1004200062E04E8120E00E94C20B8B8D9C8DDC012E
:100430001196EB8DFC8D80818C932C81CE014A9698
:1004400061E0422F22E00E94C20B8B8D9C8DDC016B
:1004500013968B8D9C8DFC01329680818C93BBC052
:10046000EC85FD8583818F70882F90E08530910524
:100470004CF0EC85FD8582818F70882F90E085306F
:10048000910534F41E8284E690E09D838C832AC01B
:10049000EC85FD8583818F70882F90E08A309105EF
:1004A0004CF4EC85FD8582818F70882F90E08A3036
:1004B00091052CF084E68E831D821C8213C0EC858E
:1004C000FD8580818470882339F082E390E09D83EC
:1004D0008C8382E38E8306C084E690E09D838C83C8
:1004E00084E68E83EC85FD85818180728823A1F46A
:1004F000EC85FD85838182958F70882F90E0853013
:10050000910554F0EC85FD85828182958F70882F4E
:1005100090E0853091052CF481E08A8782E089871C
:1005200039C0EC85FD85818180748823A1F4EC8538
:10053000FD85838182958F70882F90E08A309105A8
:1005400054F4EC85FD85828182958F70882F90E030
:100550008A3091052CF082E08A8781E089871AC071
:10056000EC85FD8580818078882329F081E089876A
:1005700089858A870FC0EC85FD85808180728823FC
:1005800029F082E0898789858A8704C083E089878A
:1005900089858A87CE014A966A854E8120E00E942D
:1005A000C20B8B8D9C8DDC011196EB8DFC8D8081B7
:1005B0008C932C81CE014A966985422F22E00E94BD
:1005C000C20B8B8D9C8DDC0113968B8D9C8DFC0159
:1005D000329680818C931B86EC85FD8580818870A6
:1005E000882329F081E08B8783E08F8315C0EC8519
:1005F000FD8581818870882329F081E08B8781E0E7
:100600008F830AC0EC85FD8581818071882321F06C
:1006100081E08B8782E08F838B858AAF9AAD9923A7
:1006200011F0A1E0AAAF2AADCE0183966F81422FCF
:100630000E94380CEC85FD8580818270882361F4EE
:10064000EC85FD8581818170882349F0EC85FD85ED
:1006500081818470882319F081E088870AC0EC8545
:10066000FD8581818270882319F082E0888701C02E
:10067000188681E089838981082F10E02885CE01C2
:100680008C96622F0E940A0D882F90E08023912380
:100690001982009711F081E089838981082F10E089
:1006A000CE014A960E943509882F90E0802391233D
:1006B0001982009711F081E0898388E090E00E9420
:1006C0008A0B8981082F10E0CE0183960E9435099C
:1006D000882F90E0802391231982009711F081E008
:1006E000898388E090E00E948A0B8981082F10E0BE
:1006F000CE018C960E943509882F90E080239123AB
:100700001982009711F081E0898389810E94EA0CA7
:1007100089E190E00E94A00BB1CDDF93CF93CDB7DC
:10072000DEB7F8941092580115C080915801282F17
:1007300030E080915801882F90E0FC01E55AFE4F8F
:100740008081F901E15AFE4F8083809158018F5FCB
:100750008093580180915801843038F378948FE564
:1007600091E0CF91DF9108951F920F920FB60F92F3
:1007700000905B000F9211242F933F934F935F9350
:100780006F937F938F939F93AF93BF93EF93FF9359
:10079000DF93CF93CDB7DEB7E6ECF0E080818093B6
:1007A0007B0180915A01882309F459C08091590135
:1007B000882F90E020917B01FC01ED59FE4F2083B2
:1007C00080915901882F90E0FC01ED59FE4F808106
:1007D0000E948206809159018230C8F480915901AB
:1007E000882F90E0FC01E25EFE4F908180917B01BA
:1007F000981779F110925A0180E40E94820680E0F5
:1008000060E00E943B0B81E00E94AD0C22C0809111
:1008100059018A30F1F48091680180935B018091E5
:10082000690180935C0180916A0180935D018091F0
:100830006B0180935E0110925A01A89580E061E0FF
:100840000E943B0B0E94780D882319F080E00E94E3
:10085000AD0C809159018F5F8093590109C080913F
:100860007B018A3229F41092590181E080935A0168
:10087000CF91DF91FF91EF91BF91AF919F918F91B8
:100880007F916F915F914F913F912F910F900092C7
:100890005B000F900FBE0F901F901895DF93CF93C2
:1008A00000D00F92CDB7DEB789837B836A838981BD
:1008B00082958F70882F90E0FC01EE5DFE4F808165
:1008C000EA81FB8180838A819B81DC011196898189
:1008D000882F90E08F709070FC01EE5DFE4F80815C
:1008E0008C938A819B81FC01329610820F900F902D
:1008F0000F90CF91DF9108950F931F93DF93CF93C4
:1009000000D000D00F92CDB7DEB79A8389837C8365
:100910006B8380E40E946206E981FA8180810E94F3
:10092000620689819A81FC01319680810E9462066B
:100930000AC0EB81FC8180810E9462068B819C81D0
:1009400001969C838B83EB81FC818081882389F7CE
:100950008DE00E9462068AE00E94620610927C018D
:1009600032C080917C01082F10E00E944C06F801F3
:10097000E358FE4F808380917C01882F90E0FC013A
:10098000E358FE4F80810E94820680917C0188237B
:10099000A9F080917C01882F90E00197FC01E35839
:1009A000FE4F80818D3051F480917C01882F90E042
:1009B000FC01E358FE4F80818A3049F080917C0130
:1009C0008F5F80937C0180917C018A3050F280910E
:1009D0007E01853439F480917F01823519F481E0FC
:1009E0008D8301C01D828D810F900F900F900F900D
:1009F0000F90CF91DF911F910F9108950F931F9347
:100A0000DF93CF9300D000D00F92CDB7DEB79A839B
:100A100089837C836B8380E40E946206E981FA818A
:100A200080810E94620689819A81FC0131968081D1
:100A30000E9462060AC0EB81FC8180810E946206EE
:100A40008B819C8101969C838B83EB81FC818081CF
:100A5000882389F78FE20E94620687E50E9462067A
:100A60008DE00E9462068AE00E94620610927C017C
:100A700032C080917C01082F10E00E944C06F801E2
:100A8000E358FE4F808380917C01882F90E0FC0129
:100A9000E358FE4F80810E94820680917C0188236A
:100AA000A9F080917C01882F90E00197FC01E35828
:100AB000FE4F80818D3051F480917C01882F90E031
:100AC000FC01E358FE4F80818A3049F080917C011F
:100AD0008F5F80937C0180917C018A3050F28091FD
:100AE0007E01853439F480917F01823519F481E0EB
:100AF0008D8301C01D828D810F900F900F900F90FC
:100B00000F90CF91DF911F910F910895DF93CF93B5
:100B1000CDB7DEB72D970FB6F894DEBF0FBECDBFB1
:100B20009C838B836D835F834E838B819C819D87A8
:100B30008C878C859D85009731F08C859D858130D3
:100B40009105B1F164C0E1ECF0E01082A2ECB0E0FC
:100B5000E2ECF0E0808186608C931A82198205C0F5
:100B600089819A8101969A83898389819A8123E177
:100B700088389207ACF3E1ECF0E08D818083E5ECFE
:100B8000F0E08E819F81892F99278083E4ECF0E04B
:100B90008E818083E0ECF0E08081A0ECB0E0E0ECBE
:100BA000F0E08081837E8C93E6ECF0E0108234C02C
:100BB000EDECF0E08E819F81892F99278083ECEC0A
:100BC000F0E08E8180831A82198205C089819A8122
:100BD00001969A83898389819A8123E188389207D3
:100BE000ACF3A9ECB0E0E9ECF0E090818D81892BC9
:100BF0008C93E8ECF0E08081A8ECB0E0E8ECF0E069
:100C00008081837E8C93EEECF0E0108205C08FEF44
:100C10009FEF9987888702C01986188688859985ED
:100C20002D960FB6F894DEBF0FBECDBFCF91DF91EA
:100C30000895DF93CF9300D000D000D0CDB7DEB7BA
:100C40009A8389837C836B835E834D8389819A81B8
:100C50009923CCF089819A8182309105A4F429816D
:100C60003A81C901880F991F880F991F880F991F12
:100C7000820F931F86579E4F4D815E812B813C8151
:100C8000B9010E94110826960FB6F894DEBF0FBE78
:100C9000CDBFCF91DF910895DF93CF93CDB7DEB76E
:100CA000E0ECF0E080818823DCF7A0ECB0E0E0EC41
:100CB000F0E080818F778C93E6ECF0E08081CF913B
:100CC000DF910895DF93CF930F92CDB7DEB789837D
:100CD000E0ECF0E08081882F90E0807290700097C7
:100CE000B9F3E6ECF0E089818083A0ECB0E0E0ECC1
:100CF000F0E080818F7D8C9380E090E00F90CF9129
:100D0000DF910895DF93CF930F92CDB7DEB789833C
:100D100089818A30A1F4E8ECF0E08081882F90E0AE
:100D2000807290700097B9F3EEECF0E08DE0808374
:100D3000A8ECB0E0E8ECF0E080818F7D8C93E8ECEB
:100D4000F0E08081882F90E0807290700097B9F376
:100D5000EEECF0E089818083A8ECB0E0E8ECF0E014
:100D600080818F7D8C9380E090E00F90CF91DF9118
:100D70000895DF93CF9300D00F92CDB7DEB78B836A
:100D80001A821982EFE5F0E0808180938701F89460
:100D90008B818A3061F48AE891E06DE00E943F081F
:100DA000009729F48FEF9FEF9A83898312C08AE816
:100DB00091E06B810E943F08009721F48FEF9FEF35
:100DC0009A838983A1ECB0E0E1ECF0E0808180625D
:100DD0008C93EFE5F0E080918701808389819A818F
:100DE0000F900F900F90CF91DF910895DF93CF93E5
:100DF00000D00F92CDB7DEB78B831A821982EFE550
:100E0000F0E0808180938701F8948B818A3061F4CF
:100E100083E991E06DE00E943F08009729F48FEF8D
:100E20009FEF9A83898312C083E991E06B810E94CE
:100E30003F08009721F48FEF9FEF9A838983A9ECF5
:100E4000B0E0E9ECF0E0808180628C93EFE5F0E0C7
:100E500080918701808389819A810F900F900F90F4
:100E6000CF91DF9108951F920F920FB60F920090CD
:100E70005B000F9211242F933F934F935F936F93D7
:100E80007F938F939F93AF93BF93EF93FF93DF93E2
:100E9000CF930F92CDB7DEB78AE891E09E012F5F26
:100EA0003F4FB9010E949208009761F0E6ECF0E034
:100EB00089818083A0ECB0E0E0ECF0E080818F7D60
:100EC0008C930EC0A1ECB0E0E1ECF0E080818F7D6E
:100ED0008C93A0ECB0E0E0ECF0E080818F7D8C930F
:100EE0000F90CF91DF91FF91EF91BF91AF919F91C3
:100EF0008F917F916F915F914F913F912F910F90C3
:100F000000925B000F900FBE0F901F9018951F92DC
:100F10000F920FB60F9200905B000F9211242F9347
:100F20003F934F935F936F937F938F939F93AF9371
:100F3000BF93EF93FF93DF93CF930F92CDB7DEB7BD
:100F400083E991E09E012F5F3F4FB9010E94920813
:100F5000009761F0EEECF0E089818083A8ECB0E0CE
:100F6000E8ECF0E080818F7D8C930EC0A9ECB0E0BE
:100F7000E9ECF0E080818F7D8C93A8ECB0E0E8ECA8
:100F8000F0E080818F7D8C930F90CF91DF91FF9166
:100F9000EF91BF91AF919F918F917F916F915F91F1
:100FA0004F913F912F910F9000925B000F900FBED9
:100FB0000F901F9018951F920F920FB60F920090EE
:100FC0005B000F9211242F933F934F935F936F9386
:100FD0007F938F939F93AF93BF93EF93FF93DF9391
:100FE000CF93CDB7DEB7EEECF0E0208183E991E05E
:100FF000622F0E943F08CF91DF91FF91EF91BF9147
:10100000AF919F918F917F916F915F914F913F91A0
:101010002F910F9000925B000F900FBE0F901F90CA
:101020001895DF93CF9300D000D000D0CDB7DEB7B6
:101030009A8389837C836B835E834D83E981FA8104
:101040008B819C8191838083E981FA818D819E814E
:1010500097838683E981FA8113821282E981FA817A
:1010600015821482E981FA8181E0808726960FB685
:10107000F894DEBF0FBECDBFCF91DF910895DF930F
:10108000CF9300D000D00F92CDB7DEB79A8389837B
:101090006B83E981FA818085882371F4E981FA8183
:1010A00022813381E981FA8184819581281739076A
:1010B00019F41D821C822CC0E981FA8120813181C2
:1010C000E981FA8184819581F901E80FF91F8B810B
:1010D0008083E981FA81848195810196E981FA8191
:1010E00095838483E981FA8124813581E981FA81BC
:1010F000868197812817390721F4E981FA811582C1
:101100001482E981FA81108681E090E09D838C83CE
:101110008C819D810F900F900F900F900F90CF9129
:10112000DF910895DF93CF9300D000D000D0CDB7EA
:10113000DEB79A8389837C836B83E981FA8180851A
:101140008823D9F5E981FA8120813181E981FA8109
:1011500082819381F901E80FF91F8081EB81FC8185
:101160008083E981FA81828193810196E981FA8104
:1011700093838283E981FA8122813381E981FA8133
:10118000868197812817390721F4E981FA81138232
:101190001282E981FA8122813381E981FA81848195
:1011A00095812817390721F4E981FA8181E0808748
:1011B00081E090E09E838D8305C0EB81FC811082ED
:1011C0001E821D828D819E8126960FB6F894DEBF09
:1011D0000FBECDBFCF91DF910895DF93CF9300D0A5
:1011E000CDB7DEB79A838983E981FA818085882F1C
:1011F00090E00F900F90CF91DF910895DF93CF9300
:1012000000D000D00F92CDB7DEB7898388EB90E095
:101210009B838A838981282F30E080E29EE4B90194
:101220000E948A0DCB0140979D838C83EC81FD81C8
:10123000FF232CF48C819D8101969D838C838C816E
:101240009D8195958795EA81FB818083E9EBF0E0AC
:101250001082ECEBF0E084E080830F900F900F9011
:101260000F900F90CF91DF910895DF93CF9300D02F
:101270000F92CDB7DEB79A838983F894ECEBF0E058
:1012800084EA8083ECEBF0E080818823DCF7E9EBF3
:10129000F0E08081882F90E0887F90708830910501
:1012A00009F058C0ABEBB0E0E981FA818081880F8A
:1012B0008C93ECEBF0E084E88083ECEBF0E0808151
:1012C0008823DCF7E9EBF0E08081882F90E0887FCD
:1012D00090708831910509F03DC01092880127C0B7
:1012E000ABEBB0E0E981FA81218132818091880104
:1012F000882F90E0F901E80FF91F80818C93ECEBC7
:10130000F0E084E88083ECEBF0E080818823DCF778
:10131000E9EBF0E08081882F90E0887F9070883240
:101320009105C1F4809188018F5F8093880180913D
:101330008801282F30E0E981FA8183819481281780
:10134000390770F2ECEBF0E084E98083789481E077
:101350008B8306C0ECEBF0E084E9808378941B82F9
:101360008B810F900F900F90CF91DF910895DF93B5
:10137000CF9300D00F92CDB7DEB79A838983F894CC
:10138000ECEBF0E084EA8083ECEBF0E080818823F2
:10139000DCF7E9EBF0E08081882F90E0887F9070A7
:1013A0008830910509F080C0ABEBB0E0E981FA81AB
:1013B0008081882F90E0880F991F81608C93ECEBDF
:1013C000F0E084E88083ECEBF0E080818823DCF7B8
:1013D000E9EBF0E08081882F90E0887F9070803486
:1013E000910509F061C01092880128C0ECEBF0E093
:1013F00084EC8083ECEBF0E080818823DCF7E9EB80
:10140000F0E08081882F90E0887F90708035910592
:1014100009F04AC0E981FA812581368180918801ED
:10142000882F90E0D901A80FB91FEBEBF0E0808185
:101430008C93809188018F5F8093880180918801CF
:10144000282F30E0E981FA8187819085019728175C
:10145000390760F2ECEBF0E084E88083ECEBF0E03D
:1014600080818823DCF7E9EBF0E08081882F90E031
:10147000887F907088359105B9F4E981FA812581DA
:10148000368180918801882F90E0D901A80FB91F7B
:10149000EBEBF0E080818C93ECEBF0E084E980836F
:1014A000789481E08B8306C0ECEBF0E084E98083E4
:1014B00078941B828B810F900F900F90CF91DF91CA
:1014C0000895DF93CF9300D000D0CDB7DEB79A83D5
:1014D00089836B83ECEBF0E084EA8083ECEBF0E053
:1014E00080818823DCF7ABEBB0E0E981FA81808171
:1014F000880F8C93ECEBF0E084E88083ECEBF0E079
:1015000080818823DCF7E9EBF0E08081882F90E090
:10151000887F90708034910509F0A0C0EBEBF0E07B
:101520008B818083ECEBF0E084E88083ECEBF0E0EF
:1015300080818823DCF7E9EBF0E08081882F90E060
:10154000887F90708832910509F088C0ECEBF0E05C
:1015500084EA8083ECEBF0E080818823DCF7E9EB20
:10156000F0E08081882F90E0887F90708031910535
:1015700009F074C0ABEBB0E0E981FA818081882F7B
:1015800090E0880F991F81608C93ECEBF0E084E889
:101590008083ECEBF0E080818823DCF710928801F7
:1015A00028C0ECEBF0E084EC8083ECEBF0E0808191
:1015B0008823DCF7E9EBF0E08081882F90E0887FDA
:1015C00090708035910509F049C0E981FA81258143
:1015D000368180918801882F90E0D901A80FB91F2A
:1015E000EBEBF0E080818C93809188018F5F80939A
:1015F000880180918801282F30E0E981FA81878174
:10160000908501972817390760F2ECEBF0E084E849
:101610008083ECEBF0E080818823DCF7E9EBF0E0FD
:101620008081882F90E0887F907088359105B1F493
:10163000E981FA812581368180918801882F90E0A7
:10164000D901A80FB91FEBEBF0E080818C93ECEB94
:10165000F0E084E9808381E08C8305C0ECEBF0E06E
:1016600084E980831C828C810F900F900F900F90E3
:10167000CF91DF910895DF93CF9300D0CDB7DEB740
:1016800089836A838981833058F58A818823A9F008
:10169000A2E2B0E0E2E2F0E08081482F8981282FC9
:1016A00030E081E090E0022E02C0880F991F0A947A
:1016B000E2F7809584238C9313C0A2E2B0E0E2E2CB
:1016C000F0E08081482F8981282F30E081E090E090
:1016D000022E02C0880F991F0A94E2F7842B8C9384
:1016E0000F900F90CF91DF910895DF93CF93CDB7F7
:1016F000DEB7A1E2B0E0E1E2F0E0808187608C93A8
:10170000A2E2B0E0E2E2F0E0808187608C93CF91CA
:10171000DF910895DF93CF9300D0CDB7DEB79A83E2
:10172000898389819A8124E000002A95E9F701974D
:10173000D1F7209389010F900F90CF91DF910895F9
:10174000DF93CF9300D00F92CDB7DEB79A83898312
:1017500004C088EE93E00E948A0B1B8289819A81E3
:10176000009711F081E08B8389819A8101979A8398
:1017700089838B81882369F70F900F900F90CF9109
:10178000DF910895DF93CF9300D000D000D0CDB784
:10179000DEB79B838A836C834D832E8319828E816F
:1017A000853050F58D81853614F084E68D838D81EA
:1017B0008C3914F48CE98D838C81823021F48D81F5
:1017C000819589830DC08C81882311F4198208C00A
:1017D0008C81833019F48FE7898302C08D818983DE
:1017E000EA81FB81218132818E81882F90E0F9018D
:1017F000E80FF91F8981808326960FB6F894DEBF23
:101800000FBECDBFCF91DF910895DF93CF9300D06E
:1018100000D00F92CDB7DEB79A8389837C836B8328
:101820004D838D818823A9F08B819C8126E030E057
:10183000B9010E948A0DCB019C838B83E981FA81D7
:1018400081819281FC0134968B818F7180648083C9
:1018500007C0E981FA8181819281FC01349610826E
:101860000F900F900F900F900F90CF91DF910895F0
:10187000DF93CF9300D000D0CDB7DEB79A838983B2
:101880006B834C838C81882341F0E981FA8101804C
:10189000F281E02D8B81808306C0E981FA8101808D
:1018A000F281E02D10820F900F900F900F90CF914A
:1018B000DF910895DF93CF93CDB7DEB7A4E2B0E018
:1018C000E4E2F0E08081807F8C93A5E2B0E0E5E285
:1018D000F0E080818F608C93CF91DF910895DF934A
:1018E000CF9300D0CDB7DEB78A83E3E2F0E080810A
:1018F000809589838981282F30E08A81882F90E024
:101900000197A90102C0559547958A95E2F7CA014A
:1019100089838981882F90E0817090700F900F905B
:10192000CF91DF910895DF93CF93CDB7DEB7E3E298
:10193000F0E080818095869586958370CF91DF91C8
:101940000895DF93CF93CDB7DEB7E3E2F0E0808177
:1019500080958370CF91DF910895DF93CF930F929D
:10196000CDB7DEB78983898191E08927882371F417
:101970008091320191E08927882341F4A2E2B0E00E
:10198000E2E2F0E0808188608C930BC080913201AC
:10199000882339F0A2E2B0E0E2E2F0E08081877FC4
:1019A0008C930F90CF91DF910895DF93CF93CDB7B4
:1019B000DEB7A1E2B0E0E1E2F0E0808188608C93E4
:1019C000A2E2B0E0E2E2F0E08081877F8C93CF91E9
:1019D000DF910895DF93CF930F92CDB7DEB7898360
:1019E00081E069810E943B0B998181E08927882FE2
:1019F00090E00E94AD0C998181E08927882331F025
:101A0000E8E2F0E084E08083F894FFCF0F90CF917C
:101A1000DF910895DF93CF9300D000D0CDB7DEB72C
:101A20009B838A836C838C81813071F4EA81FB8192
:101A30000180F281E02D8AE6808381E00E94AD0C76
:101A400081E080939C0116C08C81823069F4EA8128
:101A5000FB810180F281E02D85E5808380E00E949A
:101A6000AD0C10929C0106C0EA81FB810180F281DD
:101A7000E02D10828A819B810E94B7098983EA81C7
:101A8000FB810580F681E02D80818A3631F481E08A
:101A90000E94AD0C81E080939C01EA81FB8105806E
:101AA000F681E02D80818535D9F4A0E6B0E0E0E64E
:101AB000F0E0808188608C93A0E6B0E0E0E6F0E0A2
:101AC00080818F7B8C93A89588E190E028E00FB609
:101AD000F894A895809360000FBE20936000FFCF1C
:101AE00089810F900F900F900F90CF91DF91089503
:101AF000DF93CF930F92CDB7DEB780919C018823FF
:101B000011F0198202C081E0898389810F90CF9101
:101B1000DF91089597FB092E07260AD077FD04D0A0
:101B20000CD006D000201AF4709561957F4F08956F
:101B3000F6F7909581959F4F0895AA1BBB1B51E125
:101B400007C0AA1FBB1FA617B70710F0A61BB70B2D
:101B5000881F991F5A95A9F780959095BC01CD01D2
:061B60000895F894FFCF88
:101B660045490030380044490038300047490030C4
:101B76003400434800324500425200343800445293
:101B86003D003031323334353637383941424344FB
:041B960045460100BF
:00000001FF
