:100000000C9446000C9465000C9465000C946500FB
:100010000C9465000C9465000C9465000C946500CC
:100020000C9465000C9465000C9465000C946500BC
:100030000C9465000C9465000C9465000C94B70456
:100040000C9465000C9465000C9465000C9465009C
:100050000C9424040C94E5070C9465000C94650042
:100060000C9465000C9465000C9465000C9465007C
:100070000C948D080C9439080C9465000C94650060
:100080000C9465000C9465000C94650011241FBE4F
:10009000CFEFD0E4DEBFCDBF11E0A0E0B1E0EAECED
:1000A000FCE100E00BBF02C007900D92A833B1073E
:1000B000D9F711E0A8E3B1E001C01D92A23AB1075F
:1000C000E1F70E9467000C94630E0C9400000F93FC
:1000D0001F93DF93CF93CDB7DEB7C654D0400FB692
:1000E000F894DEBF0FBECDBF8CE0FE017696DF0137
:1000F000982F1D929A95E9F781E08AA3CE01469642
:100100009CA38BA384E090E09EA38DA3CE01469692
:10011000049698A78FA384E090E09AA789A780E42B
:100120008BA7CE01469608969DA78CA781E090E00C
:100130009FA78EA7CE014696099699AB88AB81E022
:1001400090E09BAB8AAB80E18CABCE0146960A96E1
:100150009EAB8DAB81E090E098AF8FABCE01469621
:100160000B969AAF89AF81E090E09CAF8BAF0E9475
:10017000DA03E0EBF0E01082E1EBF0E081E0808375
:100180000E94270C0E940C0D0E94870DA7E2B0E090
:10019000E7E2F0E0808184608C93E8E2F0E084E0C4
:1001A000808384E60E94B009A89588E190E02DE064
:1001B0000FB6F894A895809360000FBE209360005E
:1001C00081E090E068E04AE050E00E94380628E3D1
:1001D00031E080E090E0B90144E250E00E94CB06BB
:1001E00084E690E00E94520C80E090E068E140E4F8
:1001F00050E00E94380680E091E023E031E0B90150
:100200000E942E0586E091E029E031E0B9010E94CC
:100210002E058CE091E02FE031E0B9010E942E051F
:1002200082E191E025E131E0B9010E942E0588E1EB
:1002300091E02BE131E0B9010E942E0580E090E0D1
:1002400060E943E051E00E94380680E060E00E94EF
:10025000ED0B81E060E00E94ED0B82E060E00E9427
:10026000ED0B78948CED95E00E94520CA8E2B0E082
:10027000E8E2F0E080818B7F8C93E0E8F0E0108290
:10028000E1E8F0E085E08083EFE6F0E081E0808364
:10029000E4E8F0E0118210821B8A1A8A198A188A0F
:1002A0001F860E94FD039D8B8C8BEC89FD898181CB
:1002B0008270882309F4C2C0EC89FD898081817035
:1002C000882309F4BBC0EC89FD8980818071882373
:1002D00009F4B4C0EC89FD8982818F70882F90E089
:1002E0008D3091050CF4AAC0EC89FD8983818F7053
:1002F000882F90E08D3091050CF4A0C080E060E084
:100300000E94ED0B81E060E00E94ED0B82E060E076
:100310000E94ED0B80E090E068E143E051E00E9434
:10032000380680E091E023E031E0B9010E94B00599
:1003300022968FAF22972296AFAD2297AA2321F063
:10034000B1E02296BFAF229722969FAD229782E01E
:10035000692F0E94ED0B86E091E029E031E0B901C0
:100360000E94B00523968FAF239723968FAD2397D6
:10037000882321F091E023969FAF239723969FAD8A
:10038000239782E0692F0E94ED0B8CE091E02FE033
:1003900031E0B9010E94B00524968FAF24972496CE
:1003A000AFAD2497AA2321F0B1E02496BFAF2497E4
:1003B00024969FAD249782E0692F0E94ED0B82E185
:1003C00091E025E131E0B9010E94B00525968FAF9B
:1003D000259725968FAD2597882321F091E02596C6
:1003E0009FAF259725969FAD259782E0692F0E94A4
:1003F000ED0B88E191E02BE131E0B9010E94B005FD
:1004000026968FAF26972696AFAD2697AA2321F082
:10041000B1E02696BFAF269726969FAD269782E03D
:10042000692F0E94ED0B84E690E00E94520C80E060
:1004300090E060E943E051E00E943806EC89FD89D4
:1004400080818071882309F0CAC0EC89FD8983818D
:1004500082958F708B83EC89FD8983818F708A836D
:1004600089899A898832910534F489899A89019613
:100470009A8B898B02C081E08B8BEC89FD8980810E
:100480008470882339F086E490E021969FAF8EAF88
:10049000219706C0A2E3B0E02196BFAFAEAF21978F
:1004A00021968EAD9FAD21979E878D87EC89FD8922
:1004B00081818072882349F08D859E859C878B87FA
:1004C0008D859E859A8789878EC0EC89FD8981817B
:1004D0008074882379F08D859E85909581959F4FB6
:1004E0009C878B878D859E85909581959F4F9A8758
:1004F000898779C0EC89FD8980818078882361F0C3
:100500008D859E859C878B878D859E859095819511
:100510009F4F9A87898767C0EC89FD8980818072A7
:10052000882361F08D859E85909581959F4F9C874E
:100530008B878D859E859A87898755C08B8185306D
:10054000E8F48A818A3038F08D859E859C878B8778
:100550001A86198648C08A81853038F41C861B8625
:100560008D859E859A8789873EC08D859E859C87CF
:100570008B878D859E859A87898735C08B818A3048
:1005800048F18A818A3050F08D859E8590958195BD
:100590009F4F9C878B871A86198625C08A81853054
:1005A00050F41C861B868D859E85909581959F4F66
:1005B0009A87898718C08D859E85909581959F4FD4
:1005C0009C878B878D859E85909581959F4F9A8777
:1005D000898709C01C861B861A86198604C01C865A
:1005E0001B861A8619868B859C85009721F08B8542
:1005F0009C85009719F493E09EAF02C0A1E0AEAFD6
:10060000BEADB88789859A85009721F089859A853E
:10061000009719F483E08DAF02C092E09DAFADADBD
:10062000AF832B85CE0182966885422F20E00E9401
:10063000740C2B85CE0182966885422F21E00E94A2
:10064000740C2985CE0182966F81422F22E00E9490
:10065000740C2985CE0182966F81422F23E00E947F
:10066000740C1E82EC89FD8980818870882329F0B2
:1006700081E08E838CE08D8315C0EC89FD898181BA
:100680008870882329F081E08E8384E08D830AC0FE
:10069000EC89FD8981818071882321F081E08E833E
:1006A00088E08D83BE812796BFAF279727968FADB1
:1006B0002797882321F091E027969FAF27972796C9
:1006C0002FAD2797CE018B966D81422F0E94EA0CA9
:1006D000EC89FD8981818170882349F0EC89FD894D
:1006E00081818470882319F081E08C830FC0EC89AC
:1006F000FD8981818270882341F082E08C831B8A8E
:100700001A8A198A188A1F8601C01C8281E089838F
:100710008981082F10E02C81CE01C496622F0E949F
:10072000BC0D882F90E0802391231982009711F04F
:1007300081E089838981082F10E0CE0182960E9492
:10074000E709882F90E0802391231982009711F008
:1007500081E089838AE090E00E943C0C8981082F27
:1007600010E0CE018B960E94E709882F90E080234D
:1007700091231982009711F081E089838AE090E04B
:100780000E943C0C8981082F10E0CE01C4960E9483
:10079000E709882F90E0802391231982009711F0B8
:1007A00081E0898389810E949C0D89E190E00E940B
:1007B000520C77CDDF93CF93CDB7DEB710925C01AB
:1007C00015C080915C01282F30E080915C01882F5A
:1007D00090E0FC01E25EFE4F8081F901E05AFE4F9D
:1007E000808380915C018F5F80935C0180915C01CC
:1007F000843038F3CF91DF910895DF93CF93CDB755
:10080000DEB7F89410925C0115C080915C01282F2E
:1008100030E080915C01882F90E0FC01E05AFE4FAF
:100820008081F901EC59FE4F808380915C018F5FDC
:1008300080935C0180915C01843038F3789484E685
:1008400091E0CF91DF9108951F920F920FB60F9212
:1008500000905B000F9211242F933F934F935F936F
:100860006F937F938F939F93AF93BF93EF93FF9378
:10087000DF93CF93CDB7DEB7E6ECF0E080818093D5
:10088000800180915E01882309F452C080915D014E
:10089000882F90E020918001FC01E859FE4F2083D1
:1008A00080915D018230B0F480915D01882F90E0ED
:1008B000FC01EE5DFE4F908180918001981791F1CF
:1008C00010925E0180E060E00E94ED0B81E00E94EA
:1008D0005F0D28C080915D01883021F580916D0108
:1008E0008093600180916E018093610180916F011E
:1008F00080936201809170018093630110925E0188
:10090000A89580E061E00E94ED0B0E942A0E8823EA
:1009100019F080E00E945F0D10925F01E4E8F0E0C2
:100920001182108280915D018F5F80935D0109C00B
:10093000809180018A3229F410925D0181E08093D8
:100940005E01CF91DF91FF91EF91BF91AF919F91A8
:100950008F917F916F915F914F913F912F910F9068
:1009600000925B000F900FBE0F901F9018951F9282
:100970000F920FB60F9200905B000F9211242F93ED
:100980003F938F939F93EF93FF93DF93CF93CDB7D5
:10099000DEB780915F018F5F80935F0180915F017F
:1009A0008739F0F010925F0110925C0115C08091C0
:1009B0005C01282F30E080915C01882F90E0FC01E1
:1009C000E25EFE4F8081F901E05AFE4F8083809104
:1009D0005C018F5F80935C0180915C01843038F30F
:1009E000CF91DF91FF91EF919F918F913F912F9147
:1009F0000F9000925B000F900FBE0F901F90189504
:100A0000DF93CF9300D00F92CDB7DEB789837B837E
:100A10006A83898182958F70882F90E0FC01EA5D5E
:100A2000FE4F8081EA81FB8180838A819B81DC018A
:100A300011968981882F90E08F709070FC01EA5D9B
:100A4000FE4F80818C938A819B81FC0132961082BB
:100A50000F900F900F90CF91DF9108950F931F93F8
:100A6000DF93CF9300D000D00F92CDB7DEB79A833B
:100A700089837C836B8380E40E941407E981FA8177
:100A800080810E94140789819A81FC0131968081BE
:100A90000E9414070AC0EB81FC8180810E94140728
:100AA0008B819C8101969C838B83EB81FC8180816F
:100AB000882389F78DE00E9414078AE00E941407BA
:100AC0001092810132C080918101082F10E00E94B4
:100AD000FE06F801EE57FE4F808380918101882F3A
:100AE00090E0FC01EE57FE4F80810E943407809118
:100AF00081018823A9F080918101882F90E00197DE
:100B0000FC01EE57FE4F80818D3051F480918101C0
:100B1000882F90E0FC01EE57FE4F80818A3049F02B
:100B2000809181018F5F80938101809181018A3062
:100B300050F280918301853439F4809184018235AB
:100B400019F481E08D8301C01D828D810F900F907B
:100B50000F900F900F90CF91DF911F910F910895FB
:100B60000F931F93DF93CF9300D000D00F92CDB798
:100B7000DEB79A8389837C836B8380E40E941407A9
:100B8000E981FA8180810E94140789819A81FC01A0
:100B9000319680810E9414070AC0EB81FC8180811C
:100BA0000E9414078B819C8101969C838B83EB812F
:100BB000FC818081882389F78FE20E94140787E5F2
:100BC0000E9414078DE00E9414078AE00E94140717
:100BD0001092810132C080918101082F10E00E94A3
:100BE000FE06F801EE57FE4F808380918101882F29
:100BF00090E0FC01EE57FE4F80810E943407809107
:100C000081018823A9F080918101882F90E00197CC
:100C1000FC01EE57FE4F80818D3051F480918101AF
:100C2000882F90E0FC01EE57FE4F80818A3049F01A
:100C3000809181018F5F80938101809181018A3051
:100C400050F280918301853439F48091840182359A
:100C500019F481E08D8301C01D828D810F900F906A
:100C60000F900F900F90CF91DF911F910F910895EA
:100C7000DF93CF93CDB7DEB72D970FB6F894DEBFD5
:100C80000FBECDBF9C838B836D835F834E838B812F
:100C90009C819D878C878C859D85009731F08C8504
:100CA0009D8581309105B1F164C0E1ECF0E01082E6
:100CB000A2ECB0E0E2ECF0E0808186608C931A82D6
:100CC000198205C089819A8101969A8389838981D5
:100CD0009A8123E188389207ACF3E1ECF0E08D8152
:100CE0008083E5ECF0E08E819F81892F99278083B6
:100CF000E4ECF0E08E818083E0ECF0E08081A0EC19
:100D0000B0E0E0ECF0E08081837E8C93E6ECF0E0F4
:100D1000108234C0EDECF0E08E819F81892F9927FD
:100D20008083ECECF0E08E8180831A82198205C00A
:100D300089819A8101969A83898389819A8123E1A5
:100D400088389207ACF3A9ECB0E0E9ECF0E09081D0
:100D50008D81892B8C93E8ECF0E08081A8ECB0E0E9
:100D6000E8ECF0E08081837E8C93EEECF0E0108282
:100D700005C08FEF9FEF9987888702C01986188674
:100D8000888599852D960FB6F894DEBF0FBECDBF2E
:100D9000CF91DF910895DF93CF9300D000D000D0A2
:100DA000CDB7DEB79A8389837C836B835E834D8363
:100DB00089819A819923CCF089819A818230910529
:100DC000A4F429813A81C901880F991F880F991FBE
:100DD000880F991F820F931F81579E4F4D815E810F
:100DE0002B813C81B9010E94C30826960FB6F89466
:100DF000DEBF0FBECDBFCF91DF910895DF93CF93BC
:100E0000CDB7DEB7E0ECF0E080818823DCF7A0EC22
:100E1000B0E0E0ECF0E080818F778C93E6ECF0E0DE
:100E20008081CF91DF910895DF93CF930F92CDB75B
:100E3000DEB78983E0ECF0E08081882F90E080725B
:100E400090700097B9F3E6ECF0E089818083A0EC24
:100E5000B0E0E0ECF0E080818F7D8C9380E090E06A
:100E60000F90CF91DF910895DF93CF930F92CDB77D
:100E7000DEB7898389818A30A1F4E8ECF0E08081D3
:100E8000882F90E0807290700097B9F3EEECF0E05C
:100E90008DE08083A8ECB0E0E8ECF0E080818F7D0D
:100EA0008C93E8ECF0E08081882F90E08072907065
:100EB0000097B9F3EEECF0E089818083A8ECB0E014
:100EC000E8ECF0E080818F7D8C9380E090E00F90E3
:100ED000CF91DF910895DF93CF9300D00F92CDB7DC
:100EE000DEB78B831A821982EFE5F0E08081809370
:100EF0008C01F8948B818A3061F48FE891E06DE089
:100F00000E94F108009729F48FEF9FEF9A8389835D
:100F100012C08FE891E06B810E94F108009721F4E4
:100F20008FEF9FEF9A838983A1ECB0E0E1ECF0E0D2
:100F3000808180628C93EFE5F0E080918C0180836A
:100F400089819A810F900F900F90CF91DF91089532
:100F5000DF93CF9300D00F92CDB7DEB78B831A8289
:100F60001982EFE5F0E0808180938C01F8948B8109
:100F70008A3061F488E991E06DE00E94F108009701
:100F800029F48FEF9FEF9A83898312C088E991E05B
:100F90006B810E94F108009721F48FEF9FEF9A83F5
:100FA0008983A9ECB0E0E9ECF0E0808180628C9369
:100FB000EFE5F0E080918C01808389819A810F9028
:100FC0000F900F90CF91DF9108951F920F920FB65F
:100FD0000F9200905B000F9211242F933F934F9339
:100FE0005F936F937F938F939F93AF93BF93EF9391
:100FF000FF93DF93CF930F92CDB7DEB78FE891E0E9
:101000009E012F5F3F4FB9010E944409009761F094
:10101000E6ECF0E089818083A0ECB0E0E0ECF0E069
:1010200080818F7D8C930EC0A1ECB0E0E1ECF0E00C
:1010300080818F7D8C93A0ECB0E0E0ECF0E08081CB
:101040008F7D8C930F90CF91DF91FF91EF91BF91A6
:10105000AF919F918F917F916F915F914F913F9150
:101060002F910F9000925B000F900FBE0F901F907A
:1010700018951F920F920FB60F9200905B000F927F
:1010800011242F933F934F935F936F937F938F938D
:101090009F93AF93BF93EF93FF93DF93CF930F9201
:1010A000CDB7DEB788E991E09E012F5F3F4FB901D0
:1010B0000E944409009761F0EEECF0E089818083A2
:1010C000A8ECB0E0E8ECF0E080818F7D8C930EC05E
:1010D000A9ECB0E0E9ECF0E080818F7D8C93A8EC86
:1010E000B0E0E8ECF0E080818F7D8C930F90CF91A1
:1010F000DF91FF91EF91BF91AF919F918F917F9180
:101100006F915F914F913F912F910F9000925B00F3
:101110000F900FBE0F901F9018951F920F920FB651
:101120000F9200905B000F9211242F933F934F93E7
:101130005F936F937F938F939F93AF93BF93EF933F
:10114000FF93DF93CF93CDB7DEB7EEECF0E02081D5
:1011500088E991E0622F0E94F108CF91DF91FF9121
:10116000EF91BF91AF919F918F917F916F915F911F
:101170004F913F912F910F9000925B000F900FBE07
:101180000F901F901895DF93CF9300D000D000D020
:10119000CDB7DEB79A8389837C836B835E834D836F
:1011A000E981FA818B819C8191838083E981FA8135
:1011B0008D819E8197838683E981FA8113821282D1
:1011C000E981FA8115821482E981FA8181E08087C0
:1011D00026960FB6F894DEBF0FBECDBFCF91DF913C
:1011E0000895DF93CF9300D000D00F92CDB7DEB734
:1011F0009A8389836B83E981FA818085882371F4DE
:10120000E981FA8122813381E981FA8184819581A2
:101210002817390719F41D821C822CC0E981FA8134
:1012200020813181E981FA8184819581F901E80F7A
:10123000F91F8B818083E981FA81848195810196F0
:10124000E981FA8195838483E981FA81248135815A
:10125000E981FA81868197812817390721F4E9818C
:10126000FA8115821482E981FA81108681E090E08A
:101270009D838C838C819D810F900F900F900F9098
:101280000F90CF91DF910895DF93CF9300D000D0DE
:1012900000D0CDB7DEB79A8389837C836B83E981E5
:1012A000FA8180858823D9F5E981FA81208131810D
:1012B000E981FA8182819381F901E80FF91F808128
:1012C000EB81FC818083E981FA818281938101969F
:1012D000E981FA8193838283E981FA8122813381D2
:1012E000E981FA81868197812817390721F4E981FC
:1012F000FA8113821282E981FA8122813381E981A4
:10130000FA81848195812817390721F4E981FA81CE
:1013100081E0808781E090E09E838D8305C0EB8132
:10132000FC8110821E821D828D819E8126960FB6C1
:10133000F894DEBF0FBECDBFCF91DF910895DF934C
:10134000CF9300D0CDB7DEB79A838983E981FA8144
:101350008085882F90E00F900F90CF91DF910895B6
:10136000DF93CF9300D000D00F92CDB7DEB7898343
:1013700088EB90E09B838A838981282F30E080E28C
:101380009EE4B9010E943C0ECB0140979D838C8363
:10139000EC81FD81FF232CF48C819D8101969D833E
:1013A0008C838C819D8195958795EA81FB818083D3
:1013B000E9EBF0E01082ECEBF0E084E080830F904A
:1013C0000F900F900F900F90CF91DF910895DF93C2
:1013D000CF9300D00F92CDB7DEB79A838983F8946C
:1013E000ECEBF0E084EA8083ECEBF0E08081882392
:1013F000DCF7E9EBF0E08081882F90E0887F907047
:101400008830910509F058C0ABEBB0E0E981FA8172
:101410008081880F8C93ECEBF0E084E88083ECEB28
:10142000F0E080818823DCF7E9EBF0E08081882F11
:1014300090E0887F90708831910509F03DC010924E
:101440008D0127C0ABEBB0E0E981FA8121813281C7
:1014500080918D01882F90E0F901E80FF91F8081BC
:101460008C93ECEBF0E084E88083ECEBF0E080819F
:101470008823DCF7E9EBF0E08081882F90E0887F1B
:10148000907088329105C1F480918D018F5F8093B7
:101490008D0180918D01282F30E0E981FA818381CF
:1014A00094812817390770F2ECEBF0E084E980832F
:1014B000789481E08B8306C0ECEBF0E084E98083D4
:1014C00078941B828B810F900F900F90CF91DF91BA
:1014D0000895DF93CF9300D00F92CDB7DEB79A83F4
:1014E0008983F894ECEBF0E084EA8083ECEBF0E0A5
:1014F00080818823DCF7E9EBF0E08081882F90E0A1
:10150000887F90708830910509F080C0ABEBB0E027
:10151000E981FA818081882F90E0880F991F81608E
:101520008C93ECEBF0E084E88083ECEBF0E08081DE
:101530008823DCF7E9EBF0E08081882F90E0887F5A
:1015400090708034910509F061C010928D0128C01F
:10155000ECEBF0E084EC8083ECEBF0E0808188231E
:10156000DCF7E9EBF0E08081882F90E0887F9070D5
:101570008035910509F04AC0E981FA8125813681DB
:1015800080918D01882F90E0D901A80FB91FEBEB56
:10159000F0E080818C9380918D018F5F80938D012D
:1015A00080918D01282F30E0E981FA818781908533
:1015B00001972817390760F2ECEBF0E084E88083AC
:1015C000ECEBF0E080818823DCF7E9EBF0E0808150
:1015D000882F90E0887F907088359105B9F4E98173
:1015E000FA812581368180918D01882F90E0D90183
:1015F000A80FB91FEBEBF0E080818C93ECEBF0E0EF
:1016000084E98083789481E08B8306C0ECEBF0E082
:1016100084E9808378941B828B810F900F900F90C8
:10162000CF91DF910895DF93CF9300D000D0CDB755
:10163000DEB79A8389836B83ECEBF0E084EA8083E6
:10164000ECEBF0E080818823DCF7ABEBB0E0E981E4
:10165000FA818081880F8C93ECEBF0E084E8808342
:10166000ECEBF0E080818823DCF7E9EBF0E08081AF
:10167000882F90E0887F90708034910509F0A0C099
:10168000EBEBF0E08B818083ECEBF0E084E880838F
:10169000ECEBF0E080818823DCF7E9EBF0E080817F
:1016A000882F90E0887F90708832910509F088C07B
:1016B000ECEBF0E084EA8083ECEBF0E080818823BF
:1016C000DCF7E9EBF0E08081882F90E0887F907074
:1016D0008031910509F074C0ABEBB0E0E981FA818B
:1016E0008081882F90E0880F991F81608C93ECEBAC
:1016F000F0E084E88083ECEBF0E080818823DCF785
:1017000010928D0128C0ECEBF0E084EC8083ECEBD0
:10171000F0E080818823DCF7E9EBF0E08081882F1E
:1017200090E0887F90708035910509F049C0E9818B
:10173000FA812581368180918D01882F90E0D90131
:10174000A80FB91FEBEBF0E080818C9380918D01A5
:101750008F5F80938D0180918D01282F30E0E9818A
:10176000FA818781908501972817390760F2ECEBA1
:10177000F0E084E88083ECEBF0E080818823DCF704
:10178000E9EBF0E08081882F90E0887F90708835C9
:101790009105B1F4E981FA812581368180918D012D
:1017A000882F90E0D901A80FB91FEBEBF0E0808102
:1017B0008C93ECEBF0E084E9808381E08C8305C0BE
:1017C000ECEBF0E084E980831C828C810F900F9019
:1017D0000F900F90CF91DF910895DF93CF9300D0BA
:1017E000CDB7DEB789836A838981833058F58A81D2
:1017F0008823A9F0A2E2B0E0E2E2F0E08081482F85
:101800008981282F30E081E090E0022E02C0880F0D
:10181000991F0A94E2F7809584238C9313C0A2E267
:10182000B0E0E2E2F0E08081482F8981282F30E0AB
:1018300081E090E0022E02C0880F991F0A94E2F71F
:10184000842B8C930F900F90CF91DF910895DF93AD
:10185000CF93CDB7DEB7A1E2B0E0E1E2F0E0808166
:1018600087608C93A2E2B0E0E2E2F0E080818760E2
:101870008C93CF91DF910895DF93CF9300D0CDB7B4
:10188000DEB79A83898389819A8124E000002A95B2
:10189000E9F70197D1F720938E010F900F90CF9128
:1018A000DF910895DF93CF9300D00F92CDB7DEB7CD
:1018B0009A83898304C088EE93E00E943C0C1B82CB
:1018C00089819A81009711F081E08B8389819A81C7
:1018D00001979A8389838B81882369F70F900F90F2
:1018E0000F90CF91DF910895DF93CF9300D000D078
:1018F00000D0CDB7DEB79B838A836C834D832E8364
:1019000019828E81853050F58D81853614F084E6FC
:101910008D838D818C3914F48CE98D838C81823098
:1019200021F48D81819589830DC08C81882311F4E8
:10193000198208C08C81833019F48FE7898302C033
:101940008D818983EA81FB81218132818E81882F7B
:1019500090E0F901E80FF91F8981808326960FB680
:10196000F894DEBF0FBECDBFCF91DF910895DF9316
:10197000CF9300D000D00F92CDB7DEB79A83898382
:101980007C836B834D838D818823A9F08B819C811F
:1019900026E030E0B9010E943C0ECB019C838B8392
:1019A000E981FA8181819281FC0134968B818F716A
:1019B0008064808307C0E981FA8181819281FC0182
:1019C000349610820F900F900F900F900F90CF9140
:1019D000DF910895DF93CF9300D000D0CDB7DEB76D
:1019E0009A8389836B834C838C81882341F0E981BE
:1019F000FA810180F281E02D8B81808306C0E9812C
:101A0000FA810180F281E02D10820F900F900F90EB
:101A10000F90CF91DF910895DF93CF93CDB7DEB7CD
:101A2000A4E2B0E0E4E2F0E08081807F8C93A5E264
:101A3000B0E0E5E2F0E080818F608C93CF91DF91A0
:101A40000895DF93CF9300D0CDB7DEB78A83E3E26A
:101A5000F0E08081809589838981282F30E08A8118
:101A6000882F90E00197A90102C0559547958A9566
:101A7000E2F7CA0189838981882F90E08170907094
:101A80000F900F90CF91DF910895DF93CF93CDB753
:101A9000DEB7E3E2F0E080818095869586958370DD
:101AA000CF91DF910895DF93CF93CDB7DEB7E3E217
:101AB000F0E0808180958370CF91DF910895DF936E
:101AC000CF930F92CDB7DEB78983898191E08927C3
:101AD000882371F48091360191E08927882341F4AD
:101AE000A2E2B0E0E2E2F0E0808188608C930BC07B
:101AF00080913601882339F0A2E2B0E0E2E2F0E022
:101B00008081877F8C930F90CF91DF910895DF9331
:101B1000CF93CDB7DEB7A1E2B0E0E1E2F0E08081A3
:101B200088608C93A2E2B0E0E2E2F0E08081877FFF
:101B30008C93CF91DF910895DF93CF930F92CDB720
:101B4000DEB7898381E069810E94ED0B998181E094
:101B50008927882F90E00E945F0D998181E0892775
:101B6000882331F0E8E2F0E084E08083F894FFCF4E
:101B70000F90CF91DF910895DF93CF9300D000D0E5
:101B8000CDB7DEB79B838A836C838C81813071F4FF
:101B9000EA81FB810180F281E02D8AE6808381E089
:101BA0000E945F0D81E08093A10116C08C8182307C
:101BB00069F4EA81FB810180F281E02D85E5808373
:101BC00080E00E945F0D1092A10106C0EA81FB81B6
:101BD0000180F281E02D10828A819B810E94690A36
:101BE0008983EA81FB810580F681E02D80818A3638
:101BF00031F481E00E945F0D81E08093A101EA81D0
:101C0000FB810580F681E02D80818535D9F4A0E641
:101C1000B0E0E0E6F0E0808188608C93A0E6B0E080
:101C2000E0E6F0E080818F7B8C93A89588E190E0DE
:101C300028E00FB6F894A895809360000FBE20931B
:101C40006000FFCF89810F900F900F900F90CF9180
:101C5000DF910895DF93CF930F92CDB7DEB78091D8
:101C6000A101882311F0198202C081E08983898152
:101C70000F90CF91DF91089597FB092E07260AD088
:101C800077FD04D00CD006D000201AF47095619531
:101C90007F4F0895F6F7909581959F4F0895AA1B61
:101CA000BB1B51E107C0AA1FBB1FA617B70710F047
:101CB000A61BB70B881F991F5A95A9F78095909579
:0A1CC000BC01CD010895F894FFCF98
:101CCA00454900303800444900383000474900305F
:101CDA0034004348003245004252003438000000C4
:101CEA00777744523D00303132333435363738391C
:081CFA0041424344454601004C
:00000001FF
