:100000000C9446000C9465000C9465000C946500FB
:100010000C9465000C9465000C9465000C946500CC
:100020000C9465000C9465000C9465000C946500BC
:100030000C9465000C9465000C9465000C946500AC
:100040000C9465000C9465000C9465000C9497105A
:100050000C9465000C9465000C9465000C9465008C
:100060000C9465000C9465000C9465000C9465007C
:100070000C9465000C9465000C9465000C94D310EE
:100080000C9465000C9465000C94650011241FBE4F
:10009000CFEFD0E1DEBFCDBF11E0A0E0B1E0EAE8F4
:1000A000F6E200E00BBF02C007900D92A632B10746
:1000B000D9F713E0A6E2B1E001C01D92A732B10763
:1000C000E1F70E943E0A0C9443130C9400008EEF5B
:1000D00081BB82E882BB82E082B9109261008FEF1F
:1000E00080936200089585B7806C85BFEDE6F0E0EF
:1000F00080818E608083ECE6F0E080818068808380
:10010000089580E090E89093C4028093C30280E059
:1001100090EC9093D6028093D5020895E091C302AB
:10012000F091C402808392E3892F8A95F1F7E091E0
:10013000D502F091D60280819A95F1F70895E09169
:10014000C302F091C402808382E3982F9A95F1F75D
:10015000E091D502F091D60260838A95F1F7089577
:10016000DB0114161506CCF4E091C302F091C40231
:10017000808382E38A95F1F792E309C0E091D5028A
:10018000F091D60280818D93892F8A95F1F74150A5
:1001900050408FEF4F3F580789F70895DB01141641
:1001A0001506CCF4E091C302F091C402808382E38F
:1001B0008A95F1F792E309C0E091D502F091D60259
:1001C0008D918083892F8A95F1F7415050408FEFB0
:1001D0004F3F580789F708952F923F924F925F92B1
:1001E0006F927F928F929F92AF92BF92CF92DF9247
:1001F000EF92FF920F931F93CF93DF93EC014B018C
:100200008A018B81682E77248C819E81892B8C8337
:10021000E091C302F091C40281E0808392E3892FD0
:100220008A95F1F7E091D502F091D60280E18083C2
:10023000892F8A95F1F74881E091C302F091C402B9
:1002400084E08083892F8A95F1F7E091D502F091BF
:10025000D60240839A95F1F72130310511F420ED53
:1002600002C029812061E091C302F091C40283E0C1
:10027000808382E3982F9A95F1F7E091D502F0916F
:10028000D60220838A95F1F7780132E3B32E20E578
:10029000222E23EC322E92E3A92E82EE482E84E009
:1002A000582E8A8190E067018E159F050CF46C0131
:1002B0008114910461F0101611064CF4B8016E1906
:1002C0007F09680D791D80E1A6010E94CE00E091B2
:1002D000C302F091C40282E080838B2D8A95F1F7EE
:1002E000E091D502F091D602C0828B2D8A95F1F76C
:1002F00020E030E04AC08C81E091C302F091C4025A
:1003000010829B2D9A95F1F7E091D502F091D602DB
:1003100080838B2D8A95F1F7C1010197F1F7E09168
:10032000C302F091C4029DE090838B2D8A95F1F772
:10033000E091D502F091D60280819B2D9A95F1F73C
:1003400080FFEDCFE091C302F091C40283E080838F
:100350008A2D8A95F1F7E091D502F091D60280813D
:100360009A2D9A95F1F7809326018091260187FFB7
:1003700003C00EEF1FEF1EC08091260180FD09C053
:10038000C2010197F1F72F5F3F4F261537050CF497
:10039000B2CF8091260180FD03C00FEF1FEF0AC08E
:1003A000EC18FD088C8190E489278C831E141F04AF
:1003B0000CF477CFC801DF91CF911F910F91FF907F
:1003C000EF90DF90CF90BF90AF909F908F907F90F5
:1003D0006F905F904F903F902F9008952F923F9293
:1003E0004F925F926F927F928F929F92AF92BF9245
:1003F000CF92DF92EF92FF920F931F93CF93DF93F1
:100400008C012B014A01FC018381282E3324858134
:100410009681892B85839081E091C302F091C4027B
:100420008CE0808322E3822F8A95F1F7E091D50258
:10043000F091D6029083822F8A95F1F7F80191818D
:100440009069E091C302F091C4028BE08083822F17
:100450008A95F1F7E091D502F091D60290832A9522
:10046000F1F77A0170E1A72EB12C62E3762E52E308
:10047000652EF801828190E067018E159F050CF4CE
:100480006C01C6018A0D9B1D8F3F910521F01CF068
:1004900040E1A42EB12C4A2DE091C302F091C40298
:1004A00089E08083872D8A95F1F7E091D502F0915C
:1004B000D602A082872D8A95F1F7E091C302F091D0
:1004C000C4029AE09083872D8A95F1F7E091D502D6
:1004D000F091D602C082872D8A95F1F720E030E0B6
:1004E00044C0F8018581E091C302F091C40298E014
:1004F0009083972D9A95F1F7E091D502F091D6026D
:100500008083872D8A95F1F784EF91E00197F1F7C9
:10051000E091C302F091C4028DE08083872D8A951B
:10052000F1F7E091D502F091D6028081972D9A954E
:10053000F1F781FFEDCFE091C302F091C4029BE09F
:10054000908382E38A95F1F7E091D502F091D6028B
:10055000E08182E38A95F1F7E7FF03C04EEF5FEF9A
:1005600042C0E0FD09C02F5F3F4F221533050CF458
:10057000B8CF4FEF5FEF37C0E091C302F091C402F4
:100580008CE08083862D8A95F1F7E091D502F09179
:10059000D6028081962D9A95F1F7E601C81BD10904
:1005A0004114510461F0181419044CF4B4016E198B
:1005B0007F09640D751D842FA6010E94B000EC1AFE
:1005C000FD0AF8018581F0E48F27F80185831E1468
:1005D0001F0434F4CC15DD0519F4AC0EBD1E49CF53
:1005E000A4014E195F09CA01DF91CF911F910F91AC
:1005F000FF90EF90DF90CF90BF90AF909F908F9043
:100600007F906F905F904F903F902F90089588EA71
:1006100091E60197F1F7E091C302F091C4028FE0F7
:10062000808392E3892F8A95F1F7E091D502F091CA
:10063000D60280E88083892F8A95F1F7E091C30282
:10064000F091C40225E02083892F8A95F1F7E0918B
:10065000D502F091D60288E08083892F8A95F1F740
:10066000ECE4FDE13197F1F7E091C302F091C402AF
:100670002083892F8A95F1F7E091D502F091D60277
:1006800010829A95F1F790E05DE032E34FEFE09150
:10069000C302F091C4026DE0508322E3832F8A9558
:1006A000F1F7E091D502F091D6024083832F8A952D
:1006B000F1F79F5F943659F7E091C302F091C402BD
:1006C0006083822F8A95F1F7E091D502F091D602EE
:1006D000E081822F8A95F1F7E6FF15C0E091C30211
:1006E000F091C40286E08083822F8A95F1F7E09131
:1006F000D502F091D60280E18083822F8A95F1F7AE
:1007000020E030E0A9C0A091C302B091C402E7FF8D
:1007100046C08EE08C93822F8A95F1F7E091D50246
:10072000F091D60280EE8083822F8A95F1F7E091D6
:10073000C302F091C4028FE08083822F8A95F1F783
:10074000E091D502F091D6028EEA8083822F8A95BD
:10075000F1F7E091C302F091C40285E08083822F1B
:100760008A95F1F7E091D502F091D60281E080837D
:10077000822F8A95F1F7E091C302F091C402608361
:10078000822F8A95F1F7E091D502F091D6028FEF92
:100790008083822F8A95F1F722E030E04BC08EE013
:1007A0008C93822F8A95F1F7E091D502F091D602D1
:1007B00080EE8083822F8A95F1F7E091C302F09159
:1007C000C4028FE08083822F8A95F1F7E091D502F1
:1007D000F091D6028EEE8083822F8A95F1F7E09118
:1007E000C302F091C40285E08083822F8A95F1F7DD
:1007F000E091D502F091D60281E28083822F8A9522
:10080000F1F790E04DE022E33FEFE091C302F09179
:10081000C4024083822F8A95F1F7E091D502F091CE
:10082000D6023083822F8A95F1F79F5F943169F762
:1008300021E030E0E091C302F091C40286E08083C1
:1008400092E3892F8A95F1F7E091D502F091D602D3
:1008500080E180839A95F1F7C901089520EF30E097
:1008600042E3822F8195E091C302F091C40280831C
:10087000942F9A95F1F7E091D502F091D60220835A
:10088000942F9A95F1F7E091C302F091C40280830E
:10089000842F8A95F1F7E091D502F091D6028081FC
:1008A000942F9A95F1F790E08217930719F02FEFA4
:1008B0003FEF07C0215030402130310591F620E054
:1008C00030E0C901089580E090E89093C4028093DD
:1008D000C30280E090EC9093D6028093D5021092F0
:1008E0002801109227010E942E0408951092AC0155
:1008F0001092AB0181E090E09093AE018093AD0146
:1009000010922A01109229010E9463040895109206
:10091000AC011092AB0181E090E09093AE01809326
:10092000AD010895EF920F931F93FC016183428301
:100930002383012B11F480E001C080E88683E082EC
:100940001F910F91EF900895CF92DF92EF92FF9257
:100950000F931F93CF93DF938C017B016A0187E094
:10096000F8018483C80148E050E021E030E00E94B3
:10097000EC00EC0197FD4BC0F70146815781411512
:100980005105B1F1C114D10499F1808187FF17C0DD
:1009900083E4F8018583C801B6010E94EE01EC01F1
:1009A00097FD35C087E4F8018483C80160E070E0FA
:1009B00040E050E020E030E00E94EC0016C087E408
:1009C000F8018483C801B60120E030E00E94EC0009
:1009D000EC0197FD1CC083E4F8018583C80160E049
:1009E00070E040E050E00E94EE01AE01EC010DC06D
:1009F00083E4F8018583C80160E070E040E050E0E6
:100A00000E94EE01EC0140E050E0D7FFEA01CE0188
:100A1000DF91CF911F910F91FF90EF90DF90CF90DA
:100A20000895FC0111820E94A4040895EF92FF92A0
:100A30000F93DF93CF93CDB7DEB728970FB6F89417
:100A4000DEBF0FBECDBFDC01F90180E88983862FB0
:100A50008152823010F481E8898386E08A83202FD6
:100A600030E0962F80E0282B392B3C832B83FE82AD
:100A7000ED82F887EF83CD01BE016F5F7F4F0E944B
:100A8000110528960FB6F894DEBF0FBECDBFCF91EB
:100A9000DF910F91FF90EF900895EF92FF920F93E7
:100AA0001F93DF93CF93CDB7DEB728970FB6F89497
:100AB000DEBF0FBECDBF7C018B01198285E08A832A
:100AC0007C836B831E821D8218861F82C701BE0134
:100AD0006F5F7F4F40E050E00E9411059C0197FD41
:100AE00009C0F801E55DFE4F81E08083F7011087C2
:100AF00007830083C90128960FB6F894DEBF0FBEA6
:100B0000CDBFCF91DF911F910F91FF90EF9008958E
:100B1000FC0160830895DF93CF93CDB7DEB72897AC
:100B20000FB6F894DEBF0FBECDBF198229E02A832D
:100B30007C836B831E821D8218861F82BE016F5FBD
:100B40007F4F40E050E00E94110528960FB6F894C0
:100B5000DEBF0FBECDBFCF91DF910895DF93CF935E
:100B6000CDB7DEB728970FB6F894DEBF0FBECDBF66
:100B7000AB0120E8298328E02A831C821B821E8285
:100B80001D8221E030E038872F83BE016F5F7F4FE9
:100B90000E94110528960FB6F894DEBF0FBECDBF98
:100BA000CF91DF910895AF92BF92CF92DF92EF92F3
:100BB000FF920F93DF93CF930F92CDB7DEB76C0107
:100BC000672B41F04130510529F461E070E024E1E8
:100BD00030E004C060E070E02CE030E0D601119617
:100BE0001C92119788E012968C93129713962C936F
:100BF000672B11F480E001C080E8F6018683108243
:100C000052874187FBE0AF2EB12CAC0CBD1CC60156
:100C100061E0A50128E030E000E0EE24FF240E941E
:100C2000160597FD81C0D60152968C915297119668
:100C30001C92119712968C93129784E113968C93C1
:100C4000139716961C9216971C92C60161E070E0ED
:100C50000E944D058F5F9F4F09F466C0C60161E099
:100C6000A50122E130E00E94160597FD5DC0E7ED89
:100C7000AE2EE2E0BE2EC60162E0A50129E030E022
:100C80000E94160597FD50C0F601B68EA58E2091E4
:100C9000D9023091DA02C60162E0A5010E94160570
:100CA00097FD42C0D6015D96ED91FC915E978081E3
:100CB000E80FF11D9096FC93EE935F971F968C9131
:100CC0001F97882371F48581833059F48081E80F60
:100CD000F11D9296FC93EE9391978081E80FF11DA0
:100CE0000CC0F60112A211A214A213A2078CF0A14B
:100CF000E02D8081E80FF11DD6019696FC93EE93CE
:100D00009597D6015D96ED91FC915E976581C60140
:100D100070E00E948B05C601BE016F5F7F4F0E948D
:100D2000AE0520E030E002C02FEF3FEFC9010F9089
:100D3000CF91DF910F91FF90EF90DF90CF90BF9018
:100D4000AF900895EF92FF920F931F93DF93CF938D
:100D5000CDB7DEB728970FB6F894DEBF0FBECDBF74
:100D600071EA798371E07A8310E0F62FE0E00E2BD0
:100D70001F2B1C830B83FE82ED8238872F83BE01DD
:100D80006F5F7F4F0E94110528960FB6F894DEBF63
:100D90000FBECDBFCF91DF911F910F91FF90EF90CC
:100DA0000895CF92DF92EF92FF920F931F93CF930C
:100DB000DF93EC017A016901CB0101970F9708F0ED
:100DC00051C0EF8DF8A18481082F10E020E030E0C1
:100DD00040E050E010C0ADA1BEA1FD01E40FF51F41
:100DE000828190E08F709070495F5F4F8617970700
:100DF00031F02F5F3F4F201731076CF333C0C9012B
:100E000013E0880F991F1A95E1F7821B930BA80F27
:100E1000B91F16968C91882329F1D0933102C09383
:100E200030027093330260933202D0923502C09246
:100E30003402F0922D02E0922C02F0922F02E09206
:100E40002E028091AB019091AC0190933702809378
:100E500036028CE292E09093AC018093AB0120E0EB
:100E600030E002C02FEF3FEFC901DF91CF911F911A
:100E70000F91FF90EF90DF90CF900895CF92DF9287
:100E8000EF92FF920F93CF93DF936C0110920F02BA
:100E9000C0E0D0E0D6015F96ED91FC919097E280A2
:100EA000C60163E070E040E152E021E130E002EF92
:100EB000FF240E94A20697FF07C02196C330D105E8
:100EC00049F72FEF3FEF0AC0C60161E070E04FE045
:100ED00050E025E837E00E94D1069C01C901DF916E
:100EE000CF910F91FF90EF90DF90CF900895FC018C
:100EF00083E08583CF010E94EE010895FC016183A8
:100F0000BA01A9010E9477070895FC0180910F02A0
:100F10006FEA71E0680F711D81E08183CF0140E3CA
:100F200050E00E947707089520910F0210920F025F
:100F3000213019F081E080930F0230E021553E4FBF
:100F4000C90108952091290210922902213019F037
:100F500081E08093290210922B0210922A0230E045
:100F6000220F331F220F331F2F5D3D4FC9010895FC
:100F7000AF92BF92CF92DF92EF92FF920F931F93A7
:100F8000CF93DF9390E001E0C4EDD0E37DE0E72E66
:100F900012E3FF24FA9411C0E091C302F091C4025D
:100FA000E082812F8A95F1F7E091D502F091D60287
:100FB000F082812F8A95F1F79F5F943168F36091F9
:100FC0000F0270E061557E4F0093910280E992E03C
:100FD00040E350E00E947707E0910F0210920F0269
:100FE000E13011F000930F02F0E0EF54FE4FF09368
:100FF000C202E093C102828180FD05C0CE0101974B
:10100000F1F790E0C9CF80E290E10E941D1185E2E6
:1010100090E10E941811C0E0D0E012E3009B22C0D2
:10102000E0B1E095E295E695E695E370F0E0E050FA
:10103000FF4F80810E94A312E0B180B1809582951C
:101040008370E095E295E695E695E370F0E0EE0FAB
:10105000FF1FEE0FFF1FE80FF11DEC5FFE4F8081B9
:101060000E947C12812F8A95F1F72196C530D10517
:10107000A9F682B3846582BB90912902109229025D
:10108000913019F081E08093290210922B02109286
:101090002A02892F90E0880F991F880F991F8F5D72
:1010A0009D4F9093C0028093BF02C0E0D0E044E225
:1010B000C42E44EFD42E12E33DE0B32EAA24AA940A
:1010C00001E02CE4E22E2DE1F22E209711F400999C
:1010D00035C0009903C0C1E0D0E030C0C60101971F
:1010E000F1F7C0E0D0E0E0B1E095E295E695E69555
:1010F000E370F0E0E050FF4F80810E94A312E0B166
:1011000080B1809582958370E095E295E695E695AD
:10111000E370F0E0EE0FFF1FEE0FFF1FE80FF11D71
:10112000EC5FFE4F80810E947C12812F8A95F1F73F
:101130002196C530D105B9F6C0E0D0E090E0E0914D
:10114000C302F091C402B082812F8A95F1F7E09139
:10115000D502F091D602A082812F8A95F1F79F5F88
:10116000943169F760910F0270E061557E4F0093F2
:10117000910280E992E040E350E00E947707E0911D
:101180000F0210920F02E13011F000930F02F0E015
:10119000E155FE4F3296F093C202E093C1023297BE
:1011A000A091BF02B091C0029281991F9927991F07
:1011B0008C918E7F892B8C93A091BF02B091C0023D
:1011C000E091C102F091C202908192959695927041
:1011D0008C918D7F892B8C93A091BF02B091C0021E
:1011E000E091C102F091C2029081969596959695F4
:1011F00094708C918B7F892B8C93A091BF02B091BE
:10120000C002E091C102F091C2029081969598705F
:101210008C91877F892B8C93A091BF02B091C002E3
:10122000E091C102F091C2029181991F9927991F03
:101230009295907F8C918F7E892B8C93A091BF0289
:10124000B091C002E091C102F091C20291819695E5
:1012500090728C918F7D892B8C93A091BF02B0915D
:10126000C002E091C102F091C2029181990F907485
:101270008C918F7B892B8C93A091BF02B091C0027F
:10128000E091C102F091C202918192959F70979571
:10129000992797958C918F77892B8C93A091BF027A
:1012A000B091C002E091C102F091C2029181969585
:1012B00096959695917011968C9111978E7F892BAA
:1012C00011968C93A091BF02B091C002E091C1022F
:1012D000F091C20291819695927011968C9111971E
:1012E0008D7F892B11968C93A091BF02B091C00283
:1012F000E091C102F091C2029081990F990F990F6C
:10130000907411968C9111978F7B892B11968C93E9
:10131000A091BF02B091C002E091C102F091C2025F
:10132000908197959927979511968C9111978F7722
:10133000892B11968C93E091C102F091C2028189B0
:10134000843618F480E090E00CC0843B18F481E00F
:1013500090E007C08F3F19F483E090E002C082E084
:1013600090E0E091BF02F091C002982F9370990F26
:10137000990F8181837F892B8183E091C102F09154
:10138000C2028089843618F480E090E00CC0843B6F
:1013900018F481E090E007C08F3F19F483E090E0FB
:1013A00002C082E090E0E091BF02F091C002982F6D
:1013B00093709295907F81818F7C892B8183E091BE
:1013C000C102F091C202848161E10E941513282FAD
:1013D0008F3009F42EE0858161E10E941513982F6A
:1013E0008F3009F49EE0E091BF02F091C0022F70AF
:1013F0008281807F822B8283E091BF02F091C002C4
:101400009295907F82818F70892B8283E091C102B7
:10141000F091C202868161E10E941513282F8F305E
:1014200009F42EE0878161E10E941513982F8F3017
:1014300009F49EE0E091BF02F091C0022F70838119
:10144000807F822B8383E091BF02F091C00292954E
:10145000907F83818F70892B83838091BF029091CD
:10146000C002009B04C064E00E94D61103C064E087
:101470000E94C112C7010197F1F727CE8F929F9268
:10148000AF92BF92CF92DF92EF92FF920F931F9392
:10149000DF93CF9300D000D0CDB7DEB78EEF81BB06
:1014A00082E882BB82E082B9109261008FEF809364
:1014B00062000E94730080E090E068E020E03BE47E
:1014C00040E050E00E94770F85E290E10E94100B0F
:1014D000EE24FF24CC24DD24A4E2AA2EA4EFBA2E0D
:1014E000F8EA8F2EF1E69F2E04C0EE24FF24CC24D0
:1014F000DD2482B38B7A82BBF894929A979880E02D
:1015000090E0F5013197F1F7019685319105C9F722
:101510000E9476049A83898389819A81892B49F76D
:101520000E9407039C838B838B819C81019729F008
:101530008B819C81029709F04FC082B38B7A82BB6A
:10154000949A00E010E04B815C8180E992E060E0D9
:1015500070E00E94D3059A83898389819A81892BBF
:1015600041F0C4010197F1F70F5F1F4F05301105DE
:1015700051F789819A81892B21F582B38B7A82BBBD
:10158000929A949AC4010197F1F780E992E00E943F
:101590003E079A838983C5010197F1F789819A8172
:1015A000892B41F086E0E816F1047CF40894E11CF4
:1015B000F11CEBCF82B38B7A82BB969A0E94B8075C
:1015C0000BC08BE0E816F1041CF020E030E00AC00C
:1015D0000894E11CF11C8DCFCD28B9F7E1E0CE2EA7
:1015E000D12C87CF929A969A80E090E0F5013197BE
:1015F000F1F701968A309105C9F782B38B7A82BBE5
:1016000080E090E0F5013197F1F701968A3091057D
:10161000C9F72230310509F468CF2F5F3F4FE2CF81
:10162000909339028093380208952F923F924F92FF
:101630005F926F927F928F929F92AF92BF92CF9262
:10164000DF92EF92FF920F931F93DF93CF93CDB76B
:10165000DEB7E1970FB6F894DEBF0FBECDBF289678
:10166000EEADFFAD28978091380290913902892B19
:1016700009F489C388E4A82EB12CAC0EBD1E8824C1
:101680009924B8C18F010F5F1F4F853251F0E0914F
:101690003802F091390209950894811C911CF801D7
:1016A000A9C1F801CC24DD2480818B3299F08C32E1
:1016B00028F48032A1F0833229F41BC08D3229F046
:1016C000803391F060E070E01DC001E010E0C02ABE
:1016D000D12A13C022E030E0C22AD32A0EC044E04F
:1016E00050E0C42AD52A09C088E090E0C82AD92A47
:1016F00004C0A0E1B0E0CA2ADB2A3196D5CF6F5FE3
:101700007F4F3196808180538A30C8F3DF01AB016F
:1017100021E030E06624772419C0829190E0C097E0
:101720008C01209FC001219F900D309F900D1124AE
:10173000680E791EC901880F991F13E0220F331F0D
:101740001A95E1F7280F391F4150504041155105B6
:1017500021F79D01261B370B260F371F3CA72BA710
:10176000D9018C91883621F08C36B9F090E01CC0FC
:101770002BA53CA52F5F3F4FEBA5FCA581818836AB
:1017800021F43CA72BA793E001C092E00BA51CA578
:101790000F5F1F4F1CA70BA707C02BA53CA52F5FF2
:1017A0003F4F3CA72BA791E0ABA5BCA58C918E36F3
:1017B00009F40DC18F3698F4833621F1843640F454
:1017C000883519F1823649F1853209F00AC1ABC07A
:1017D000843609F415C1893609F003C111C1833774
:1017E00001F1843730F48F36A1F0803709F0F9C069
:1017F0007FC0853709F4E3C2883709F0F2C0B3E04F
:10180000BEA305C0E7E0EDA790C0F4E0FEA320E191
:10181000D9C205E00EA328E0D5C216E01EA322E03F
:10182000D1C202E0202E312C2A0C3B1CD501ED90B8
:10183000FC90C3FC03C010E2512E02C0B0E35B2E4B
:1018400020E030E002C02F5F3F4FF701E20FF31FAF
:1018500080818823C1F7261537051CF0AA24BB24F4
:1018600003C05301A21AB30AC0FC0DC0850126C0F3
:101870000894E11CF11CE0913802F09139020995BD
:101880000894811C911CF7018081882389F78501C8
:1018900006C0E0913802F091390280E209950150CA
:1018A0001040FFEF0F3F1F07A1F78A0C9B1C1EC0C3
:1018B000E0913802F0913902852D099501501040D0
:1018C0002FEF0F3F1207A1F78A0C9B1C0BC0089447
:1018D000E11CF11CE0913802F0913902099508945D
:1018E000811C911CD7018C91882389F751017FC0FD
:1018F000E0E1F0E0CE2ADF2AD5018D919C91AA2764
:1019000097FDA095BA2F8A839B83AC83BD83B9E1F1
:10191000CB22DD24E2E0F0E0AE0EBF1E3324F9E07E
:10192000FEA320E1CDC00AE00DA7161417041CF099
:10193000EE24FF2404C073010894E108F108C0FEFE
:101940001FC0E0913802F09139021DA5173011F047
:1019500085E206C0D5018C9102E010E0A00EB11E18
:101960000995870106C0E0913802F091390280E2C2
:101970000995015010402FEF0F3F1207A1F721C02A
:10198000C3FC03C0A0E2DA2E02C0F0E3DF2E870121
:1019900002C08D2D099501501040E0913802F09160
:1019A00039023FEF0F3F1307A1F74DA5473011F064
:1019B00085E206C0D5018C9102E010E0A00EB11EB8
:1019C00009950894811C911C8E0C9F1C10C0D50198
:1019D000ED91FC9191828082E2E0F0E0AE0EBF1EBC
:1019E00006C00BA51CA5015010401CA70BA7EBA51A
:1019F000FCA531968081882309F044CE9401C5C1AD
:101A0000913039F0913098F0923089F09330F1F4C0
:101A10000EC0F50180819181A281B3818A839B836D
:101A2000AC83BD8304E010E0A00EB11E0FC0D50151
:101A30008D919C91AA2797FDA095BA2F8A839B83AD
:101A4000AC83BD83E2E0F0E0AE0EBF1E2A813B8195
:101A50004C815D8157FD04C03324F1E0FEA30FC02B
:101A600088279927DC01821B930BA40BB50B8A8373
:101A70009B83AC83BD833324339401E00EA32AE01F
:101A80001FC0F50180819181A281B3818A839B83EC
:101A9000AC83BD8304E010E0A00EB11E0DC0D501E3
:101AA0008D919C91A0E0B0E08A839B83AC83BD8341
:101AB000E2E0F0E0AE0EBF1EF9E1CF22DD243324D8
:101AC000C1FE04C00BEF1FEFC022D122C0FE04C034
:101AD00047EF5FEFC422D5225EA1543019F0E7E54D
:101AE0002E2E02C077E3272E8A819B81AC81BD8197
:101AF0008FA398A7A9A7BAA77C018D0160E2462E03
:101B0000512C822F90E0A0E0B0E08EA79FA7A8AB59
:101B1000B9AB089441085108C801B7012EA53FA5EB
:101B200048A959A90E9421136A3010F480E301C02A
:101B3000822DE6E0F0E0EC0FFD1FE40DF51D860FB1
:101B40008083C801B7012EA53FA548A959A90E94C5
:101B50002113C901DA017C018D01E114F1040105B1
:101B6000110519F041145104A1F6332019F05DE27A
:101B7000352E0CC0C1FE03C04BE2342E07C0C2FCA0
:101B800003C03AE2332E02C020E2322E80E290E01F
:101B90008419950920E030E0AAE23A1611F021E01C
:101BA00030E0820F931FC4FE18C00FA118A529A50D
:101BB0003AA5011511052105310579F01EA1153051
:101BC000B9F0163028F4133059F0143031F40CC049
:101BD0002EA1263089F0293019F004E111E00FC060
:101BE000029605E111E00BC0029608E111E007C082
:101BF00001960BE111E003C002960DE111E086159C
:101C000097051CF06624772402C0681A790AC0FE82
:101C100044C03AE2331681F0E0913802F091390283
:101C2000832D06C00F5F1F4FE0913802F0913902FB
:101C300009950894811C911CD8018C91882391F7F7
:101C400096E0E92EF12CEC0EFD1EE40CF51C820151
:101C5000E0913802F0913902D7018D917D0109950B
:101C60000F5F1F4F0032110599F77201E094F09455
:101C7000830106C0E0913802F091390280E20995B3
:101C800001501040BFEF0F3F1B07A1F7E1E2F0E06A
:101C9000EE0EFF1EE60CF71C97CEC3FC02C07301CC
:101CA0002FC0FAE23F1681F0E0913802F09139023C
:101CB000832D06C00F5F1F4FE0913802F09139026B
:101CC00009950894811C911CD8018C91882391F767
:101CD000830106C0E0913802F091390280E3099552
:101CE00001501040BFEF0F3F1B07A1F77401E60C36
:101CF000F71C2CC0E0913802F091390280E209957E
:101D00000894E108F108EFEFEE16EFEFFE0691F709
:101D10007301E80CF91C0AC00F5F1F4FE0913802F5
:101D2000F091390209950894E11CF11CD8018C91BD
:101D3000882391F7BAE23B1649F0E0913802F0911E
:101D40003902832D09950894E11CF11C86E0C82E08
:101D5000D12CCC0EDD1EC40CD51C8201E0913802C2
:101D6000F0913902D6018D916D0109950F5F1F4FDA
:101D70000032110599F7470184189508E0E2F0E078
:101D80008E0E9F1E34CE2FEF3FEFC901E1960FB6A6
:101D9000F894DEBF0FBECDBFCF91DF911F910F91A1
:101DA000FF90EF90DF90CF90BF90AF909F908F907B
:101DB0007F906F905F904F903F902F900895F2E04A
:101DC000FEA32AE0913009F45CCE913008F467CE8E
:101DD000923009F464CE933009F06ECE60CEFC01EF
:101DE0007183608357834683138212821582148223
:101DF00081E080870895DC0118968C9118978823DC
:101E000071F412962D913C91139714968D919C919B
:101E100015972817390719F420E030E022C0ED911A
:101E2000FC91119714968D919C911597E80FF91FCD
:101E3000608314968D919C911597019615969C93AD
:101E40008E93149716962D913C91179782179307AE
:101E500021F415961C921E92149718961C9221E05C
:101E600030E0C9010895CF93DF93DC01EB011896B0
:101E70008C911897882381F5ED91FC91119712961A
:101E80008D919C911397E80FF91F8081888312969A
:101E90008D919C911397019613969C938E93129714
:101EA00016962D913C9117978217930721F413965C
:101EB0001C921E92129712962D913C911397149694
:101EC0008D919C9115972817390719F481E0189680
:101ED0008C9321E030E003C0188220E030E0C9019B
:101EE000DF91CF910895FC01808590E00895FF92E5
:101EF0000F931F93DF93CF9300D000D0CDB7DEB701
:101F00008C01F62E63E0220F331F441F551F6A9584
:101F1000D1F760E072E18AE790E00E94211321503E
:101F20003040404050400115110531F0013011059D
:101F300081F12FEF3FEF61C0599A1AB88091950057
:101F400086608093950019821A821B821C820BC0C6
:101F500089819A81AB81BC810196A11DB11D8983C4
:101F60009A83AB83BC8389819A81AB81BC81885879
:101F70009341A040B04060F3FAB8BB27A52F942F3F
:101F8000832F8093900029B98BB18BB1837E8BB95D
:101F900032C080919B00826080939B00BB27A52F5D
:101FA000942F832F809398002093990019821A828E
:101FB0001B821C820BC089819A81AB81BC810196F6
:101FC000A11DB11D89839A83AB83BC8389819A81CA
:101FD000AB81BC8188589341A040B04060F38091B0
:101FE0009A008F2980939A0080919B0080919B009A
:101FF000837E80939B0020E030E0C9010F900F901A
:102000000F900F90CF91DF911F910F91FF90089546
:1020100082309105A0F4FC01A3E0EE0FFF1FAA950A
:10202000E1F7E80FF91FE65CFD4F7183608357838A
:102030004683138212821582148281E0808708957C
:102040005F9BFECF5F988CB108955D9BFECF8CB9EE
:102050005D9880E090E00895982F8A3061F4809137
:102060009B0085FFFCCF8DE080939C0080919B00BE
:102070008F7D80939B0080919B0085FFFCCF909388
:102080009C0080919B008F7D80939B0080E090E07E
:1020900008950F931F93182F0FB700934C02F894D5
:1020A0008A3051F48AE392E06DE00E94FB0E892BA6
:1020B00019F42FEF3FEF0DC08AE392E0612F0E94E9
:1020C000FB0E892B19F42FEF3FEF02C020E030E028
:1020D000559A0FBFC9011F910F9108950F931F9338
:1020E000182F0FB700934C02F8948A3051F483E410
:1020F00092E06DE00E94FB0E892B19F42FEF3FEF69
:1021000011C083E492E0612F0E94FB0E892B19F429
:102110002FEF3FEF02C020E030E080919A00806214
:1021200080939A000FBFC9011F910F9108951F92CC
:102130000F920FB60F920BB60F9211242F933F936D
:102140004F935F936F937F938F939F93AF93BF93BF
:10215000EF93FF93DF93CF930F92CDB7DEB78AE370
:1021600092E0BE016F5F7F4F0E94330F892B19F001
:1021700089818CB901C055985D980F90CF91DF91FE
:10218000FF91EF91BF91AF919F918F917F916F914F
:102190005F914F913F912F910F900BBE0F900FBE0B
:1021A0000F901F9018951F920F920FB60F920BB6BB
:1021B0000F9211242F933F934F935F936F937F93CD
:1021C0008F939F93AF93BF93EF93FF93DF93CF933F
:1021D0000F92CDB7DEB783E492E0BE016F5F7F4F11
:1021E0000E94330F892B21F0898180939C0005C0C8
:1021F00080919A008F7D80939A0080919B008F7DC3
:1022000080939B000F90CF91DF91FF91EF91BF9151
:10221000AF919F918F917F916F915F914F913F917E
:102220002F910F900BBE0F900FBE0F901F9018951F
:102230009093210380932003089590932603809325
:1022400025030895E0912003F09121030995089555
:10225000E0912503F091260309950895382FFB019D
:10226000282F22952F70822F90E00A9714F480E394
:1022700001C087E3820F8083832F90E08F7090707E
:102280008A30910514F027E301C020E3280F218351
:1022900012820895FC01DB0190818C91981741F422
:1022A000918111968C91981719F420E030E002C0CA
:1022B0002FEF3FEFC9010895FF920F931F93CF9324
:1022C000DF938C01EB01F42EE0912003F0912103C8
:1022D00080E40995E0912003F0912103D8018C91CD
:1022E0000995E0912003F0912103D80111968C917A
:1022F000099503C089910995FA94E0912003F09122
:102300002103FF20B9F78DE00995E0912003F091BA
:1023100021038AE0099580E090E0DF91CF911F9141
:102320000F91FF900895982FDA0180914D02882334
:1023300019F0813069F508C09A3251F510928E0279
:1023400081E080934D0224C09A3011F580918E0275
:10235000282F30E021503040F901E25BFD4F8081B1
:102360008D30B1F483E005C0E25BFD4F80818D9339
:10237000892FE82FF0E0982F9F5FE217F307A4F36F
:1023800080938F021C9210924D0221E030E00CC02D
:1023900080918E02E82FF0E0E25BFD4F90838F5F2B
:1023A00080938E0220E030E0C9010895EF92FF9201
:1023B0001F93DF93CF9300D00F92CDB7DEB77C0190
:1023C000162FE0912003F091210380E40995E0911C
:1023D0002003F091210384E40995E0912003F0911A
:1023E000210384E50995812FBE016F5F7F4F0E9415
:1023F0002E11E0912003F091210389810995E0914C
:102400002003F09121038A81099505C0D7018D91A0
:102410007D0109951150E0912003F09121031123D2
:10242000A9F78DE00995E0912003F09121038AE05E
:10243000099580E090E00F900F900F90CF91DF9181
:102440001F91FF90EF900895FF920F931F93DF93DA
:10245000CF930F92CDB7DEB78C01F62EE091250316
:10246000F0912603CE0101960995898162E273E01D
:1024700040EE52E00E949311892B19F440E050E0A5
:1024800033C080912203843469F58091230382351F
:1024900049F59091E0028091E102913410F430E32B
:1024A00001C037E3813410F420E301C027E3931B1C
:1024B000821B9295907F892B482F50E0E2EEF2E04C
:1024C00021E030E06F2D70E006C08191D8018D933E
:1024D0008D012F5F3F4F4217530734F06217730788
:1024E000A4F702C04FEF5FEFCA010F90CF91DF91C9
:1024F0001F910F91FF9008950F931F93DF93CF9338
:1025000000D00F92CDB7DEB7982F8750883218F0E1
:102510002FEF3FEF0FC0892F8E010F5F1F4FB801C4
:102520000E942E1180E291E0B80142E00E945C110D
:1025300020E030E0C9010F900F900F90CF91DF9114
:102540001F910F9108950F931F93DF93CF9300D0A6
:102550000F92CDB7DEB78E010F5F1F4FB8010E94FB
:102560002E1183E291E0B80142E00E945C1180E00C
:1025700090E00F900F900F90CF91DF911F910F91EE
:102580000895EF92FF921F93DF93CF9300D00F92A5
:10259000CDB7DEB77C01162FE0912003F091210327
:1025A0008AE20995E0912003F091210384E40995E2
:1025B000E0912003F091210382E50995E091200349
:1025C000F09121038DE30995812FBE016F5F7F4F4D
:1025D0000E942E11E0912003F09121038981099539
:1025E000E0912003F09121038A81099505C0D7016C
:1025F0008D917D0109951150E0912003F091210307
:102600001123A9F78DE00995E0912003F0912103B2
:102610008AE0099580E090E00F900F900F90CF91A5
:10262000DF911F91FF90EF900895991B79E004C00E
:10263000991F961708F0961B881F7A95C9F7809501
:102640000895A1E21A2EAA1BBB1BFD010DC0AA1FF3
:10265000BB1FEE1FFF1FA217B307E407F50720F00B
:10266000A21BB30BE40BF50B661F771F881F991F86
:102670001A9469F760957095809590959B01AC01CF
:0A268000BD01CF010895F894FFCFCB
:10268A00219A44800708090A0C0D0E0F25262728CF
:10269A002A2B2C2D00307800305800300030620090
:0626AA004348004749000F
:00000001FF
