:100000000C9446000C9465000C9465000C946500FB
:100010000C9465000C9465000C9465000C946500CC
:100020000C9465000C9465000C9465000C946500BC
:100030000C9465000C9465000C9465000C946500AC
:100040000C9465000C9465000C9465000C942318C6
:100050000C9465000C9465000C9465000C9465008C
:100060000C9465000C9465000C9465000C9465007C
:100070000C9465000C9465000C9465000C945F185A
:100080000C9465000C9465000C94650011241FBE4F
:10009000CFEFD0E1DEBFCDBF1DE0A0E0B1E0E0EFEB
:1000A000F5E300E00BBF02C007900D92A032B1074C
:1000B000D9F71FE0A0E2BDE001C01D92A232B10756
:1000C000E1F70E946F110C94F61A0C9400008CEF6B
:1000D00081BB80E882BB82E082B9109261008FEF21
:1000E00080936200089585B7806C85BFEDE6F0E0EF
:1000F00080818E608083ECE6F0E080818068808380
:10010000089580E090E89093BF0E8093BE0E80E04B
:1001100090EC9093D10E8093D00E0895E091BE0E96
:10012000F091BF0E808392E3892F8A95F1F7E091D9
:10013000D00EF091D10E80819A95F1F70895E0915B
:10014000BE0EF091BF0E808382E3982F9A95F1F74F
:10015000E091D00EF091D10E60838A95F1F7089569
:10016000DB0114161506CCF4E091BE0EF091BF0E23
:10017000808382E38A95F1F792E309C0E091D00E83
:10018000F091D10E80818D93892F8A95F1F741509E
:1001900050408FEF4F3F580789F70895DB01141641
:1001A0001506CCF4E091BE0EF091BF0E808382E381
:1001B0008A95F1F792E309C0E091D00EF091D10E4B
:1001C0008D918083892F8A95F1F7415050408FEFB0
:1001D0004F3F580789F708951092A70D1092A60D6A
:1001E00081E090E09093A90D8093A80D0895EF927F
:1001F0000F931F93FC01618342832383012B11F42E
:1002000080E001C080E88683E0821F910F91EF902B
:100210000895FC0160830895CF92DF92EF92FF92E0
:100220000F931F93CF93DF93EC017A016901CB0108
:1002300001970F9708F051C0EF8DF8A18481082F26
:1002400010E020E030E040E050E010C0ADA1BEA1E1
:10025000FD01E40FF51F828190E08F709070495F7F
:100260005F4F8617970731F02F5F3F4F20173107F9
:100270006CF333C0C90143E0880F991F4A95E1F739
:10028000821B930BA80FB91F16968C91882329F116
:10029000D0932C0EC0932B0E70932E0E60932D0EC8
:1002A000D092300EC0922F0EF092280EE092270EC0
:1002B000F0922A0EE092290E8091A60D9091A70D42
:1002C0009093320E8093310E87E29EE09093A70DBB
:1002D0008093A60D20E030E002C02FEF3FEFC90170
:1002E000DF91CF911F910F91FF90EF90DF90CF9012
:1002F000089520910A0E10920A0E213019F081E023
:1003000080930A0E30E02655324FC901089520919E
:10031000240E1092240E213019F081E08093240ED7
:100320001092260E1092250E30E0220F331F220F5E
:10033000331F245E314FC9010895AF92BF92DF92FF
:10034000EF92FF920F931F93CF93DF93C0E1D0E022
:10035000E0EFEE2EF12C72E3D72E60E0A62E61E0E6
:10036000B62EE091BE0EF091BF0EC0838D2D8A9502
:10037000F1F7E091D00EF091D10EE0828D2D8A95AB
:10038000F1F700D000D0EDB7FEB7B282A182D483DE
:10039000C3830E94A112E091BE0EF091BF0EC083F4
:1003A0008D2D8A95F1F7E091D00EF091D10E00815C
:1003B0008D2D8A95F1F710E0EDB7FEB7B282A182DC
:1003C000148303830E94A1120F900F900F900F903F
:1003D0000E151F0571F000D084E091E0EDB7FEB777
:1003E000928381830E94A1122FEF3FEF0F900F9015
:1003F0000AC021960894E108F108CF3FD10509F021
:10040000B0CF20E030E0C901DF91CF911F910F9173
:10041000FF90EF90DF90BF90AF90089580E090E85C
:100420009093BF0E8093BE0E80E090EC9093D10E1F
:100430008093D00E1092230D1092220D0E949D01E8
:1004400008951092A70D1092A60D81E090E0909370
:10045000A90D8093A80D1092250D1092240D0E94D5
:100460000E0208950F931F93CF93DF9300D083E183
:1004700091E0ADB7BEB712969C938E9311970E94F0
:10048000A11288EA91E60197F1F7E091BE0EF09192
:10049000BF0E8FE0808392E3892F8A95F1F7E09178
:1004A000D00EF091D10E80E88083892F8A95F1F7E4
:1004B000E091BE0EF091BF0E25E02083892F8A9532
:1004C000F1F7E091D00EF091D10E88E08083892F72
:1004D0008A95F1F7ECE4FDE13197F1F7E091BE0E7A
:1004E000F091BF0E2083892F8A95F1F7E091D00E0D
:1004F000F091D10E10829A95F1F790E00F900F9045
:100500004DE022E33FEFE091BE0EF091BF0E0DE013
:10051000408312E3822F8A95F1F7E091D00EF0919B
:10052000D10E3083822F8A95F1F79F5F943659F769
:10053000E091BE0EF091BF0E0083812F8A95F1F7F6
:10054000E091D00EF091D10EE081812F8A95F1F7E4
:10055000E6FF20C000D083E291E0EDB7FEB79283C2
:1005600081830E94A112E091BE0EF091BF0E86E041
:100570008083812F8A95F1F7E091D00EF091D10E12
:1005800080E18083812F8A95F1F7C0E0D0E00F9061
:100590000F90EAC0E7FF57C000D08DE391E0ADB700
:1005A000BEB712969C938E9311970E94A112E09170
:1005B000BE0EF091BF0E8EE08083812F8A95F1F7F9
:1005C000E091D00EF091D10E80EE8083812F8A953C
:1005D000F1F7E091BE0EF091BF0E8FE08083812F86
:1005E0008A95F1F7E091D00EF091D10E8EEA8083DA
:1005F000812F8A95F1F7E091BE0EF091BF0E85E054
:100600008083812F8A95F1F7E091D00EF091D10E81
:1006100081E08083812F8A95F1F7E091BE0EF09101
:10062000BF0E0083812F8A95F1F7E091D00EF091F3
:10063000D10E8FEF8083812F8A95F1F7C2E0D0E051
:100640000F900F905AC000D083E691E0EDB7FEB74F
:10065000928381830E94A112E091BE0EF091BF0EA1
:100660008EE08083812F8A95F1F7E091D00EF09192
:10067000D10E80EE8083812F8A95F1F7E091BE0E36
:10068000F091BF0E8FE08083812F8A95F1F7E09182
:10069000D00EF091D10E8EEE8083812F8A95F1F7E6
:1006A000E091BE0EF091BF0E85E08083812F8A9588
:1006B000F1F7E091D00EF091D10E81E28083812F8D
:1006C0008A95F1F790E00F900F904DE022E33FEF15
:1006D000E091BE0EF091BF0E4083822F8A95F1F714
:1006E000E091D00EF091D10E3083822F8A95F1F7F0
:1006F0009F5F943169F7C1E0D0E0E091BE0EF091C8
:10070000BF0E26E0208392E3892F8A95F1F7E091CE
:10071000D00EF091D10E80E18083892F8A95F1F778
:10072000E091BE0EF091BF0E2083892F8A95F1F7DC
:10073000E091D00EF091D10E20819A95F1F700D082
:1007400000D0EDB7FEB7319688E891E0ADB7BEB7FF
:1007500012969C938E931197228313820E94A1126A
:100760000F900F900F900F90CE01DF91CF911F91BE
:100770000F9108952F923F924F925F926F927F92C6
:100780008F929F92AF92BF92CF92DF92EF92FF92A1
:100790000F931F93CF93DF938C012B014A01FC0130
:1007A0008381282E332485819681892B85839081AE
:1007B000E091BE0EF091BF0E8CE0808322E3822F89
:1007C0008A95F1F7E091D00EF091D10E9083822FAF
:1007D0008A95F1F7F80191819069E091BE0EF09150
:1007E000BF0E8BE08083822F8A95F1F7E091D00EC7
:1007F000F091D10E90832A95F1F77A0180E1A82E2D
:10080000B12CB2E37B2EA2E36A2EF801828190E044
:1008100067018E159F050CF46C01C6018A0D9B1DA6
:100820008F3F910521F01CF0F0E1AF2EB12C4A2D45
:10083000E091BE0EF091BF0E89E08083872D8A95EE
:10084000F1F7E091D00EF091D10EA082872D8A951C
:10085000F1F7E091BE0EF091BF0E9AE09083872DE4
:100860008A95F1F7E091D00EF091D10EC082872DDC
:100870008A95F1F720E030E04DC0F8018581E091E4
:10088000BE0EF091BF0E98E09083972D9A95F1F7E8
:10089000E091D00EF091D10E8083872D8A95F1F7EB
:1008A00084EF91E00197F1F7E091BE0EF091BF0E59
:1008B0008DE08083872D8A95F1F7E091D00EF0913D
:1008C000D10E8081972D9A95F1F781FFEDCFE091C0
:1008D000BE0EF091BF0E9BE0908382E38A95F1F704
:1008E000E091D00EF091D10EE08182E38A95F1F78C
:1008F000E7FF0CC000D08DE991E0EDB7FEB7928321
:1009000081830E94A1124EEF5FEF5FC0E0FD07C040
:100910002F5F3F4F221533050CF4AFCF4BC0E09152
:10092000BE0EF091BF0E8CE08083862D8A95F1F784
:10093000E091D00EF091D10E8081962D9A95F1F72D
:10094000E601C81BD1094114510461F018141904BF
:100950004CF4B4016E197F09640D751D842FA60136
:100960000E94B000EC1AFD0AF8018581F0E48F279F
:10097000F80185831E141F0434F4CC15DD0519F429
:10098000AC0EBD1E42CFA4014E195F09CA01DF9112
:10099000CF911F910F91FF90EF90DF90CF90BF907C
:1009A000AF909F908F907F906F905F904F903F900F
:1009B0002F90089500D081EB91E0EDB7FEB79283C0
:1009C00081830E94A1124FEF5FEF0F900F90DECF57
:1009D000FC0183E08583CF010E94BA030895FC01E6
:1009E0006183BA01A9010E94E8040895FC01809185
:1009F0000A0E6AEA7DE0680F711D81E08183CF01F4
:100A000040E350E00E94E80408952F923F924F92F5
:100A10005F926F927F928F929F92AF92BF92CF928E
:100A2000DF92EF92FF920F931F93CF93DF93EC012E
:100A30004B018A018B81682E77248C819E81892BC2
:100A40008C83E091BE0EF091BF0E81E0808392E333
:100A5000892F8A95F1F7E091D00EF091D10E80E1C7
:100A60008083892F8A95F1F74881E091BE0EF0913D
:100A7000BF0E84E08083892F8A95F1F7E091D00E34
:100A8000F091D10E40839A95F1F72130310511F4A0
:100A900020ED02C029812061E091BE0EF091BF0ED1
:100AA00083E0808382E3982F9A95F1F7E091D00E4E
:100AB000F091D10E20838A95F1F7780142E3B42EAC
:100AC00030E5232E33EC332E22E3A22E92EE492E74
:100AD00094E0592E8A8190E067018E159F050CF4F1
:100AE0006C018114910461F0101611064CF4B801E8
:100AF0006E197F09680D791D80E1A6010E94CE0064
:100B0000E091BE0EF091BF0E82E080838B2D8A951E
:100B1000F1F7E091D00EF091D10EC0828B2D8A9525
:100B2000F1F720E030E053C08C81E091BE0EF091EF
:100B3000BF0E10829B2D9A95F1F7E091D00EF091A7
:100B4000D10E80838B2D8A95F1F7C1010197F1F7C2
:100B5000E091BE0EF091BF0E9DE090838B2D8A95A3
:100B6000F1F7E091D00EF091D10E80819B2D9A95F6
:100B7000F1F780FFEDCFE091BE0EF091BF0E83E064
:100B800080838A2D8A95F1F7E091D00EF091D10EF5
:100B900080819A2D9A95F1F78093210D8091210DF6
:100BA00087FF0CC000D08DE991E0EDB7FEB79283CE
:100BB00081830E94A1120EEF1FEF1CC08091210DB6
:100BC00080FD09C0C2010197F1F72F5F3F4F261545
:100BD00037050CF4A9CF8091210D80FD0EC000D007
:100BE00088EC91E0EDB7FEB7928381830E94A11259
:100BF0000FEF1FEF0F900F900AC0EC18FD088C81CB
:100C0000F0E48F278C831E141F040CF463CFC801FB
:100C1000DF91CF911F910F91FF90EF90DF90CF90D8
:100C2000BF90AF909F908F907F906F905F904F900C
:100C30003F902F900895CF92DF92EF92FF920F9303
:100C40001F93CF93DF938C017B016A0187E0F8014A
:100C50008483C80148E050E021E030E00E940505AF
:100C6000EC0197FD4BC0F7014681578141155105B5
:100C7000B1F1C114D10499F1808187FF17C083E4D9
:100C8000F8018583C801B6010E94BA03EC0197FD03
:100C900035C087E4F8018483C80160E070E040E07B
:100CA00050E020E030E00E94050516C087E4F8011E
:100CB0008483C801B60120E030E00E940505EC0104
:100CC00097FD1CC083E4F8018583C80160E070E0F3
:100CD00040E050E00E94BA03AE01EC010DC083E495
:100CE000F8018583C80160E070E040E050E00E94B8
:100CF000BA03EC0140E050E0D7FFEA01CE01DF91FA
:100D0000CF911F910F91FF90EF90DF90CF900895BA
:100D1000FC0111820E941B060895EF92FF920F932F
:100D20001F93DF93CF93CDB7DEB728970FB6F89414
:100D3000DEBF0FBECDBF71EA798371E07A8310E028
:100D4000F62FE0E00E2B1F2B1C830B83FE82ED821F
:100D500038872F83BE016F5F7F4F0E9488062896D9
:100D60000FB6F894DEBF0FBECDBFCF91DF911F91BC
:100D70000F91FF90EF900895CF92DF92EF92FF9244
:100D80000F93CF93DF936C0110920A0EC0E0D0E076
:100D9000D6015F96ED91FC919097E280C60163E0E9
:100DA00070E04BE05EE021E130E002EFFF240E94C2
:100DB0008D0697FF07C02196CA30D10549F72FEF5E
:100DC0003FEF0AC0C60161E070E04FE050E026EF5F
:100DD00034E00E940C019C01C901DF91CF910F9179
:100DE000FF90EF90DF90CF900895DF93CF93CDB732
:100DF000DEB728970FB6F894DEBF0FBECDBFAB01AC
:100E000020E8298328E02A831C821B821E821D82FF
:100E100021E030E038872F83BE016F5F7F4F0E9453
:100E2000880628960FB6F894DEBF0FBECDBFCF91CF
:100E3000DF910895DF93CF93CDB7DEB728970FB634
:100E4000F894DEBF0FBECDBF198229E02A837C83D0
:100E50006B831E821D8218861F82BE016F5F7F4FCB
:100E600040E050E00E94880628960FB6F894DEBF56
:100E70000FBECDBFCF91DF910895EF92FF920F93F8
:100E80001F93DF93CF93CDB7DEB728970FB6F894B3
:100E9000DEBF0FBECDBF7C018B01198285E08A8346
:100EA0007C836B831E821D8218861F82C701BE0150
:100EB0006F5F7F4F40E050E00E9488069C0197FDE5
:100EC00009C0F801EA5DF24F81E08083F7011087E5
:100ED00007830083C90128960FB6F894DEBF0FBEC2
:100EE000CDBFCF91DF911F910F91FF90EF900895AB
:100EF000EF92FF920F93DF93CF93CDB7DEB7289792
:100F00000FB6F894DEBF0FBECDBFDC01F90180E85B
:100F10008983862F8152823010F481E8898386E0AC
:100F20008A83202F30E0962F80E0282B392B3C83BA
:100F30002B83FE82ED82F887EF83CD01BE016F5FC8
:100F40007F4F0E94880628960FB6F894DEBF0FBE2A
:100F5000CDBFCF91DF910F91FF90EF900895AF92A9
:100F6000BF92CF92DF92EF92FF920F931F93CF9396
:100F7000DF936430710509F405C2653071056CF4C6
:100F80006230710509F414C1633071050CF0D5C1EC
:100F90006130710509F0FBC40DC06132710509F4BF
:100FA0004FC46932710509F4A7C36530710509F0B2
:100FB000EEC4E1C2EC0100D080EE91E0ADB7BEB767
:100FC00012969C938E9311970E94A11200D0EDB7B8
:100FD000FEB7319686E092E0ADB7BEB712969C930D
:100FE0008E9311978881828313820E94A112EDB79C
:100FF000FEB7319681E392E0ADB7BEB712969C93EF
:101000008E9311978981828313820E94A1128CE5AD
:1010100092E0EDB7FEB7928381838A819B819483AE
:1010200083830E94A112EDB7FEB7319685E892E066
:10103000ADB7BEB712969C938E9311978C81828325
:1010400013820E94A1120F900F900F900F908C812D
:10105000893041F400D08FEA92E0EDB7FEB7928379
:10106000818309C000D08AEC92E0ADB7BEB712967A
:101070009C938E9311970E94A11200D0EDB7FEB7FA
:1010800031968CEC92E0ADB7BEB712969C938E93DE
:1010900011978D81828313820E94A112EDB7FEB752
:1010A000319687EF92E0ADB7BEB712969C938E93C0
:1010B00011978E81828313820E94A1122F8100D00A
:1010C000EDB7FEB7319682E293E0ADB7BEB71296A8
:1010D0009C938E93119722831382248315820E94FE
:1010E000A1120F900F908AE593E0EDB7FEB79283BF
:1010F000818388859985948383830E94A11283E8E4
:1011000093E0ADB7BEB712969C938E9311978A85E4
:101110009B8514969C938E9313970E94A1128CEA40
:1011200093E0EDB7FEB7928381838C859D85948390
:1011300083830E94A112EDB7FEB7319685ED93E04F
:10114000ADB7BEB712969C938E9311978E8582830E
:1011500013820E94A112EDB7FEB7319680E094E0B1
:10116000ADB7BEB712969C938E9311978F858283ED
:1011700013820E94A112EDB7FEB731968BE294E084
:10118000ADB7BEB712969C938E93119788898283D0
:1011900013820E94A112EDB7FEB7319686E594E066
:1011A000ADB7BEB712969C938E93119789893FC3B2
:1011B000EC0100D081E894E0EDB7FEB79283818323
:1011C0000E94A11200D0EDB7FEB7319686E092E002
:1011D000ADB7BEB712969C938E9311978881828388
:1011E00013820E94A112EDB7FEB7319681E392E01F
:1011F000ADB7BEB712969C938E9311978981828367
:1012000013820E94A1128EEA94E0EDB7FEB792839A
:1012100081838A819B81948383830E94A112EDB78D
:10122000FEB7319687ED94E0ADB7BEB712969C93AA
:101230008E9311978C81828313820E94A112EDB745
:10124000FEB7319682E095E0ADB7BEB712969C939B
:101250008E9311978D81828313820E94A112EDB724
:10126000FEB731968DE295E0ADB7BEB712969C936E
:101270008E9311978E81828313820E94A112EDB703
:10128000FEB7319688E595E0ADB7BEB712969C9350
:101290008E9311978F81828313820E94A1128F8176
:1012A0000F900F900F900F9086FD03C087E895E098
:1012B00002C084E995E000D0EDB7FEB79283818348
:1012C0000E94A1128F810F900F9085FD03C082EACA
:1012D00095E002C083EA95E000D0ADB7BEB71296A4
:1012E0009C938E9311970E94A1128AEC92E0EDB725
:1012F000FEB7928381830E94A112288530E000D03E
:1013000000D0EDB7FEB7319681EB95E0ADB7BEB733
:1013100012969C938E93119733832283220F331F4F
:10132000358324830E94A112EDB7FEB736960FB61F
:10133000F894FEBF0FBEEDBF2AC38C01DC018C9177
:1013400090E0029762E070E00E94AD1AEB0182E249
:101350000E94B117780100E010E006C0F70181811A
:101360000E94B1170F5F1F4F82E090E0E80EF91E58
:101370000C171D079CF382E20E94B1178AE00E94BD
:10138000B11705C3EC0100D084EE95E0ADB7BEB750
:1013900012969C938E9311970E94A11200D0EDB7E4
:1013A000FEB7319686E092E0ADB7BEB712969C9339
:1013B0008E9311978881828313820E94A112EDB7C8
:1013C000FEB7319681E392E0ADB7BEB712969C931B
:1013D0008E9311978981828313820E94A112EDB7A7
:1013E000FEB731968DE096E0ADB7BEB712969C93EE
:1013F0008E9311978A81828313820E94A112EDB786
:10140000FEB7319688E396E0ADB7BEB712969C93CF
:101410008E9311978B81828313820E94A112EDB764
:10142000FEB7319683E696E0ADB7BEB712969C93B1
:101430008E9311978C81828313820E94A112EDB743
:10144000FEB731968EE896E0ADB7BEB712969C9384
:101450008E9311978D81828313820E94A1120F9027
:101460000F900F900F908D81833019F0893079F4AF
:1014700004C000D088EB96E00DC000D082ED96E06D
:10148000ADB7BEB712969C938E93119707C000D04C
:101490008AEC92E0EDB7FEB7928381830E94A1129D
:1014A00000D0EDB7FEB731968CEE96E0ADB7BEB783
:1014B00012969C938E9311978E81828313820E9441
:1014C000A1120F900F900F900F908E81813041F4F8
:1014D00000D086E197E0EDB7FEB79283818309C023
:1014E00000D08AEC92E0ADB7BEB712969C938E9373
:1014F00011970E94A11200D0EDB7FEB731968BE292
:1015000097E0ADB7BEB712969C938E9311978F81DB
:10151000828313820E94A1120F900F900F900F9060
:101520008F81813019F0823079F404C000D085E5D4
:1015300097E00DC000D084E697E0ADB7BEB7129635
:101540009C938E93119707C000D08AEC92E0EDB780
:10155000FEB7928381830E94A11200D0EDB7FEB73F
:10156000319680E797E0ADB7BEB712969C938E9305
:10157000119788855CC1EC0100D08BE997E0EDB74D
:10158000FEB7928381830E94A11200D0EDB7FEB70F
:10159000319686E092E0ADB7BEB712969C938E93DB
:1015A00011978881828313820E94A112EDB7FEB742
:1015B000319681E392E0ADB7BEB712969C938E93BD
:1015C00011978981828313820E94A112EDB7FEB721
:1015D000319683EC97E0ADB7BEB712969C938E938D
:1015E00011978A81828313820E94A1120F900F901B
:1015F0000F900F908A8187FD03C08DEF97E002C0A6
:1016000081E098E000D0EDB7FEB7928381830E941D
:10161000A11200D084E098E0ADB7BEB712969C93BB
:101620008E9311978A8190E08F70907014969C939E
:101630008E9313970E94A112EDB7FEB7319688E5FD
:1016400095E0ADB7BEB712969C938E9311978B81A0
:10165000828313820E94A1120F900F900F900F901F
:101660008B8190E0837090708130910581F08230A1
:1016700091051CF4892B39F023C08230910559F073
:101680000397F1F410C000D087E198E007C000D0C4
:101690008EE298E00BC000D089E498E0EDB7FEB789
:1016A0009283818309C000D08DE598E0ADB7BEB7C5
:1016B00012969C938E9311970E94A1120F900F90F7
:1016C00000D000D086E798E0EDB7FEB79283818323
:1016D0008C819D819770948383830E94A112EDB7C2
:1016E000FEB731968FE998E0ADB7BEB712969C93DE
:1016F0008E9311978E819BC08C0100D08AEC98E06C
:10170000EDB7FEB7928381830E94A11200D0EDB79E
:10171000FEB731968DEE98E0ADB7BEB712969C93AA
:101720008E931197D8018C91828313820E94A1120B
:10173000EDB7FEB7319681E392E0ADB7BEB7129632
:101740009C938E931197D80111968C91828313826A
:101750000E94A112EDB7FEB7319688E199E0ADB7CE
:10176000BEB712969C938E931197D80112968C91C6
:10177000828313820E94A11283E499E0EDB7FEB741
:1017800092838183D80113968D919C9114979483B1
:1017900083830E94A112F801258130E000D0EDB7CB
:1017A000FEB731968CE699E0ADB7BEB712969C9322
:1017B0008E93119733832283220F331F3583248323
:1017C0000E94A112F8012681EDB7FEB731968FE98C
:1017D00099E0ADB7BEB712969C938E931197228372
:1017E0001382248315820E94A1120F900F90EDB7EF
:1017F000FEB7319682ED99E0ADB7BEB712969C93D5
:101800008E931197D80117968C91828313820E9430
:10181000A112EDB7FEB731968DEF99E0ADB7BEB727
:1018200012969C938E931197D80118968C9182836F
:1018300013820E94A1120F900F900F900F90A7C0DB
:101840008C0100D088E29AE0EDB7FEB792838183E5
:101850000E94A11200D0EDB7FEB7319686E092E06B
:10186000ADB7BEB712969C938E931197D8018C9109
:10187000828313820E94A112EDB7FEB7319661E315
:10188000E62E62E0F62EADB7BEB71296FC92EE924F
:101890001197D80111968C91828313820E94A11214
:1018A0008BE49AE0EDB7FEB792838183D80112965C
:1018B0008D919C911397948383830E94A112EDB71D
:1018C000FEB7319684E79AE0ADB7BEB712969C9307
:1018D0008E931197D80114968C91828313820E9463
:1018E000A112EDB7FEB731968FE99AE0ADB7BEB75A
:1018F00012969C938E931197D80115968C918283A2
:1019000013820E94A112F801808190E0069763E0A3
:1019100070E00E94AD1AEB01CC24DD240F900F90F3
:101920000F900F9057015AECE52E5AE0F52E2AC081
:1019300000D000D0EDB7FEB73196ADB7BEB7119667
:10194000AC9211971296BC92D80114968C91828316
:1019500013820E94A112EDB7FEB73196ADB7BEB7A4
:101960001296FC92EE921197D80115968C91828373
:1019700013820E94A1120894C11CD11C0F900F90D9
:101980000F900F900E5F1F4FCC16DD068CF2DF918B
:10199000CF911F910F91FF90EF90DF90CF90BF906C
:1019A000AF9008956F927F928F929F92AF92BF9265
:1019B000CF92DF92EF92FF920F931F93DF93CF931B
:1019C0000F92CDB7DEB76C01672B41F04130510566
:1019D00029F461E070E024E130E004C060E070E0F0
:1019E0002CE030E0D60111961C92119788E01296F7
:1019F0008C93129713962C93672B11F480E001C0FF
:101A000080E8F601868310825287418700D083EFF9
:101A1000A82E8AE0B82EADB7BEB71296BC92AE9291
:101A200011970E94A1120BE0602E712C6C0C7D1C92
:101A30000F900F90C60161E0A30128E030E000E0C4
:101A4000EE24FF240E94780797FD5CC1F60182898D
:101A50001182828384E183831682108200D08AE01F
:101A60009BE0ADB7BEB712969C938E9311970E94E0
:101A7000A1120F900F90C60161E070E00E943D0737
:101A80008F5F9F4F09F43EC100D0EDB7FEB7B28221
:101A9000A1820E94A1120F900F90C60161E0A301E4
:101AA00022E130E00E94780797FD2CC100D01EE1B2
:101AB000812E1BE0912EADB7BEB712969C928E92EE
:101AC00011970E94A1120F900F90B2EDAB2EBEE0C5
:101AD000BB2EC60162E0A50129E030E00E94780734
:101AE00097FD10C100D0EDB7FEB7928281820E94AF
:101AF000A112D6015E96BC92AE925D970F900F90A8
:101B00002091D40E3091D50EC60162E0A5010E944D
:101B1000780797FDF7C0D6015D96ED91FC915E9731
:101B20008081E80FF11D9096FC93EE935F971F96CE
:101B30008C911F978823E9F485818330D1F48081CB
:101B4000E80FF11D9296FC93EE9391978081E80F38
:101B5000F11D9696FC93EE93959700D08CE39BE055
:101B6000EDB7FEB7928381830E94A1120F900F9070
:101B700014C0D60192961C921E92919794961C9234
:101B80001E9293975F96ED91FC9190978081E80F5C
:101B9000F11D9696FC93EE93959700D083E59BE01C
:101BA000EDB7FEB7928381830E94A1120F900F9030
:101BB000D6015D96ED91FC915E976581C60170E05E
:101BC0000E941A07C601BE016F5F7F4F0E94F50693
:101BD0008981882359F000D086E69BE0EDB7FEB7F7
:101BE000928381830E94A1120F900F9000D08FE703
:101BF0009BE0ADB7BEB712969C938E9311970E944F
:101C0000A1128BEA9BE0EDB7FEB7928381830E941D
:101C1000A1128FEB9BE0ADB7BEB712969C938E934B
:101C200011970E94A1120F900F90F6018185928565
:101C3000029719F087ED9BE002C08CED9BE000D08D
:101C4000ADB7BEB712969C938E9311970E94A112C6
:101C500000D082EE9BE0EDB7FEB792838183D60180
:101C600017968D919C911897948383830E94A1125B
:101C70000F900F900F900F90C30161E070E00E94F1
:101C8000AF07F601858D968D62E070E00E94AF0788
:101C9000D6015F968D919C91909764E070E00E94D0
:101CA000AF07F6018785882379F4078CF0A1E02D32
:101CB0008581833049F4D60191968D919C919297BC
:101CC00061E270E00E94AF07D6015F96ED91FC9152
:101CD0009097948100E010E087E0989F70011124B4
:101CE0000BC0F60185A196A1800F911F65E070E001
:101CF0000E94AF07095F1F4F0E151F0591F720E0E7
:101D000030E002C02FEF3FEFC9010F90CF91DF917C
:101D10001F910F91FF90EF90DF90CF90BF90AF9009
:101D20009F908F907F906F9008958F929F92AF9227
:101D3000BF92CF92DF92EF92FF920F931F93CF93B8
:101D4000DF9390E0EE24E39400E01CE0A4EDAA2EE3
:101D5000A0E3BA2EFDE0CF2EE2E3FE2EDD24DA94DE
:101D600011C0E091BE0EF091BF0EC0828F2D8A95FA
:101D7000F1F7E091D00EF091D10ED0828F2D8A959F
:101D8000F1F79F5F943168F360910A0E70E0665539
:101D9000724FE0928C0E8BE89EE040E350E00E9490
:101DA000E804E0910A0E10920A0EE13011F0E09280
:101DB0000A0EF0E0E455F24FF093BD0EE093BC0E36
:101DC00000D000D0ADB7BEB71196CDB7DEB71A833D
:101DD00009838281817012968C93129713961C92BC
:101DE0000E94A112E091BC0EF091BD0E82810F9075
:101DF0000F900F900F9080FD05C0C5010197F1F77E
:101E000090E0AFCF80E090E068E120E03BE440E08C
:101E100050E00E9403178CEA97E10E94A91881EB19
:101E200097E10E94A418009B61C020B100D000D0AF
:101E300080E091E0EDB7FEB79283818320952295F3
:101E4000269526952370238314820E94A112E0B167
:101E50000F900F900F900F90E095E295E695E69524
:101E6000E370F0E0E650F34F80810E942F1A40B1FA
:101E700080B100D000D000D0EDB7FEB7319624E09D
:101E80003CE0ADB7BEB712963C932E9311974095A8
:101E9000429546954695437042831382809582957C
:101EA0008F7090E083709070958384830E94A1125C
:101EB000E0B180B1CDB7DEB726960FB6F894DEBF9D
:101EC0000FBECDBF809582958370E095E295E69533
:101ED000E695E370F0E0EE0FFF1FEE0FFF1FE80F37
:101EE000F11DE250F34F80810E94081A82B384658D
:101EF00082BB9091240E1092240E913019F081E053
:101F00008093240E1092260E1092250E892F90E0B9
:101F1000880F991F880F991F845E914F9093BB0E75
:101F20008093BA0E90E0AA24A3940BE01CE05AEC34
:101F3000E52E52E0F52E40E1C42E47E2D42E3DE0DE
:101F4000932E22E3B22E88248A9411C0E091BE0E13
:101F5000F091BF0E90828B2D8A95F1F7E091D00E13
:101F6000F091D10E80828B2D8A95F1F79F5F94318D
:101F700068F360910A0E70E06655724FA0928C0E65
:101F80008BE89EE040E350E00E94E804E0910A0EF6
:101F900010920A0EE13011F0A0920A0EF0E0E65520
:101FA000F24F3296F093BD0EE093BC0E3297A091A3
:101FB000BA0EB091BB0E9281991F9927991F8C91EF
:101FC0008E7F892B8C93A091BA0EB091BB0EE091BD
:101FD000BC0EF091BD0E90819295969592708C9169
:101FE0008D7F892B8C93A091BA0EB091BB0EE0919E
:101FF000BC0EF091BD0E9081969596959695947035
:102000008C918B7F892B8C93A091BA0EB091BB0ED3
:10201000E091BC0EF091BD0E9081969598708C91D8
:10202000877F892B8C93A091BA0EB091BB0EE09163
:10203000BC0EF091BD0E9181991F9927991F929521
:10204000907F8C918F7E892B8C93A091BA0EB0914A
:10205000BB0EE091BC0EF091BD0E918196959072F1
:102060008C918F7D892B8C93A091BA0EB091BB0E71
:10207000E091BC0EF091BD0E9181990F90748C91FE
:102080008F7B892B8C93A091BA0EB091BB0EE091FF
:10209000BC0EF091BD0E918192959F7097959927F6
:1020A00097958C918F77892B8C93A091BA0EB091D4
:1020B000BB0EE091BC0EF091BD0E91819695969568
:1020C0009695917011968C9111978E7F892B119610
:1020D0008C93A091BA0EB091BB0EE091BC0EF09122
:1020E000BD0E91819695927011968C9111978D7F6E
:1020F000892B11968C93A091BA0EB091BB0EE091F2
:10210000BC0EF091BD0E9081990F990F990F9074AC
:1021100011968C9111978F7B892B11968C93A0919E
:10212000BA0EB091BB0EE091BC0EF091BD0E908145
:1021300097959927979511968C9111978F77892B61
:1021400011968C93E091BC0EF091BD0E818984367E
:1021500018F480E090E00CC0843B18F481E090E03B
:1021600007C08F3F19F483E090E002C082E090E066
:10217000E091BA0EF091BB0E982F9370990F990FC2
:102180008181837F892B8183E091BC0EF091BD0E0C
:102190008089843618F480E090E00CC0843B18F409
:1021A00081E090E007C08F3F19F483E090E002C027
:1021B00082E090E0E091BA0EF091BB0E982F937000
:1021C0009295907F81818F7C892B8183E091BC0ED9
:1021D000F091BD0E848161E10E94A11A282F8F30F9
:1021E00009F42EE0858161E10E94A11A982F8F30B9
:1021F00009F49EE0E091BA0EF091BB0E2F7082813F
:10220000807F822B8283E091BA0EF091BB0E929573
:10221000907F82818F70892B8283E091BC0EF09138
:10222000BD0E868161E10E94A11A282F8F3009F42A
:102230002EE0878161E10E94A11A982F8F3009F466
:102240009EE0E091BA0EF091BB0E2F708381807FEB
:10225000822B8383E091BA0EF091BB0E9295907F12
:1022600083818F70892B8383C0E0D0E000D000D0C1
:10227000EDB7FEB73196ADB7BEB712961C930E936D
:102280001197A091BA0EB091BB0EAC0FBD1F8C91EF
:10229000828313820E94A11221960F900F900F90BB
:1022A0000F90C730D10511F700D0CDB7DEB7FA8255
:1022B000E9820E94A1120F900F908091BA0E909126
:1022C000BB0E009B04C064E00E94621903C064E07E
:1022D0000E944D1AC6010197F1F790E037CE2F9278
:1022E0003F924F925F926F927F928F929F92AF92A6
:1022F000BF92CF92DF92EF92FF920F931F93DF93E3
:10230000CF9300D000D0CDB7DEB78CEF81BB80E893
:1023100082BB82E082B9109261008FEF80936200ED
:102320000E94730080E090E068E120E03BE440E040
:1023300050E00E94031781EB97E10E949C1241E15B
:10234000242E4CE0342E34E2432E34EF532E22E37D
:10235000622E2CE0722E93E4892E9CE0992E89E562
:10236000A82E8CE0B82E08EAC02E01E6D02E1BEC79
:10237000E12E1CE0F12E82B38B7A82BBF894929A04
:1023800000D0EDB7FEB7328221820E94A112979849
:1023900080E090E00F900F90F2013197F1F70196F5
:1023A00085319105C9F70E9421029A838983898129
:1023B0009A81892B09F0B3C092980E9432029C83C3
:1023C0008B838B819C81892B19F480E29CE010C067
:1023D0008B819C81019719F485E29CE009C08B8177
:1023E0009C81029719F089E29CE002C08DE29CE09A
:1023F00000D000D0EDB7FEB77282618294838383F0
:102400000E94A1128B819C810F900F900F900F90D2
:10241000019729F08B819C81029709F08CC000D034
:10242000EDB7FEB7928281820E94A11200E010E017
:102430000F900F90949A4B815C818BE89EE060E056
:1024400070E00E94D20C9A83898389819A8100D09E
:1024500000D0EDB7FEB7B282A182948383830E943D
:10246000A11289819A810F900F900F900F90892B64
:1024700041F0C6010197F1F70F5F1F4F03301105BF
:10248000C9F689819A81892B09F03FC0949800D0C0
:102490008DE79CE0EDB7FEB7928381830E94A11285
:1024A00089E99CE0EDB7FEB7928381830E94A11277
:1024B00084E294EF0197F1F70F900F90B4E2EB2EC6
:1024C000B4EFFB2E07EA1CE08BE89EE00E94BC06FE
:1024D0009A838983C7010197F1F789819A8100D096
:1024E00000D0EDB7FEB712830183948383830E94EB
:1024F000A11289819A810F900F900F900F90892BD4
:1025000019F7969A0E94950E16C000D0EDB7FEB747
:10251000F282E1820E94A1120F900F902CCF00D086
:1025200085EE9CE0EDB7FEB7928381830E94A112F5
:102530000F900F90FFCFFFCF9093340E8093330E08
:1025400008952F923F924F925F926F927F928F9257
:102550009F92AF92BF92CF92DF92EF92FF920F9332
:102560001F93DF93CF93CDB7DEB7E1970FB6F89403
:10257000DEBF0FBECDBF2896EEADFFAD2897809190
:10258000330E9091340E892B09F489C388E4A82E68
:10259000B12CAC0EBD1E88249924B8C18F010F5FE9
:1025A0001F4F853251F0E091330EF091340E0995B2
:1025B0000894811C911CF801A9C1F801CC24DD24E8
:1025C00080818B3299F08C3228F48032A1F08332F2
:1025D00029F41BC08D3229F0803391F060E070E067
:1025E0001DC001E010E0C02AD12A13C022E030E073
:1025F000C22AD32A0EC044E050E0C42AD52A09C01A
:1026000088E090E0C82AD92A04C0A0E1B0E0CA2A34
:10261000DB2A3196D5CF6F5F7F4F31968081805313
:102620008A30C8F3DF01AB0121E030E06624772473
:1026300019C0829190E0C0978C01209FC001219F1A
:10264000900D309F900D1124680E791EC901880FDE
:10265000991F13E0220F331F1A95E1F7280F391F36
:10266000415050404115510521F79D01261B370B64
:10267000260F371F3CA72BA7D9018C91883621F054
:102680008C36B9F090E01CC02BA53CA52F5F3F4FC6
:10269000EBA5FCA58181883621F43CA72BA793E00C
:1026A00001C092E00BA51CA50F5F1F4F1CA70BA735
:1026B00007C02BA53CA52F5F3F4F3CA72BA791E060
:1026C000ABA5BCA58C918E3609F40DC18F3698F45C
:1026D000833621F1843640F4883519F1823649F188
:1026E000853209F00AC1ABC0843609F415C18936B8
:1026F00009F003C111C1833701F1843730F48F36FB
:10270000A1F0803709F0F9C07FC0853709F4E3C232
:10271000883709F0F2C0B3E0BEA305C0E7E0EDA73B
:1027200090C0F4E0FEA320E1D9C205E00EA328E0AA
:10273000D5C216E01EA322E0D1C202E0202E312C29
:102740002A0C3B1CD501ED90FC90C3FC03C010E2A9
:10275000512E02C0B0E35B2E20E030E002C02F5FBC
:102760003F4FF701E20FF31F80818823C1F7261541
:1027700037051CF0AA24BB2403C05301A21AB30AD4
:10278000C0FC0DC0850126C00894E11CF11CE0913D
:10279000330EF091340E09950894811C911CF701B9
:1027A0008081882389F7850106C0E091330EF0917E
:1027B000340E80E2099501501040FFEF0F3F1F07D4
:1027C000A1F78A0C9B1C1EC0E091330EF091340ED1
:1027D000852D0995015010402FEF0F3F1207A1F7EB
:1027E0008A0C9B1C0BC00894E11CF11CE091330E79
:1027F000F091340E09950894811C911CD7018C919D
:10280000882389F751017FC0E0E1F0E0CE2ADF2A7A
:10281000D5018D919C91AA2797FDA095BA2F8A8307
:102820009B83AC83BD83B9E1CB22DD24E2E0F0E001
:10283000AE0EBF1E3324F9E0FEA320E1CDC00AE0B6
:102840000DA7161417041CF0EE24FF2404C0730116
:102850000894E108F108C0FE1FC0E091330EF0912A
:10286000340E1DA5173011F085E206C0D5018C91FC
:1028700002E010E0A00EB11E0995870106C0E091AC
:10288000330EF091340E80E20995015010402FEF85
:102890000F3F1207A1F721C0C3FC03C0A0E2DA2E4C
:1028A00002C0F0E3DF2E870102C08D2D0995015093
:1028B0001040E091330EF091340E3FEF0F3F1307BD
:1028C000A1F74DA5473011F085E206C0D5018C91E6
:1028D00002E010E0A00EB11E09950894811C911C25
:1028E0008E0C9F1C10C0D501ED91FC9191828082CD
:1028F000E2E0F0E0AE0EBF1E06C00BA51CA5015025
:1029000010401CA70BA7EBA5FCA53196808188235E
:1029100009F044CE9401C5C1913039F0913098F05E
:10292000923089F09330F1F40EC0F50180819181ED
:10293000A281B3818A839B83AC83BD8304E010E0D2
:10294000A00EB11E0FC0D5018D919C91AA2797FDB5
:10295000A095BA2F8A839B83AC83BD83E2E0F0E02D
:10296000AE0EBF1E2A813B814C815D8157FD04C0A4
:102970003324F1E0FEA30FC088279927DC01821BD6
:10298000930BA40BB50B8A839B83AC83BD83332449
:10299000339401E00EA32AE01FC0F50180819181EC
:1029A000A281B3818A839B83AC83BD8304E010E062
:1029B000A00EB11E0DC0D5018D919C91A0E0B0E09C
:1029C0008A839B83AC83BD83E2E0F0E0AE0EBF1E42
:1029D000F9E1CF22DD243324C1FE04C00BEF1FEF49
:1029E000C022D122C0FE04C047EF5FEFC422D5222F
:1029F0005EA1543019F0E7E52E2E02C077E3272EB2
:102A00008A819B81AC81BD818FA398A7A9A7BAA712
:102A10007C018D0160E2462E512C822F90E0A0E0D7
:102A2000B0E08EA79FA7A8ABB9AB089441085108A6
:102A3000C801B7012EA53FA548A959A90E94C01AEF
:102A40006A3010F480E301C0822DE6E0F0E0EC0F84
:102A5000FD1FE40DF51D860F8083C801B7012EA56B
:102A60003FA548A959A90E94C01AC901DA017C01F1
:102A70008D01E114F1040105110519F0411451040F
:102A8000A1F6332019F05DE2352E0CC0C1FE03C063
:102A90004BE2342E07C0C2FC03C03AE2332E02C020
:102AA00020E2322E80E290E08419950920E030E0A7
:102AB000AAE23A1611F021E030E0820F931FC4FE23
:102AC00018C00FA118A529A53AA5011511052105C2
:102AD000310579F01EA11530B9F0163028F4133005
:102AE00059F0143031F40CC02EA1263089F0293071
:102AF00019F00EE01DE00FC002960FE01DE00BC0C4
:102B0000029602E11DE007C0019605E11DE003C049
:102B1000029607E11DE0861597051CF066247724D0
:102B200002C0681A790AC0FE44C03AE2331681F046
:102B3000E091330EF091340E832D06C00F5F1F4FCE
:102B4000E091330EF091340E09950894811C911C8C
:102B5000D8018C91882391F796E0E92EF12CEC0EA8
:102B6000FD1EE40CF51C8201E091330EF091340E51
:102B7000D7018D917D0109950F5F1F4F003211051F
:102B800099F77201E094F094830106C0E091330E4E
:102B9000F091340E80E2099501501040BFEF0F3FD5
:102BA0001B07A1F7E1E2F0E0EE0EFF1EE60CF71CBA
:102BB00097CEC3FC02C073012FC0FAE23F1681F02A
:102BC000E091330EF091340E832D06C00F5F1F4F3E
:102BD000E091330EF091340E09950894811C911CFC
:102BE000D8018C91882391F7830106C0E091330EC0
:102BF000F091340E80E3099501501040BFEF0F3F74
:102C00001B07A1F77401E60CF71C2CC0E091330EF2
:102C1000F091340E80E209950894E108F108EFEF95
:102C2000EE16EFEFFE0691F77301E80CF91C0AC0EF
:102C30000F5F1F4FE091330EF091340E0995089409
:102C4000E11CF11CD8018C91882391F7BAE23B1664
:102C500049F0E091330EF091340E832D09950894DC
:102C6000E11CF11C86E0C82ED12CCC0EDD1EC40C5C
:102C7000D51C8201E091330EF091340ED6018D9176
:102C80006D0109950F5F1F4F0032110599F747013C
:102C900084189508E0E2F0E08E0E9F1E34CE2FEFF0
:102CA0003FEFC901E1960FB6F894DEBF0FBECDBF6E
:102CB000CF91DF911F910F91FF90EF90DF90CF9018
:102CC000BF90AF909F908F907F906F905F904F904C
:102CD0003F902F900895F2E0FEA32AE0913009F48E
:102CE0005CCE913008F467CE923009F464CE933014
:102CF00009F06ECE60CEFC017183608357834683FA
:102D0000138212821582148281E080870895DC018B
:102D100018968C911897882371F412962D913C91F6
:102D2000139714968D919C9115972817390719F4CC
:102D300020E030E022C0ED91FC91119714968D9126
:102D40009C911597E80FF91F608314968D919C91C3
:102D50001597019615969C938E93149716962D9120
:102D60003C9117978217930721F415961C921E9297
:102D7000149718961C9221E030E0C9010895CF9372
:102D8000DF93DC01EB0118968C911897882381F56D
:102D9000ED91FC91119712968D919C911397E80FEC
:102DA000F91F8081888312968D919C9113970196CB
:102DB00013969C938E93129716962D913C9117978C
:102DC0008217930721F413961C921E921297129663
:102DD0002D913C91139714968D919C9115972817DE
:102DE000390719F481E018968C9321E030E003C094
:102DF000188220E030E0C901DF91CF910895FC01F5
:102E0000808590E00895FF920F931F93DF93CF93F7
:102E100000D000D0CDB7DEB78C01F62E63E0220FD4
:102E2000331F441F551F6A95D1F760E072E18AE7AE
:102E300090E00E94C01A215030404040504001159F
:102E4000110531F00130110581F12FEF3FEF61C025
:102E5000599A1AB8809195008660809395001982DE
:102E60001A821B821C820BC089819A81AB81BC8132
:102E70000196A11DB11D89839A83AB83BC8389818F
:102E80009A81AB81BC8188589341A040B04060F3E7
:102E9000FAB8BB27A52F942F832F8093900029B9D0
:102EA0008BB18BB1837E8BB932C080919B008260E5
:102EB00080939B00BB27A52F942F832F809398008E
:102EC0002093990019821A821B821C820BC089816F
:102ED0009A81AB81BC810196A11DB11D89839A8322
:102EE000AB83BC8389819A81AB81BC818858934133
:102EF000A040B04060F380919A008F2980939A009F
:102F000080919B0080919B00837E80939B0020E0BA
:102F100030E0C9010F900F900F900F90CF91DF918B
:102F20001F910F91FF90089582309105A0F4FC014C
:102F3000A3E0EE0FFF1FAA95E1F7E80FF91FEB5C86
:102F4000F14F718360835783468313821282158207
:102F5000148281E0808708955F9BFECF5F988CB1DB
:102F600008955D9BFECF8CB95D9880E090E0089558
:102F7000982F8A3061F480919B0085FFFCCF8DE013
:102F800080939C0080919B008F7D80939B0080911B
:102F90009B0085FFFCCF90939C0080919B008F7DD0
:102FA00080939B0080E090E008950F931F93182F6B
:102FB0000FB70093470EF8948A3051F485E39EE0F2
:102FC0006DE00E948716892B19F42FEF3FEF0DC09B
:102FD00085E39EE0612F0E948716892B19F42FEF5D
:102FE0003FEF02C020E030E0559A0FBFC9011F91AA
:102FF0000F9108950F931F93182F0FB70093470E4B
:10300000F8948A3051F48EE39EE06DE00E948716BA
:10301000892B19F42FEF3FEF11C08EE39EE0612F53
:103020000E948716892B19F42FEF3FEF02C020E092
:1030300030E080919A00806280939A000FBFC901AE
:103040001F910F9108951F920F920FB60F920BB61A
:103050000F9211242F933F934F935F936F937F931E
:103060008F939F93AF93BF93EF93FF93DF93CF9390
:103070000F92CDB7DEB785E39EE0BE016F5F7F4F55
:103080000E94BF16892B19F089818CB901C055980F
:103090005D980F90CF91DF91FF91EF91BF91AF912C
:1030A0009F918F917F916F915F914F913F912F9160
:1030B0000F900BBE0F900FBE0F901F9018951F9290
:1030C0000F920FB60F920BB60F9211242F933F93CE
:1030D0004F935F936F937F938F939F93AF93BF9320
:1030E000EF93FF93DF93CF930F92CDB7DEB78EE3CD
:1030F0009EE0BE016F5F7F4F0E94BF16892B21F0BB
:10310000898180939C0005C080919A008F7D809377
:103110009A0080919B008F7D80939B000F90CF91B0
:10312000DF91FF91EF91BF91AF919F918F917F912F
:103130006F915F914F913F912F910F900BBE0F9028
:103140000FBE0F901F90189590931C0F80931B0F2C
:1031500008959093210F8093200F0895E0911B0F05
:10316000F0911C0F09950895E091200FF091210F27
:1031700009950895382FFB01282F22952F70822F53
:1031800090E00A9714F480E301C087E3820F808304
:10319000832F90E08F7090708A30910514F027E3B0
:1031A00001C020E3280F218312820895FC01DB0176
:1031B00090818C91981741F4918111968C91981778
:1031C00019F420E030E002C02FEF3FEFC90108956D
:1031D000FF920F931F93CF93DF938C01EB01F42E9B
:1031E000E0911B0FF0911C0F80E40995E0911B0FFB
:1031F000F0911C0FD8018C910995E0911B0FF09173
:103200001C0FD80111968C91099503C089910995DD
:10321000FA94E0911B0FF0911C0FFF20B9F78DE09D
:103220000995E0911B0FF0911C0F8AE0099580E051
:1032300090E0DF91CF911F910F91FF900895982F0B
:10324000DA018091480E882319F0813069F508C0B1
:103250009A3251F51092890E81E08093480E24C075
:103260009A3011F58091890E282F30E0215030409E
:10327000F901E75BF14F80818D30B1F483E005C047
:10328000E75BF14F80818D93892FE82FF0E0982F35
:103290009F5FE217F307A4F380938A0E1C921092AB
:1032A000480E21E030E00CC08091890EE82FF0E05C
:1032B000E75BF14F90838F5F8093890E20E030E0D1
:1032C000C9010895EF92FF921F93DF93CF9300D02F
:1032D0000F92CDB7DEB77C01162FE0911B0FF09156
:1032E0001C0F80E40995E0911B0FF0911C0F84E402
:1032F0000995E0911B0FF0911C0F84E50995812F32
:10330000BE016F5F7F4F0E94BA18E0911B0FF091D2
:103310001C0F89810995E0911B0FF0911C0F8A8188
:10332000099505C0D7018D917D0109951150E09156
:103330001B0FF0911C0F1123A9F78DE00995E09167
:103340001B0FF0911C0F8AE0099580E090E00F9030
:103350000F900F90CF91DF911F91FF90EF90089504
:10336000FF920F931F93DF93CF930F92CDB7DEB7EA
:103370008C01F62EE091200FF091210FCE010196E5
:10338000099589816DE17FE04BED5EE00E941F1998
:10339000892B19F440E050E033C080911D0F843434
:1033A00069F580911E0F823549F59091DB0E809171
:1033B000DC0E913410F430E301C037E3813410F4B3
:1033C00020E301C027E3931B821B9295907F892BFA
:1033D000482F50E0EDEDFEE021E030E06F2D70E091
:1033E00006C08191D8018D938D012F5F3F4F421709
:1033F000530734F062177307A4F702C04FEF5FEF73
:10340000CA010F90CF91DF911F910F91FF90089506
:103410000F931F93DF93CF9300D00F92CDB7DEB7FA
:10342000982F8750883218F02FEF3FEF0FC0892F69
:103430008E010F5F1F4FB8010E94BA188AE19DE00C
:10344000B80142E00E94E81820E030E0C9010F9086
:103450000F900F90CF91DF911F910F9108950F93CF
:103460001F93DF93CF9300D00F92CDB7DEB78E01BD
:103470000F5F1F4FB8010E94BA188DE19DE0B8019F
:1034800042E00E94E81880E090E00F900F900F90CB
:10349000CF91DF911F910F910895EF92FF921F93AB
:1034A000DF93CF9300D00F92CDB7DEB77C01162FFC
:1034B000E0911B0FF0911C0F8AE20995E0911B0F20
:1034C000F0911C0F84E40995E0911B0FF0911C0F03
:1034D00082E50995E0911B0FF0911C0F8DE3099592
:1034E000812FBE016F5F7F4F0E94BA18E0911B0FC2
:1034F000F0911C0F89810995E0911B0FF0911C0F31
:103500008A81099505C0D7018D917D0109951150DA
:10351000E0911B0FF0911C0F1123A9F78DE0099585
:10352000E0911B0FF0911C0F8AE0099580E090E07C
:103530000F900F900F90CF91DF911F91FF90EF9020
:103540000895991B79E004C0991F961708F0961BFF
:10355000881F7A95C9F78095089597FB092E07264D
:103560000AD077FD04D02ED006D000201AF4709532
:1035700061957F4F0895F6F7909581959F4F089537
:10358000A1E21A2EAA1BBB1BFD010DC0AA1FBB1F67
:10359000EE1FFF1FA217B307E407F50720F0A21BD9
:1035A000B30BE40BF50B661F771F881F991F1A9446
:1035B00069F760957095809590959B01AC01BD0170
:1035C000CF010895AA1BBB1B51E107C0AA1FBB1F57
:1035D000A617B70710F0A61BB70B881F991F5A959F
:1035E000A9F780959095BC01CD010895F894FFCF7F
:1035F00025780A0045525245522D726567746573ED
:10360000742D00456E746572205553425265736582
:10361000740A0055534252657365743A20446576C6
:103620006963652052656D6F7665640A0055534283
:1036300052657365743A2046756C6C2073706565CD
:10364000642064657669636520617474616368658C
:10365000640A0055534252657365743A204C6F7783
:1036600020737065656420646576696365206174A4
:103670007461636865640A00494E54454E424C5279
:1036800045472D2D3E3078253032580A0021212122
:103690002052454144205354414C4C202121210AC1
:1036A0000021212120524541442054494D454F5687
:1036B0004552202121210A0021212120575249541D
:1036C000452054494D454F564552202121210A009D
:1036D0000A202020202020202020203D3D3D3E4467
:1036E00065766963652044657363726970746F728F
:1036F0003C3D3D3D0A00624C656E6774683A20208F
:1037000020202020202020202020202020202020B9
:103710002020202020202020203078253032580AF8
:10372000006244657363726970746F725479706576
:103730003A2020202020202020202020202020206F
:10374000202020203078253032580A0062636455EA
:1037500053423A20202020202020202020202020FA
:1037600020202020202020202020202020307825EC
:103770003034580A0062446576696365436C61734E
:10378000733A2020202020202020202020202020CC
:103790002020202020202020307825303258002082
:1037A000202D3E205468697320697320612048559C
:1037B00042204465766963650A000A0062446576C2
:1037C000696365537562436C6173733A20202020EE
:1037D00020202020202020202020202020202030D9
:1037E00078253032580A0062446576696365507204
:1037F0006F746F636F6C3A202020202020202020DF
:1038000020202020202020202020307825303258F1
:103810000A00624D61785061636B657453697A6523
:10382000303A20202020202020202020202020206E
:103830002020202020307825303258203D20282597
:1038400064292042797465730A00696456656E6460
:103850006F723A20202020202020202020202020AD
:1038600020202020202020202020203078253034C7
:10387000580A00696450726F647563743A2020209E
:103880002020202020202020202020202020202038
:10389000202020203078253034580A0062636444A8
:1038A00065766963653A2020202020202020202092
:1038B000202020202020202020202020203078259B
:1038C0003034580A00694D616E75666163747572B3
:1038D00065723A2020202020202020202020202037
:1038E00020202020202020203078253032580A0047
:1038F0006950726F647563743A2020202020202064
:1039000020202020202020202020202020202020B7
:103910002020203078253032580A006953657269BA
:10392000616C4E756D6265723A2020202020202047
:10393000202020202020202020202020202030781F
:10394000253032580A00624E756D436F6E666967A6
:1039500075726174696F6E733A20202020202020D8
:103960002020202020202020203078253032580AA6
:10397000000A202020202020202020203D3D3D3E08
:10398000436F6E66696775726174696F6E20446516
:103990007363726970746F723C3D3D3D0A007754E9
:1039A0006F74616C4C656E6774683A20202020202B
:1039B00020202020202020202020202020202030F7
:1039C00078253034580A00624E756D496E74657200
:1039D00066616365733A202020202020202020206B
:1039E0002020202020202020202030782530325810
:1039F0000A0062436F6E66696775726174696F6E03
:103A000056616C75653A202020202020202020203F
:103A100020202020203078253032580A0069436F5A
:103A20006E66696775726174696F6E3A2020202036
:103A30002020202020202020202020202020202086
:103A40003078253032580A00626D417474726962B0
:103A5000757465733A20202020202020202020200B
:103A600020202020202020202020203078253032C7
:103A70005820202D3E200042757320506F776572CC
:103A80006564200053656C6620506F7765726564CD
:103A900020000052656D6F74652057616B6575700D
:103AA000004D6178506F7765723A202020202020E9
:103AB0002020202020202020202020202020202006
:103AC00020202020307825303258203D20256420C9
:103AD0006D410A000A202020202020202020203DA7
:103AE0003D3D3E496E746572666163652044657351
:103AF00063726970746F723C3D3D3D0A0062496EAD
:103B0000746572666163654E756D6265723A2020F8
:103B100020202020202020202020202020202020A5
:103B20003078253032580A0062416C7465726E61DB
:103B3000746553657474696E673A202020202020D4
:103B400020202020202020202020203078253032E6
:103B5000580A00624E756D456E64706F696E7473BD
:103B60003A2020202020202020202020202020203B
:103B70002020202020203078253032580A00624949
:103B80006E74657266616365436C6173733A20207D
:103B90002020202020202020202020202020202025
:103BA000203078253032580020202D3E20484944CE
:103BB00020496E7465726661636520436C6173733E
:103BC0000A0020202D3E2048554220496E7465721F
:103BD0006661636520436C6173730A0062496E74A9
:103BE000657266616365537562436C6173733A20F5
:103BF00020202020202020202020202020202030B5
:103C000078253032580020202D3E20426F6F7420DE
:103C1000496E746572666163650A0062496E746517
:103C2000726661636550726F746F636F6C3A2020C7
:103C3000202020202020202020202020202030781C
:103C4000253032580020202D3E204B6579626F616F
:103C500072640A0020202D3E204D6F7573650A00A6
:103C600069496E746572666163653A202020202080
:103C70002020202020202020202020202020202044
:103C80002020203078253032580A000A20202020B9
:103C90002020202020203D3D3D3E456E64706F6910
:103CA0006E742044657363726970746F723C3D3D3D
:103CB0003D0A0062456E64706F696E74416464729F
:103CC0006573733A202020202020202020202020EF
:103CD00020202020202030782530325820202D3EF2
:103CE00020446972656374696F6E3A20004F5554C1
:103CF00000494E00202D20456E64706F696E744936
:103D0000443A2025640A00436F6E74726F6C20542D
:103D100072616E7366657220547970650A0049732A
:103D20006F6368726F6E6F7573205472616E736625
:103D3000657220547970650A0042756C6B2054726C
:103D4000616E7366657220547970650A00496E74FD
:103D5000657272757074205472616E73666572203C
:103D6000547970650A00774D61785061636B6574B2
:103D700053697A653A20202020202020202020200E
:103D8000202020202020203078253034580A00625E
:103D9000496E74657276616C3A20202020202020C4
:103DA0002020202020202020202020202020202013
:103DB00020203078253032580A000A202020202088
:103DC00020202020203D3D3D3E4855422044657343
:103DD00063726970746F723C3D3D3D0A00624465D8
:103DE00073634C656E6774683A2020202020202081
:103DF00020202020202020202020202020202020C3
:103E00003078253032580A00624E6272506F7274F8
:103E1000733A202020202020202020202020202035
:103E20002020202020202020202020307825303203
:103E3000580A0077487562436861726163746572FD
:103E40006973746963733A20202020202020202089
:103E5000202020203078253034580A0062507772B4
:103E60004F6E32507772476F6F643A2020202020C7
:103E70002020202020202020202020202020203032
:103E80007825303258203D202564206D730A006269
:103E9000487562436F6E747243757272656E743AE0
:103EA0002020202020202020202020202020202012
:103EB0002020307825303258203D202564206D4167
:103EC0000A0044657669636552656D6F7661626C60
:103ED000653A202020202020202020202020202083
:103EE00020202020203078253032580A00506F7270
:103EF000745077724374726C4D61736B3A2020205A
:103F000020202020202020202020202020202020B1
:103F10003078253032580A000A2020202020202026
:103F20002020203D3D3D3E48494420446573637256
:103F30006970746F723C3D3D3D0A0062636448499C
:103F4000443A202020202020202020202020202033
:103F500020202020202020202020202030782530E4
:103F600034580A0062436F756E747279436F6465EA
:103F70003A20202020202020202020202020202027
:103F8000202020202020203078253032580A00625E
:103F90004E756D44657363726970746F72733A2005
:103FA0002020202020202020202020202020202011
:103FB00020203078253032580A00774465736372C8
:103FC0006970746F724C656E6774683A20202020A7
:103FD0002020202020202020202020307825303450
:103FE000580A004745542044657669636520446556
:103FF0007363726970746F720A005345542044658C
:104000007669636520416464726573730A0047458D
:104010005420436F6E66696775726174696F6E20B4
:1040200044657363726970746F720A004745542067
:104030005265706F72742044657363726970746F37
:10404000720A0053455420436F6E6669677572614A
:1040500074696F6E0A00436F6E666967757261748A
:10406000696F6E2046696E6973686564210A002075
:104070002020202020202020202D2D2D3D3D3D3EA4
:1040800044657669636520496E666F726D61746917
:104090006F6E3C3D3D3D2D2D2D0A000A436F6E6E27
:1040A000656374696F6E5374617475733A0A0020A6
:1040B000202D3E2044657669636520427573205348
:1040C000706565643A20004C6F770A0046756C6C29
:1040D0000A004465766963652041646472657373A0
:1040E0003A202020202020203078253032580A0025
:1040F00025640A0025782025780A002530327820AA
:10410000005553425F5345545F53746572740A00FF
:104110004E4F4E45004C4F57003F3F3F0046554CD9
:104120004C0055534252657365742829202D202573
:10413000730A0044657669636520696E6974696114
:104140006C697A652E2E2E0A0072657475726E5F28
:10415000746D705B555342446576696365496E6959
:10416000745F696E335D2D2D3E25640A00446576CB
:1041700069636520696E697469616C697A65207329
:10418000756363656564210A00536F6E7920534936
:1041900058415849530A0072657475726E5F746DA8
:1041A000705B536F6E795F534958415849535F496B
:1041B0006E69745D2D2D3E25640A00446576696341
:1041C0006520696E697469616C697A6520657272CF
:1041D0006F72210A00496E697469616C697A6520A1
:1041E0004572726F722E2E2E0A00219A44800708A3
:1041F000090A0C0D0E0F252627282A2B2C2D0030FE
:1042000078003058003000306200434800474900D1
:00000001FF
